{
  "contracts/rpc-utils/MulticallV2.sol": {
    "Multicall2": {
      "abi": [
        {
          "inputs": [
            {
              "components": [
                {
                  "internalType": "address",
                  "name": "target",
                  "type": "address"
                },
                {
                  "internalType": "bytes",
                  "name": "callData",
                  "type": "bytes"
                }
              ],
              "internalType": "struct Multicall2.Call[]",
              "name": "calls",
              "type": "tuple[]"
            }
          ],
          "name": "aggregate",
          "outputs": [
            {
              "internalType": "uint256",
              "name": "blockNumber",
              "type": "uint256"
            },
            {
              "internalType": "bytes[]",
              "name": "returnData",
              "type": "bytes[]"
            }
          ],
          "stateMutability": "nonpayable",
          "type": "function"
        },
        {
          "inputs": [
            {
              "components": [
                {
                  "internalType": "address",
                  "name": "target",
                  "type": "address"
                },
                {
                  "internalType": "bytes",
                  "name": "callData",
                  "type": "bytes"
                }
              ],
              "internalType": "struct Multicall2.Call[]",
              "name": "calls",
              "type": "tuple[]"
            }
          ],
          "name": "blockAndAggregate",
          "outputs": [
            {
              "internalType": "uint256",
              "name": "blockNumber",
              "type": "uint256"
            },
            {
              "internalType": "bytes32",
              "name": "blockHash",
              "type": "bytes32"
            },
            {
              "components": [
                {
                  "internalType": "bool",
                  "name": "success",
                  "type": "bool"
                },
                {
                  "internalType": "bytes",
                  "name": "returnData",
                  "type": "bytes"
                }
              ],
              "internalType": "struct Multicall2.Result[]",
              "name": "returnData",
              "type": "tuple[]"
            }
          ],
          "stateMutability": "nonpayable",
          "type": "function"
        },
        {
          "inputs": [
            {
              "internalType": "uint256",
              "name": "blockNumber",
              "type": "uint256"
            }
          ],
          "name": "getBlockHash",
          "outputs": [
            {
              "internalType": "bytes32",
              "name": "blockHash",
              "type": "bytes32"
            }
          ],
          "stateMutability": "view",
          "type": "function"
        },
        {
          "inputs": [],
          "name": "getBlockNumber",
          "outputs": [
            {
              "internalType": "uint256",
              "name": "blockNumber",
              "type": "uint256"
            }
          ],
          "stateMutability": "view",
          "type": "function"
        },
        {
          "inputs": [],
          "name": "getCurrentBlockCoinbase",
          "outputs": [
            {
              "internalType": "address",
              "name": "coinbase",
              "type": "address"
            }
          ],
          "stateMutability": "view",
          "type": "function"
        },
        {
          "inputs": [],
          "name": "getCurrentBlockDifficulty",
          "outputs": [
            {
              "internalType": "uint256",
              "name": "difficulty",
              "type": "uint256"
            }
          ],
          "stateMutability": "view",
          "type": "function"
        },
        {
          "inputs": [],
          "name": "getCurrentBlockGasLimit",
          "outputs": [
            {
              "internalType": "uint256",
              "name": "gaslimit",
              "type": "uint256"
            }
          ],
          "stateMutability": "view",
          "type": "function"
        },
        {
          "inputs": [],
          "name": "getCurrentBlockTimestamp",
          "outputs": [
            {
              "internalType": "uint256",
              "name": "timestamp",
              "type": "uint256"
            }
          ],
          "stateMutability": "view",
          "type": "function"
        },
        {
          "inputs": [
            {
              "internalType": "address",
              "name": "addr",
              "type": "address"
            }
          ],
          "name": "getEthBalance",
          "outputs": [
            {
              "internalType": "uint256",
              "name": "balance",
              "type": "uint256"
            }
          ],
          "stateMutability": "view",
          "type": "function"
        },
        {
          "inputs": [],
          "name": "getLastBlockHash",
          "outputs": [
            {
              "internalType": "bytes32",
              "name": "blockHash",
              "type": "bytes32"
            }
          ],
          "stateMutability": "view",
          "type": "function"
        },
        {
          "inputs": [
            {
              "internalType": "bool",
              "name": "requireSuccess",
              "type": "bool"
            },
            {
              "components": [
                {
                  "internalType": "address",
                  "name": "target",
                  "type": "address"
                },
                {
                  "internalType": "bytes",
                  "name": "callData",
                  "type": "bytes"
                }
              ],
              "internalType": "struct Multicall2.Call[]",
              "name": "calls",
              "type": "tuple[]"
            }
          ],
          "name": "tryAggregate",
          "outputs": [
            {
              "components": [
                {
                  "internalType": "bool",
                  "name": "success",
                  "type": "bool"
                },
                {
                  "internalType": "bytes",
                  "name": "returnData",
                  "type": "bytes"
                }
              ],
              "internalType": "struct Multicall2.Result[]",
              "name": "returnData",
              "type": "tuple[]"
            }
          ],
          "stateMutability": "nonpayable",
          "type": "function"
        },
        {
          "inputs": [
            {
              "internalType": "bool",
              "name": "requireSuccess",
              "type": "bool"
            },
            {
              "components": [
                {
                  "internalType": "address",
                  "name": "target",
                  "type": "address"
                },
                {
                  "internalType": "bytes",
                  "name": "callData",
                  "type": "bytes"
                }
              ],
              "internalType": "struct Multicall2.Call[]",
              "name": "calls",
              "type": "tuple[]"
            }
          ],
          "name": "tryBlockAndAggregate",
          "outputs": [
            {
              "internalType": "uint256",
              "name": "blockNumber",
              "type": "uint256"
            },
            {
              "internalType": "bytes32",
              "name": "blockHash",
              "type": "bytes32"
            },
            {
              "components": [
                {
                  "internalType": "bool",
                  "name": "success",
                  "type": "bool"
                },
                {
                  "internalType": "bytes",
                  "name": "returnData",
                  "type": "bytes"
                }
              ],
              "internalType": "struct Multicall2.Result[]",
              "name": "returnData",
              "type": "tuple[]"
            }
          ],
          "stateMutability": "nonpayable",
          "type": "function"
        }
      ],
      "evm": {
        "bytecode": {
          "linkReferences": {},
          "object": "608060405234801561001057600080fd5b506109cf806100206000396000f3fe608060405234801561001057600080fd5b50600436106100b45760003560e01c806372425d9d1161007157806372425d9d1461013a57806386d516e814610140578063a8b0574e14610146578063bce38bd714610154578063c3077fa914610174578063ee82ac5e1461018757600080fd5b80630f28c97d146100b9578063252dba42146100ce57806327e86d6e146100ef578063399542e9146100f757806342cbb15c146101195780634d2301cc1461011f575b600080fd5b425b6040519081526020015b60405180910390f35b6100e16100dc366004610699565b610199565b6040516100c592919061080b565b6100bb610320565b61010a6101053660046106d5565b610333565b6040516100c593929190610875565b436100bb565b6100bb61012d366004610677565b6001600160a01b03163190565b446100bb565b456100bb565b6040514181526020016100c5565b6101676101623660046106d5565b61034b565b6040516100c591906107f8565b61010a610182366004610699565b610504565b6100bb610195366004610729565b4090565b805143906060906001600160401b038111156101b7576101b7610983565b6040519080825280602002602001820160405280156101ea57816020015b60608152602001906001900390816101d55790505b50905060005b835181101561031a5760008085838151811061020e5761020e61096d565b6020026020010151600001516001600160a01b03168684815181106102355761023561096d565b60200260200101516020015160405161024e91906107dc565b6000604051808303816000865af19150503d806000811461028b576040519150601f19603f3d011682016040523d82523d6000602084013e610290565b606091505b5091509150816102e75760405162461bcd60e51b815260206004820181905260248201527f4d756c746963616c6c206167677265676174653a2063616c6c206661696c656460448201526064015b60405180910390fd5b808484815181106102fa576102fa61096d565b6020026020010181905250505080806103129061093c565b9150506101f0565b50915091565b600061032d6001436108f5565b40905090565b4380406060610342858561034b565b90509250925092565b606081516001600160401b0381111561036657610366610983565b6040519080825280602002602001820160405280156103ac57816020015b6040805180820190915260008152606060208201528152602001906001900390816103845790505b50905060005b82518110156104fd576000808483815181106103d0576103d061096d565b6020026020010151600001516001600160a01b03168584815181106103f7576103f761096d565b60200260200101516020015160405161041091906107dc565b6000604051808303816000865af19150503d806000811461044d576040519150601f19603f3d011682016040523d82523d6000602084013e610452565b606091505b509150915085156104b457816104b45760405162461bcd60e51b815260206004820152602160248201527f4d756c746963616c6c32206167677265676174653a2063616c6c206661696c656044820152601960fa1b60648201526084016102de565b60405180604001604052808315158152602001828152508484815181106104dd576104dd61096d565b6020026020010181905250505080806104f59061093c565b9150506103b2565b5092915050565b6000806060610514600185610333565b9196909550909350915050565b80356001600160a01b038116811461053857600080fd5b919050565b600082601f83011261054e57600080fd5b813560206001600160401b038083111561056a5761056a610983565b8260051b6105798382016108c5565b8481528381019087850183890186018a101561059457600080fd5b600093505b8684101561066a578035858111156105b057600080fd5b89016040601f19828d0381018213156105c857600080fd5b6105d061089d565b6105db8a8501610521565b815282840135898111156105ee57600080fd5b8085019450508d603f85011261060357600080fd5b898401358981111561061757610617610983565b6106278b84601f840116016108c5565b92508083528e8482870101111561063d57600080fd5b808486018c85013760009083018b0152808a01919091528552505060019390930192918501918501610599565b5098975050505050505050565b60006020828403121561068957600080fd5b61069282610521565b9392505050565b6000602082840312156106ab57600080fd5b81356001600160401b038111156106c157600080fd5b6106cd8482850161053d565b949350505050565b600080604083850312156106e857600080fd5b823580151581146106f857600080fd5b915060208301356001600160401b0381111561071357600080fd5b61071f8582860161053d565b9150509250929050565b60006020828403121561073b57600080fd5b5035919050565b600082825180855260208086019550808260051b84010181860160005b848110156107a357858303601f190189528151805115158452840151604085850181905261078f818601836107b0565b9a86019a945050509083019060010161075f565b5090979650505050505050565b600081518084526107c881602086016020860161090c565b601f01601f19169290920160200192915050565b600082516107ee81846020870161090c565b9190910192915050565b6020815260006106926020830184610742565b600060408201848352602060408185015281855180845260608601915060608160051b870101935082870160005b8281101561086757605f198887030184526108558683516107b0565b95509284019290840190600101610839565b509398975050505050505050565b8381528260208201526060604082015260006108946060830184610742565b95945050505050565b604080519081016001600160401b03811182821017156108bf576108bf610983565b60405290565b604051601f8201601f191681016001600160401b03811182821017156108ed576108ed610983565b604052919050565b60008282101561090757610907610957565b500390565b60005b8381101561092757818101518382015260200161090f565b83811115610936576000848401525b50505050565b600060001982141561095057610950610957565b5060010190565b634e487b7160e01b600052601160045260246000fd5b634e487b7160e01b600052603260045260246000fd5b634e487b7160e01b600052604160045260246000fdfea2646970667358221220f9edd9af9c102e74f48834412b3b3ff219db58eac25d9f60dea9df4c947a977364736f6c63430008070033",
          "opcodes": "PUSH1 0x80 PUSH1 0x40 MSTORE CALLVALUE DUP1 ISZERO PUSH2 0x10 JUMPI PUSH1 0x0 DUP1 REVERT JUMPDEST POP PUSH2 0x9CF DUP1 PUSH2 0x20 PUSH1 0x0 CODECOPY PUSH1 0x0 RETURN INVALID PUSH1 0x80 PUSH1 0x40 MSTORE CALLVALUE DUP1 ISZERO PUSH2 0x10 JUMPI PUSH1 0x0 DUP1 REVERT JUMPDEST POP PUSH1 0x4 CALLDATASIZE LT PUSH2 0xB4 JUMPI PUSH1 0x0 CALLDATALOAD PUSH1 0xE0 SHR DUP1 PUSH4 0x72425D9D GT PUSH2 0x71 JUMPI DUP1 PUSH4 0x72425D9D EQ PUSH2 0x13A JUMPI DUP1 PUSH4 0x86D516E8 EQ PUSH2 0x140 JUMPI DUP1 PUSH4 0xA8B0574E EQ PUSH2 0x146 JUMPI DUP1 PUSH4 0xBCE38BD7 EQ PUSH2 0x154 JUMPI DUP1 PUSH4 0xC3077FA9 EQ PUSH2 0x174 JUMPI DUP1 PUSH4 0xEE82AC5E EQ PUSH2 0x187 JUMPI PUSH1 0x0 DUP1 REVERT JUMPDEST DUP1 PUSH4 0xF28C97D EQ PUSH2 0xB9 JUMPI DUP1 PUSH4 0x252DBA42 EQ PUSH2 0xCE JUMPI DUP1 PUSH4 0x27E86D6E EQ PUSH2 0xEF JUMPI DUP1 PUSH4 0x399542E9 EQ PUSH2 0xF7 JUMPI DUP1 PUSH4 0x42CBB15C EQ PUSH2 0x119 JUMPI DUP1 PUSH4 0x4D2301CC EQ PUSH2 0x11F JUMPI JUMPDEST PUSH1 0x0 DUP1 REVERT JUMPDEST TIMESTAMP JUMPDEST PUSH1 0x40 MLOAD SWAP1 DUP2 MSTORE PUSH1 0x20 ADD JUMPDEST PUSH1 0x40 MLOAD DUP1 SWAP2 SUB SWAP1 RETURN JUMPDEST PUSH2 0xE1 PUSH2 0xDC CALLDATASIZE PUSH1 0x4 PUSH2 0x699 JUMP JUMPDEST PUSH2 0x199 JUMP JUMPDEST PUSH1 0x40 MLOAD PUSH2 0xC5 SWAP3 SWAP2 SWAP1 PUSH2 0x80B JUMP JUMPDEST PUSH2 0xBB PUSH2 0x320 JUMP JUMPDEST PUSH2 0x10A PUSH2 0x105 CALLDATASIZE PUSH1 0x4 PUSH2 0x6D5 JUMP JUMPDEST PUSH2 0x333 JUMP JUMPDEST PUSH1 0x40 MLOAD PUSH2 0xC5 SWAP4 SWAP3 SWAP2 SWAP1 PUSH2 0x875 JUMP JUMPDEST NUMBER PUSH2 0xBB JUMP JUMPDEST PUSH2 0xBB PUSH2 0x12D CALLDATASIZE PUSH1 0x4 PUSH2 0x677 JUMP JUMPDEST PUSH1 0x1 PUSH1 0x1 PUSH1 0xA0 SHL SUB AND BALANCE SWAP1 JUMP JUMPDEST DIFFICULTY PUSH2 0xBB JUMP JUMPDEST GASLIMIT PUSH2 0xBB JUMP JUMPDEST PUSH1 0x40 MLOAD COINBASE DUP2 MSTORE PUSH1 0x20 ADD PUSH2 0xC5 JUMP JUMPDEST PUSH2 0x167 PUSH2 0x162 CALLDATASIZE PUSH1 0x4 PUSH2 0x6D5 JUMP JUMPDEST PUSH2 0x34B JUMP JUMPDEST PUSH1 0x40 MLOAD PUSH2 0xC5 SWAP2 SWAP1 PUSH2 0x7F8 JUMP JUMPDEST PUSH2 0x10A PUSH2 0x182 CALLDATASIZE PUSH1 0x4 PUSH2 0x699 JUMP JUMPDEST PUSH2 0x504 JUMP JUMPDEST PUSH2 0xBB PUSH2 0x195 CALLDATASIZE PUSH1 0x4 PUSH2 0x729 JUMP JUMPDEST BLOCKHASH SWAP1 JUMP JUMPDEST DUP1 MLOAD NUMBER SWAP1 PUSH1 0x60 SWAP1 PUSH1 0x1 PUSH1 0x1 PUSH1 0x40 SHL SUB DUP2 GT ISZERO PUSH2 0x1B7 JUMPI PUSH2 0x1B7 PUSH2 0x983 JUMP JUMPDEST PUSH1 0x40 MLOAD SWAP1 DUP1 DUP3 MSTORE DUP1 PUSH1 0x20 MUL PUSH1 0x20 ADD DUP3 ADD PUSH1 0x40 MSTORE DUP1 ISZERO PUSH2 0x1EA JUMPI DUP2 PUSH1 0x20 ADD JUMPDEST PUSH1 0x60 DUP2 MSTORE PUSH1 0x20 ADD SWAP1 PUSH1 0x1 SWAP1 SUB SWAP1 DUP2 PUSH2 0x1D5 JUMPI SWAP1 POP JUMPDEST POP SWAP1 POP PUSH1 0x0 JUMPDEST DUP4 MLOAD DUP2 LT ISZERO PUSH2 0x31A JUMPI PUSH1 0x0 DUP1 DUP6 DUP4 DUP2 MLOAD DUP2 LT PUSH2 0x20E JUMPI PUSH2 0x20E PUSH2 0x96D JUMP JUMPDEST PUSH1 0x20 MUL PUSH1 0x20 ADD ADD MLOAD PUSH1 0x0 ADD MLOAD PUSH1 0x1 PUSH1 0x1 PUSH1 0xA0 SHL SUB AND DUP7 DUP5 DUP2 MLOAD DUP2 LT PUSH2 0x235 JUMPI PUSH2 0x235 PUSH2 0x96D JUMP JUMPDEST PUSH1 0x20 MUL PUSH1 0x20 ADD ADD MLOAD PUSH1 0x20 ADD MLOAD PUSH1 0x40 MLOAD PUSH2 0x24E SWAP2 SWAP1 PUSH2 0x7DC JUMP JUMPDEST PUSH1 0x0 PUSH1 0x40 MLOAD DUP1 DUP4 SUB DUP2 PUSH1 0x0 DUP7 GAS CALL SWAP2 POP POP RETURNDATASIZE DUP1 PUSH1 0x0 DUP2 EQ PUSH2 0x28B JUMPI PUSH1 0x40 MLOAD SWAP2 POP PUSH1 0x1F NOT PUSH1 0x3F RETURNDATASIZE ADD AND DUP3 ADD PUSH1 0x40 MSTORE RETURNDATASIZE DUP3 MSTORE RETURNDATASIZE PUSH1 0x0 PUSH1 0x20 DUP5 ADD RETURNDATACOPY PUSH2 0x290 JUMP JUMPDEST PUSH1 0x60 SWAP2 POP JUMPDEST POP SWAP2 POP SWAP2 POP DUP2 PUSH2 0x2E7 JUMPI PUSH1 0x40 MLOAD PUSH3 0x461BCD PUSH1 0xE5 SHL DUP2 MSTORE PUSH1 0x20 PUSH1 0x4 DUP3 ADD DUP2 SWAP1 MSTORE PUSH1 0x24 DUP3 ADD MSTORE PUSH32 0x4D756C746963616C6C206167677265676174653A2063616C6C206661696C6564 PUSH1 0x44 DUP3 ADD MSTORE PUSH1 0x64 ADD JUMPDEST PUSH1 0x40 MLOAD DUP1 SWAP2 SUB SWAP1 REVERT JUMPDEST DUP1 DUP5 DUP5 DUP2 MLOAD DUP2 LT PUSH2 0x2FA JUMPI PUSH2 0x2FA PUSH2 0x96D JUMP JUMPDEST PUSH1 0x20 MUL PUSH1 0x20 ADD ADD DUP2 SWAP1 MSTORE POP POP POP DUP1 DUP1 PUSH2 0x312 SWAP1 PUSH2 0x93C JUMP JUMPDEST SWAP2 POP POP PUSH2 0x1F0 JUMP JUMPDEST POP SWAP2 POP SWAP2 JUMP JUMPDEST PUSH1 0x0 PUSH2 0x32D PUSH1 0x1 NUMBER PUSH2 0x8F5 JUMP JUMPDEST BLOCKHASH SWAP1 POP SWAP1 JUMP JUMPDEST NUMBER DUP1 BLOCKHASH PUSH1 0x60 PUSH2 0x342 DUP6 DUP6 PUSH2 0x34B JUMP JUMPDEST SWAP1 POP SWAP3 POP SWAP3 POP SWAP3 JUMP JUMPDEST PUSH1 0x60 DUP2 MLOAD PUSH1 0x1 PUSH1 0x1 PUSH1 0x40 SHL SUB DUP2 GT ISZERO PUSH2 0x366 JUMPI PUSH2 0x366 PUSH2 0x983 JUMP JUMPDEST PUSH1 0x40 MLOAD SWAP1 DUP1 DUP3 MSTORE DUP1 PUSH1 0x20 MUL PUSH1 0x20 ADD DUP3 ADD PUSH1 0x40 MSTORE DUP1 ISZERO PUSH2 0x3AC JUMPI DUP2 PUSH1 0x20 ADD JUMPDEST PUSH1 0x40 DUP1 MLOAD DUP1 DUP3 ADD SWAP1 SWAP2 MSTORE PUSH1 0x0 DUP2 MSTORE PUSH1 0x60 PUSH1 0x20 DUP3 ADD MSTORE DUP2 MSTORE PUSH1 0x20 ADD SWAP1 PUSH1 0x1 SWAP1 SUB SWAP1 DUP2 PUSH2 0x384 JUMPI SWAP1 POP JUMPDEST POP SWAP1 POP PUSH1 0x0 JUMPDEST DUP3 MLOAD DUP2 LT ISZERO PUSH2 0x4FD JUMPI PUSH1 0x0 DUP1 DUP5 DUP4 DUP2 MLOAD DUP2 LT PUSH2 0x3D0 JUMPI PUSH2 0x3D0 PUSH2 0x96D JUMP JUMPDEST PUSH1 0x20 MUL PUSH1 0x20 ADD ADD MLOAD PUSH1 0x0 ADD MLOAD PUSH1 0x1 PUSH1 0x1 PUSH1 0xA0 SHL SUB AND DUP6 DUP5 DUP2 MLOAD DUP2 LT PUSH2 0x3F7 JUMPI PUSH2 0x3F7 PUSH2 0x96D JUMP JUMPDEST PUSH1 0x20 MUL PUSH1 0x20 ADD ADD MLOAD PUSH1 0x20 ADD MLOAD PUSH1 0x40 MLOAD PUSH2 0x410 SWAP2 SWAP1 PUSH2 0x7DC JUMP JUMPDEST PUSH1 0x0 PUSH1 0x40 MLOAD DUP1 DUP4 SUB DUP2 PUSH1 0x0 DUP7 GAS CALL SWAP2 POP POP RETURNDATASIZE DUP1 PUSH1 0x0 DUP2 EQ PUSH2 0x44D JUMPI PUSH1 0x40 MLOAD SWAP2 POP PUSH1 0x1F NOT PUSH1 0x3F RETURNDATASIZE ADD AND DUP3 ADD PUSH1 0x40 MSTORE RETURNDATASIZE DUP3 MSTORE RETURNDATASIZE PUSH1 0x0 PUSH1 0x20 DUP5 ADD RETURNDATACOPY PUSH2 0x452 JUMP JUMPDEST PUSH1 0x60 SWAP2 POP JUMPDEST POP SWAP2 POP SWAP2 POP DUP6 ISZERO PUSH2 0x4B4 JUMPI DUP2 PUSH2 0x4B4 JUMPI PUSH1 0x40 MLOAD PUSH3 0x461BCD PUSH1 0xE5 SHL DUP2 MSTORE PUSH1 0x20 PUSH1 0x4 DUP3 ADD MSTORE PUSH1 0x21 PUSH1 0x24 DUP3 ADD MSTORE PUSH32 0x4D756C746963616C6C32206167677265676174653A2063616C6C206661696C65 PUSH1 0x44 DUP3 ADD MSTORE PUSH1 0x19 PUSH1 0xFA SHL PUSH1 0x64 DUP3 ADD MSTORE PUSH1 0x84 ADD PUSH2 0x2DE JUMP JUMPDEST PUSH1 0x40 MLOAD DUP1 PUSH1 0x40 ADD PUSH1 0x40 MSTORE DUP1 DUP4 ISZERO ISZERO DUP2 MSTORE PUSH1 0x20 ADD DUP3 DUP2 MSTORE POP DUP5 DUP5 DUP2 MLOAD DUP2 LT PUSH2 0x4DD JUMPI PUSH2 0x4DD PUSH2 0x96D JUMP JUMPDEST PUSH1 0x20 MUL PUSH1 0x20 ADD ADD DUP2 SWAP1 MSTORE POP POP POP DUP1 DUP1 PUSH2 0x4F5 SWAP1 PUSH2 0x93C JUMP JUMPDEST SWAP2 POP POP PUSH2 0x3B2 JUMP JUMPDEST POP SWAP3 SWAP2 POP POP JUMP JUMPDEST PUSH1 0x0 DUP1 PUSH1 0x60 PUSH2 0x514 PUSH1 0x1 DUP6 PUSH2 0x333 JUMP JUMPDEST SWAP2 SWAP7 SWAP1 SWAP6 POP SWAP1 SWAP4 POP SWAP2 POP POP JUMP JUMPDEST DUP1 CALLDATALOAD PUSH1 0x1 PUSH1 0x1 PUSH1 0xA0 SHL SUB DUP2 AND DUP2 EQ PUSH2 0x538 JUMPI PUSH1 0x0 DUP1 REVERT JUMPDEST SWAP2 SWAP1 POP JUMP JUMPDEST PUSH1 0x0 DUP3 PUSH1 0x1F DUP4 ADD SLT PUSH2 0x54E JUMPI PUSH1 0x0 DUP1 REVERT JUMPDEST DUP2 CALLDATALOAD PUSH1 0x20 PUSH1 0x1 PUSH1 0x1 PUSH1 0x40 SHL SUB DUP1 DUP4 GT ISZERO PUSH2 0x56A JUMPI PUSH2 0x56A PUSH2 0x983 JUMP JUMPDEST DUP3 PUSH1 0x5 SHL PUSH2 0x579 DUP4 DUP3 ADD PUSH2 0x8C5 JUMP JUMPDEST DUP5 DUP2 MSTORE DUP4 DUP2 ADD SWAP1 DUP8 DUP6 ADD DUP4 DUP10 ADD DUP7 ADD DUP11 LT ISZERO PUSH2 0x594 JUMPI PUSH1 0x0 DUP1 REVERT JUMPDEST PUSH1 0x0 SWAP4 POP JUMPDEST DUP7 DUP5 LT ISZERO PUSH2 0x66A JUMPI DUP1 CALLDATALOAD DUP6 DUP2 GT ISZERO PUSH2 0x5B0 JUMPI PUSH1 0x0 DUP1 REVERT JUMPDEST DUP10 ADD PUSH1 0x40 PUSH1 0x1F NOT DUP3 DUP14 SUB DUP2 ADD DUP3 SGT ISZERO PUSH2 0x5C8 JUMPI PUSH1 0x0 DUP1 REVERT JUMPDEST PUSH2 0x5D0 PUSH2 0x89D JUMP JUMPDEST PUSH2 0x5DB DUP11 DUP6 ADD PUSH2 0x521 JUMP JUMPDEST DUP2 MSTORE DUP3 DUP5 ADD CALLDATALOAD DUP10 DUP2 GT ISZERO PUSH2 0x5EE JUMPI PUSH1 0x0 DUP1 REVERT JUMPDEST DUP1 DUP6 ADD SWAP5 POP POP DUP14 PUSH1 0x3F DUP6 ADD SLT PUSH2 0x603 JUMPI PUSH1 0x0 DUP1 REVERT JUMPDEST DUP10 DUP5 ADD CALLDATALOAD DUP10 DUP2 GT ISZERO PUSH2 0x617 JUMPI PUSH2 0x617 PUSH2 0x983 JUMP JUMPDEST PUSH2 0x627 DUP12 DUP5 PUSH1 0x1F DUP5 ADD AND ADD PUSH2 0x8C5 JUMP JUMPDEST SWAP3 POP DUP1 DUP4 MSTORE DUP15 DUP5 DUP3 DUP8 ADD ADD GT ISZERO PUSH2 0x63D JUMPI PUSH1 0x0 DUP1 REVERT JUMPDEST DUP1 DUP5 DUP7 ADD DUP13 DUP6 ADD CALLDATACOPY PUSH1 0x0 SWAP1 DUP4 ADD DUP12 ADD MSTORE DUP1 DUP11 ADD SWAP2 SWAP1 SWAP2 MSTORE DUP6 MSTORE POP POP PUSH1 0x1 SWAP4 SWAP1 SWAP4 ADD SWAP3 SWAP2 DUP6 ADD SWAP2 DUP6 ADD PUSH2 0x599 JUMP JUMPDEST POP SWAP9 SWAP8 POP POP POP POP POP POP POP POP JUMP JUMPDEST PUSH1 0x0 PUSH1 0x20 DUP3 DUP5 SUB SLT ISZERO PUSH2 0x689 JUMPI PUSH1 0x0 DUP1 REVERT JUMPDEST PUSH2 0x692 DUP3 PUSH2 0x521 JUMP JUMPDEST SWAP4 SWAP3 POP POP POP JUMP JUMPDEST PUSH1 0x0 PUSH1 0x20 DUP3 DUP5 SUB SLT ISZERO PUSH2 0x6AB JUMPI PUSH1 0x0 DUP1 REVERT JUMPDEST DUP2 CALLDATALOAD PUSH1 0x1 PUSH1 0x1 PUSH1 0x40 SHL SUB DUP2 GT ISZERO PUSH2 0x6C1 JUMPI PUSH1 0x0 DUP1 REVERT JUMPDEST PUSH2 0x6CD DUP5 DUP3 DUP6 ADD PUSH2 0x53D JUMP JUMPDEST SWAP5 SWAP4 POP POP POP POP JUMP JUMPDEST PUSH1 0x0 DUP1 PUSH1 0x40 DUP4 DUP6 SUB SLT ISZERO PUSH2 0x6E8 JUMPI PUSH1 0x0 DUP1 REVERT JUMPDEST DUP3 CALLDATALOAD DUP1 ISZERO ISZERO DUP2 EQ PUSH2 0x6F8 JUMPI PUSH1 0x0 DUP1 REVERT JUMPDEST SWAP2 POP PUSH1 0x20 DUP4 ADD CALLDATALOAD PUSH1 0x1 PUSH1 0x1 PUSH1 0x40 SHL SUB DUP2 GT ISZERO PUSH2 0x713 JUMPI PUSH1 0x0 DUP1 REVERT JUMPDEST PUSH2 0x71F DUP6 DUP3 DUP7 ADD PUSH2 0x53D JUMP JUMPDEST SWAP2 POP POP SWAP3 POP SWAP3 SWAP1 POP JUMP JUMPDEST PUSH1 0x0 PUSH1 0x20 DUP3 DUP5 SUB SLT ISZERO PUSH2 0x73B JUMPI PUSH1 0x0 DUP1 REVERT JUMPDEST POP CALLDATALOAD SWAP2 SWAP1 POP JUMP JUMPDEST PUSH1 0x0 DUP3 DUP3 MLOAD DUP1 DUP6 MSTORE PUSH1 0x20 DUP1 DUP7 ADD SWAP6 POP DUP1 DUP3 PUSH1 0x5 SHL DUP5 ADD ADD DUP2 DUP7 ADD PUSH1 0x0 JUMPDEST DUP5 DUP2 LT ISZERO PUSH2 0x7A3 JUMPI DUP6 DUP4 SUB PUSH1 0x1F NOT ADD DUP10 MSTORE DUP2 MLOAD DUP1 MLOAD ISZERO ISZERO DUP5 MSTORE DUP5 ADD MLOAD PUSH1 0x40 DUP6 DUP6 ADD DUP2 SWAP1 MSTORE PUSH2 0x78F DUP2 DUP7 ADD DUP4 PUSH2 0x7B0 JUMP JUMPDEST SWAP11 DUP7 ADD SWAP11 SWAP5 POP POP POP SWAP1 DUP4 ADD SWAP1 PUSH1 0x1 ADD PUSH2 0x75F JUMP JUMPDEST POP SWAP1 SWAP8 SWAP7 POP POP POP POP POP POP POP JUMP JUMPDEST PUSH1 0x0 DUP2 MLOAD DUP1 DUP5 MSTORE PUSH2 0x7C8 DUP2 PUSH1 0x20 DUP7 ADD PUSH1 0x20 DUP7 ADD PUSH2 0x90C JUMP JUMPDEST PUSH1 0x1F ADD PUSH1 0x1F NOT AND SWAP3 SWAP1 SWAP3 ADD PUSH1 0x20 ADD SWAP3 SWAP2 POP POP JUMP JUMPDEST PUSH1 0x0 DUP3 MLOAD PUSH2 0x7EE DUP2 DUP5 PUSH1 0x20 DUP8 ADD PUSH2 0x90C JUMP JUMPDEST SWAP2 SWAP1 SWAP2 ADD SWAP3 SWAP2 POP POP JUMP JUMPDEST PUSH1 0x20 DUP2 MSTORE PUSH1 0x0 PUSH2 0x692 PUSH1 0x20 DUP4 ADD DUP5 PUSH2 0x742 JUMP JUMPDEST PUSH1 0x0 PUSH1 0x40 DUP3 ADD DUP5 DUP4 MSTORE PUSH1 0x20 PUSH1 0x40 DUP2 DUP6 ADD MSTORE DUP2 DUP6 MLOAD DUP1 DUP5 MSTORE PUSH1 0x60 DUP7 ADD SWAP2 POP PUSH1 0x60 DUP2 PUSH1 0x5 SHL DUP8 ADD ADD SWAP4 POP DUP3 DUP8 ADD PUSH1 0x0 JUMPDEST DUP3 DUP2 LT ISZERO PUSH2 0x867 JUMPI PUSH1 0x5F NOT DUP9 DUP8 SUB ADD DUP5 MSTORE PUSH2 0x855 DUP7 DUP4 MLOAD PUSH2 0x7B0 JUMP JUMPDEST SWAP6 POP SWAP3 DUP5 ADD SWAP3 SWAP1 DUP5 ADD SWAP1 PUSH1 0x1 ADD PUSH2 0x839 JUMP JUMPDEST POP SWAP4 SWAP9 SWAP8 POP POP POP POP POP POP POP POP JUMP JUMPDEST DUP4 DUP2 MSTORE DUP3 PUSH1 0x20 DUP3 ADD MSTORE PUSH1 0x60 PUSH1 0x40 DUP3 ADD MSTORE PUSH1 0x0 PUSH2 0x894 PUSH1 0x60 DUP4 ADD DUP5 PUSH2 0x742 JUMP JUMPDEST SWAP6 SWAP5 POP POP POP POP POP JUMP JUMPDEST PUSH1 0x40 DUP1 MLOAD SWAP1 DUP2 ADD PUSH1 0x1 PUSH1 0x1 PUSH1 0x40 SHL SUB DUP2 GT DUP3 DUP3 LT OR ISZERO PUSH2 0x8BF JUMPI PUSH2 0x8BF PUSH2 0x983 JUMP JUMPDEST PUSH1 0x40 MSTORE SWAP1 JUMP JUMPDEST PUSH1 0x40 MLOAD PUSH1 0x1F DUP3 ADD PUSH1 0x1F NOT AND DUP2 ADD PUSH1 0x1 PUSH1 0x1 PUSH1 0x40 SHL SUB DUP2 GT DUP3 DUP3 LT OR ISZERO PUSH2 0x8ED JUMPI PUSH2 0x8ED PUSH2 0x983 JUMP JUMPDEST PUSH1 0x40 MSTORE SWAP2 SWAP1 POP JUMP JUMPDEST PUSH1 0x0 DUP3 DUP3 LT ISZERO PUSH2 0x907 JUMPI PUSH2 0x907 PUSH2 0x957 JUMP JUMPDEST POP SUB SWAP1 JUMP JUMPDEST PUSH1 0x0 JUMPDEST DUP4 DUP2 LT ISZERO PUSH2 0x927 JUMPI DUP2 DUP2 ADD MLOAD DUP4 DUP3 ADD MSTORE PUSH1 0x20 ADD PUSH2 0x90F JUMP JUMPDEST DUP4 DUP2 GT ISZERO PUSH2 0x936 JUMPI PUSH1 0x0 DUP5 DUP5 ADD MSTORE JUMPDEST POP POP POP POP JUMP JUMPDEST PUSH1 0x0 PUSH1 0x0 NOT DUP3 EQ ISZERO PUSH2 0x950 JUMPI PUSH2 0x950 PUSH2 0x957 JUMP JUMPDEST POP PUSH1 0x1 ADD SWAP1 JUMP JUMPDEST PUSH4 0x4E487B71 PUSH1 0xE0 SHL PUSH1 0x0 MSTORE PUSH1 0x11 PUSH1 0x4 MSTORE PUSH1 0x24 PUSH1 0x0 REVERT JUMPDEST PUSH4 0x4E487B71 PUSH1 0xE0 SHL PUSH1 0x0 MSTORE PUSH1 0x32 PUSH1 0x4 MSTORE PUSH1 0x24 PUSH1 0x0 REVERT JUMPDEST PUSH4 0x4E487B71 PUSH1 0xE0 SHL PUSH1 0x0 MSTORE PUSH1 0x41 PUSH1 0x4 MSTORE PUSH1 0x24 PUSH1 0x0 REVERT INVALID LOG2 PUSH5 0x6970667358 0x22 SLT KECCAK256 0xF9 0xED 0xD9 0xAF SWAP13 LT 0x2E PUSH21 0xF48834412B3B3FF219DB58EAC25D9F60DEA9DF4C94 PUSH27 0x977364736F6C634300080700330000000000000000000000000000 "
        },
        "methodIdentifiers": {
          "aggregate((address,bytes)[])": "252dba42",
          "blockAndAggregate((address,bytes)[])": "c3077fa9",
          "getBlockHash(uint256)": "ee82ac5e",
          "getBlockNumber()": "42cbb15c",
          "getCurrentBlockCoinbase()": "a8b0574e",
          "getCurrentBlockDifficulty()": "72425d9d",
          "getCurrentBlockGasLimit()": "86d516e8",
          "getCurrentBlockTimestamp()": "0f28c97d",
          "getEthBalance(address)": "4d2301cc",
          "getLastBlockHash()": "27e86d6e",
          "tryAggregate(bool,(address,bytes)[])": "bce38bd7",
          "tryBlockAndAggregate(bool,(address,bytes)[])": "399542e9"
        }
      }
    }
  }
}