{
  "_format": "hh-sol-artifact-1",
  "contractName": "Cloneable",
  "sourceName": "arb-bridge-eth/contracts/libraries/Cloneable.sol",
  "abi": [
    {
      "inputs": [],
      "stateMutability": "nonpayable",
      "type": "constructor"
    },
    {
      "inputs": [],
      "name": "isMaster",
      "outputs": [
        {
          "internalType": "bool",
          "name": "",
          "type": "bool"
        }
      ],
      "stateMutability": "view",
      "type": "function"
    }
  ],
  "bytecode": "0x6080604052348015600f57600080fd5b506000805460ff1916600117905560868061002b6000396000f3fe6080604052348015600f57600080fd5b506004361060285760003560e01c80636f791d2914602d575b600080fd5b60336047565b604080519115158252519081900360200190f35b60005460ff169056fea26469706673582212209c4423140c1c6cef987783aaf0cc62c2e9e3adbb4ceaa2f73a18a5ed247b9bd164736f6c634300060b0033",
  "linkReferences": {},
  "deployedLinkReferences": {}
}