{
  "src/osp/HashProofHelper.sol": {
    "HashProofHelper": {
      "abi": [
        {
          "inputs": [
            {
              "internalType": "bytes32",
              "name": "fullHash",
              "type": "bytes32"
            },
            {
              "internalType": "uint64",
              "name": "offset",
              "type": "uint64"
            }
          ],
          "name": "NotProven",
          "type": "error"
        },
        {
          "anonymous": false,
          "inputs": [
            {
              "indexed": true,
              "internalType": "bytes32",
              "name": "fullHash",
              "type": "bytes32"
            },
            {
              "indexed": true,
              "internalType": "uint64",
              "name": "offset",
              "type": "uint64"
            },
            {
              "indexed": false,
              "internalType": "bytes",
              "name": "part",
              "type": "bytes"
            }
          ],
          "name": "PreimagePartProven",
          "type": "event"
        },
        {
          "inputs": [],
          "name": "clearSplitProof",
          "outputs": [],
          "stateMutability": "nonpayable",
          "type": "function"
        },
        {
          "inputs": [
            {
              "internalType": "bytes32",
              "name": "fullHash",
              "type": "bytes32"
            },
            {
              "internalType": "uint64",
              "name": "offset",
              "type": "uint64"
            }
          ],
          "name": "getPreimagePart",
          "outputs": [
            {
              "internalType": "bytes",
              "name": "",
              "type": "bytes"
            }
          ],
          "stateMutability": "view",
          "type": "function"
        },
        {
          "inputs": [
            {
              "internalType": "address",
              "name": "",
              "type": "address"
            }
          ],
          "name": "keccakStates",
          "outputs": [
            {
              "internalType": "uint64",
              "name": "offset",
              "type": "uint64"
            },
            {
              "internalType": "bytes",
              "name": "part",
              "type": "bytes"
            },
            {
              "internalType": "uint256",
              "name": "length",
              "type": "uint256"
            }
          ],
          "stateMutability": "view",
          "type": "function"
        },
        {
          "inputs": [
            {
              "internalType": "bytes",
              "name": "data",
              "type": "bytes"
            },
            {
              "internalType": "uint64",
              "name": "offset",
              "type": "uint64"
            }
          ],
          "name": "proveWithFullPreimage",
          "outputs": [
            {
              "internalType": "bytes32",
              "name": "fullHash",
              "type": "bytes32"
            }
          ],
          "stateMutability": "nonpayable",
          "type": "function"
        },
        {
          "inputs": [
            {
              "internalType": "bytes",
              "name": "data",
              "type": "bytes"
            },
            {
              "internalType": "uint64",
              "name": "offset",
              "type": "uint64"
            },
            {
              "internalType": "uint256",
              "name": "flags",
              "type": "uint256"
            }
          ],
          "name": "proveWithSplitPreimage",
          "outputs": [
            {
              "internalType": "bytes32",
              "name": "fullHash",
              "type": "bytes32"
            }
          ],
          "stateMutability": "nonpayable",
          "type": "function"
        }
      ],
      "evm": {
        "bytecode": {
          "linkReferences": {},
          "object": "608060405234801561001057600080fd5b50611cea806100206000396000f3fe608060405234801561001057600080fd5b50600436106100575760003560e01c8063740085d71461005c57806379754cba14610085578063ae364ac2146100a6578063b7465799146100b0578063d4e5dd2b146100d2575b600080fd5b61006f61006a3660046118e0565b6100e5565b60405161007c9190611959565b60405180910390f35b6100986100933660046119bb565b6101d8565b60405190815260200161007c565b6100ae6106cb565b005b6100c36100be366004611a16565b610713565b60405161007c93929190611a3f565b6100986100e0366004611a71565b6107c9565b6000828152602081815260408083206001600160401b0385168452909152902080546060919060ff16610142576040516309cb23c960e11b8152600481018590526001600160401b03841660248201526044015b60405180910390fd5b80600101805461015190611ac4565b80601f016020809104026020016040519081016040528092919081815260200182805461017d90611ac4565b80156101ca5780601f1061019f576101008083540402835291602001916101ca565b820191906000526020600020905b8154815290600101906020018083116101ad57829003601f168201915b505050505091505092915050565b60006001821615156002831615610230573360009081526001602081905260408220805467ffffffffffffffff191681559190610217908301826117a2565b6102256002830160006117df565b600982016000905550505b80806102445750610242608886611b15565b155b6102845760405162461bcd60e51b81526020600482015260116024820152701393d517d09313d0d2d7d0531251d39151607a1b6044820152606401610139565b3360009081526001602052604090206009810154806102bc57815467ffffffffffffffff19166001600160401b038716178255610306565b81546001600160401b038781169116146103065760405162461bcd60e51b815260206004820152600b60248201526a1112519197d3d19194d15560aa1b6044820152606401610139565b61031282898986610920565b8061032760206001600160401b038916611b3f565b11801561034057508160090154866001600160401b0316105b1561045a57600081876001600160401b0316111561036e5761036b826001600160401b038916611b57565b90505b60008261038560206001600160401b038b16611b3f565b61038f9190611b57565b90508881111561039c5750875b815b8181101561045657846001018b8b838181106103bc576103bc611b6e565b9050013560f81c60f81b90808054806103d490611ac4565b80601f81146103e2576103f8565b83600052602060002060ff1984168155603f9350505b506002919091019091558154600116156104215790600052602060002090602091828204019190065b909190919091601f036101000a81548160ff02191690600160f81b84040217905550808061044e90611b84565b91505061039e565b5050505b8261046c5750600092506106c3915050565b60005b602081101561053c576000610485600883611b9f565b9050610492600582611b9f565b61049d600583611b15565b6104a8906005611bb3565b6104b29190611b3f565b905060006104c1600884611b15565b6104cc906008611bb3565b8560020183601981106104e1576104e1611b6e565b60048104909101546001600160401b036008600390931683026101000a9091041690911c9150610512908490611bb3565b61051d9060f8611b57565b60ff909116901b9590951794508061053481611b84565b91505061046f565b50604051806040016040528060011515815260200183600101805461056090611ac4565b80601f016020809104026020016040519081016040528092919081815260200182805461058c90611ac4565b80156105d95780601f106105ae576101008083540402835291602001916105d9565b820191906000526020600020905b8154815290600101906020018083116105bc57829003601f168201915b50505091909252505060008581526020818152604080832086546001600160401b0316845282529091208251815460ff1916901515178155828201518051919261062b926001850192909101906117ee565b505082546040516001600160401b03909116915085907ff88493e8ac6179d3c1ba8712068367d7ecdd6f30d3b5de01198e7a449fe2802c90610671906001870190611bd2565b60405180910390a33360009081526001602081905260408220805467ffffffffffffffff1916815591906106a7908301826117a2565b6106b56002830160006117df565b600982016000905550505050505b949350505050565b3360009081526001602081905260408220805467ffffffffffffffff1916815591906106f9908301826117a2565b6107076002830160006117df565b60098201600090555050565b6001602081905260009182526040909120805491810180546001600160401b039093169261074090611ac4565b80601f016020809104026020016040519081016040528092919081815260200182805461076c90611ac4565b80156107b95780601f1061078e576101008083540402835291602001916107b9565b820191906000526020600020905b81548152906001019060200180831161079c57829003601f168201915b5050505050908060090154905083565b600083836040516107db929190611c7a565b604051908190039020905060606001600160401b03831684111561087957600061080e6001600160401b03851686611b57565b9050602081111561081d575060205b856001600160401b038516866108338483611b3f565b9261084093929190611c8a565b8080601f016020809104026020016040519081016040528093929190818152602001838380828437600092019190915250929450505050505b6040805180820182526001808252602080830185815260008781528083528581206001600160401b038a1682528352949094208351815460ff1916901515178155935180519394936108d29385019291909101906117ee565b50905050826001600160401b0316827ff88493e8ac6179d3c1ba8712068367d7ecdd6f30d3b5de01198e7a449fe2802c836040516109109190611959565b60405180910390a3509392505050565b828290508460090160008282546109379190611b3f565b90915550505b81158015610949575080155b1561095357610ba2565b60005b6088811015610a7a5760008382101561098c5784848381811061097b5761097b611b6e565b919091013560f81c91506109af9050565b81841415610998576001175b6109a460016088611b57565b8214156109af576080175b60006109bc600884611b9f565b90506109c9600582611b9f565b6109d4600583611b15565b6109df906005611bb3565b6109e99190611b3f565b90506109f6600884611b15565b610a01906008611bb3565b6001600160401b03168260ff166001600160401b0316901b876002018260198110610a2e57610a2e611b6e565b6004810490910180546001600160401b0360086003909416939093026101000a808204841690941883168402929093021990921617905550819050610a7281611b84565b915050610956565b50610a83611872565b60005b6019811015610af557856002018160198110610aa457610aa4611b6e565b600491828204019190066008029054906101000a90046001600160401b03166001600160401b0316828260198110610ade57610ade611b6e565b602002015280610aed81611b84565b915050610a86565b50610aff81610ba8565b905060005b6019811015610b7b57818160198110610b1f57610b1f611b6e565b6020020151866002018260198110610b3957610b39611b6e565b600491828204019190066008026101000a8154816001600160401b0302191690836001600160401b031602179055508080610b7390611b84565b915050610b04565b506088831015610b8b5750610ba2565b610b988360888187611c8a565b935093505061093d565b50505050565b610bb0611872565b610bb8611891565b610bc0611891565b610bc8611872565b600060405180610300016040528060018152602001618082815260200167800000000000808a8152602001678000000080008000815260200161808b81526020016380000001815260200167800000008000808181526020016780000000000080098152602001608a81526020016088815260200163800080098152602001638000000a8152602001638000808b815260200167800000000000008b8152602001678000000000008089815260200167800000000000800381526020016780000000000080028152602001678000000000000080815260200161800a815260200167800000008000000a81526020016780000000800080818152602001678000000000008080815260200163800000018152602001678000000080008008815250905060005b6018811015611797576080878101516060808a01516040808c01516020808e01518e511890911890921890931889526101208b01516101008c015160e08d015160c08e015160a08f0151181818189089018190526101c08b01516101a08c01516101808d01516101608e01516101408f0151181818189289019283526102608b01516102408c01516102208d01516102008e01516101e08f015118181818918901919091526103008a01516102e08b01516102c08c01516102a08d01516102808e0151181818189288018390526001600160401b0360028202166001603f1b91829004179092188652510485600260200201516002026001600160401b03161785600060200201511884600160200201526001603f1b856003602002015181610e1957610e19611aff565b0485600360200201516002026001600160401b03161785600160200201511884600260200201526001603f1b856004602002015181610e5a57610e5a611aff565b0485600460200201516002026001600160401b03161785600260058110610e8357610e83611b6e565b602002015118606085015284516001603f1b9086516060808901519390920460029091026001600160401b031617909118608086810191825286518a5118808b5287516020808d018051909218825289516040808f0180519092189091528a518e8801805190911890528a51948e0180519095189094528901805160a08e0180519091189052805160c08e0180519091189052805160e08e018051909118905280516101008e0180519091189052516101208d018051909118905291880180516101408d018051909118905280516101608d018051909118905280516101808d018051909118905280516101a08d0180519091189052516101c08c018051909118905292870180516101e08c018051909118905280516102008c018051909118905280516102208c018051909118905280516102408c0180519091189052516102608b018051909118905281516102808b018051909118905281516102a08b018051909118905281516102c08b018051909118905281516102e08b018051909118905290516103008a01805190911890529084525163100000009060208901516001600160401b03641000000000909102169190041761010084015260408701516001603d1b9060408901516001600160401b03600890910216919004176101608401526060870151628000009060608901516001600160401b036502000000000090910216919004176102608401526080870151654000000000009060808901516001600160401b036204000090910216919004176102c084015260a08701516001603f1b900487600560200201516002026001600160401b031617836002601981106110f3576110f3611b6e565b602002015260c08701516210000081046001602c1b9091026001600160401b039081169190911760a085015260e0880151664000000000000081046104009091028216176101a08501526101008801516208000081046520000000000090910282161761020085015261012088015160048082029092166001603e1b909104176103008501526101408801516101408901516001600160401b036001603e1b909102169190041760808401526101608701516001603a1b906101608901516001600160401b036040909102169190041760e084015261018087015162200000906101808901516001600160401b036001602b1b90910216919004176101408401526101a08701516602000000000000906101a08901516001600160401b0361800090910216919004176102408401526101c08701516008906101c08901516001600160401b036001603d1b90910216919004176102a08401526101e0870151641000000000906101e08901516001600160401b03631000000090910216919004176020840152610200808801516102008901516001600160401b0366800000000000009091021691900417610120840152610220870151648000000000906102208901516001600160401b03630200000090910216919004176101808401526102408701516001602b1b906102408901516001600160401b036220000090910216919004176101e0840152610260870151610100906102608901516001600160401b03600160381b90910216919004176102e0840152610280870151642000000000906102808901516001600160401b036308000000909102169190041760608401526102a08701516001602c1b906102a08901516001600160401b0362100000909102169190041760c08401526102c08701516302000000906102c08901516001600160401b0364800000000090910216919004176101c08401526102e0870151600160381b906102e08901516001600160401b036101009091021691900417610220840152610300870151660400000000000090048760186020020151614000026001600160401b031617836014602002015282600a602002015183600560200201511916836000602002015118876000602002015282600b602002015183600660200201511916836001602002015118876001602002015282600c602002015183600760200201511916836002602002015118876002602002015282600d602002015183600860200201511916836003602002015118876003602002015282600e602002015183600960200201511916836004602002015118876004602002015282600f602002015183600a602002015119168360056020020151188760056020020152826010602002015183600b602002015119168360066020020151188760066020020152826011602002015183600c602002015119168360076020020151188760076020020152826012602002015183600d602002015119168360086020020151188760086020020152826013602002015183600e602002015119168360096020020151188760096020020152826014602002015183600f6020020151191683600a60200201511887600a602002015282601560200201518360106020020151191683600b60200201511887600b602002015282601660200201518360116020020151191683600c60200201511887600c602002015282601760200201518360126020020151191683600d60200201511887600d602002015282601860200201518360136020020151191683600e60200201511887600e602002015282600060200201518360146020020151191683600f60200201511887600f602002015282600160200201518360156020020151191683601060200201511887601060200201528260026020020151836016602002015119168360116020020151188760116020020152826003602002015183601760200201511916836012602002015118876012602002015282600460200201518360186020020151191683601360200201511887601360200201528260056020020151836000602002015119168360146020020151188760146020020152826006602002015183600160200201511916836015602002015118876015602002015282600760200201518360026020020151191683601660200201511887601660200201528260086020020151836003602002015119168360176020020151188760176020020152826009602002015183600460200201511916836018602002015118876018602002015281816018811061178557611785611b6e565b60200201518751188752600101610cee565b509495945050505050565b5080546117ae90611ac4565b6000825580601f106117be575050565b601f0160209004906000526020600020908101906117dc91906118af565b50565b506117dc9060078101906118af565b8280546117fa90611ac4565b90600052602060002090601f01602090048101928261181c5760008555611862565b82601f1061183557805160ff1916838001178555611862565b82800160010185558215611862579182015b82811115611862578251825591602001919060010190611847565b5061186e9291506118af565b5090565b6040518061032001604052806019906020820280368337509192915050565b6040518060a001604052806005906020820280368337509192915050565b5b8082111561186e57600081556001016118b0565b80356001600160401b03811681146118db57600080fd5b919050565b600080604083850312156118f357600080fd5b82359150611903602084016118c4565b90509250929050565b6000815180845260005b8181101561193257602081850181015186830182015201611916565b81811115611944576000602083870101525b50601f01601f19169290920160200192915050565b60208152600061196c602083018461190c565b9392505050565b60008083601f84011261198557600080fd5b5081356001600160401b0381111561199c57600080fd5b6020830191508360208285010111156119b457600080fd5b9250929050565b600080600080606085870312156119d157600080fd5b84356001600160401b038111156119e757600080fd5b6119f387828801611973565b9095509350611a069050602086016118c4565b9396929550929360400135925050565b600060208284031215611a2857600080fd5b81356001600160a01b038116811461196c57600080fd5b6001600160401b0384168152606060208201526000611a61606083018561190c565b9050826040830152949350505050565b600080600060408486031215611a8657600080fd5b83356001600160401b03811115611a9c57600080fd5b611aa886828701611973565b9094509250611abb9050602085016118c4565b90509250925092565b600181811c90821680611ad857607f821691505b60208210811415611af957634e487b7160e01b600052602260045260246000fd5b50919050565b634e487b7160e01b600052601260045260246000fd5b600082611b2457611b24611aff565b500690565b634e487b7160e01b600052601160045260246000fd5b60008219821115611b5257611b52611b29565b500190565b600082821015611b6957611b69611b29565b500390565b634e487b7160e01b600052603260045260246000fd5b6000600019821415611b9857611b98611b29565b5060010190565b600082611bae57611bae611aff565b500490565b6000816000190483118215151615611bcd57611bcd611b29565b500290565b600060208083526000845481600182811c915080831680611bf457607f831692505b858310811415611c1257634e487b7160e01b85526022600452602485fd5b878601838152602001818015611c2f5760018114611c4057611c6b565b60ff19861682528782019650611c6b565b60008b81526020902060005b86811015611c6557815484820152908501908901611c4c565b83019750505b50949998505050505050505050565b8183823760009101908152919050565b60008085851115611c9a57600080fd5b83861115611ca757600080fd5b505082019391909203915056fea2646970667358221220f64f81b9401e863677eafe7c7a2afc1bf84b6131fb25288322661dfca69d957f64736f6c63430008090033",
          "opcodes": "PUSH1 0x80 PUSH1 0x40 MSTORE CALLVALUE DUP1 ISZERO PUSH2 0x10 JUMPI PUSH1 0x0 DUP1 REVERT JUMPDEST POP PUSH2 0x1CEA DUP1 PUSH2 0x20 PUSH1 0x0 CODECOPY PUSH1 0x0 RETURN INVALID PUSH1 0x80 PUSH1 0x40 MSTORE CALLVALUE DUP1 ISZERO PUSH2 0x10 JUMPI PUSH1 0x0 DUP1 REVERT JUMPDEST POP PUSH1 0x4 CALLDATASIZE LT PUSH2 0x57 JUMPI PUSH1 0x0 CALLDATALOAD PUSH1 0xE0 SHR DUP1 PUSH4 0x740085D7 EQ PUSH2 0x5C JUMPI DUP1 PUSH4 0x79754CBA EQ PUSH2 0x85 JUMPI DUP1 PUSH4 0xAE364AC2 EQ PUSH2 0xA6 JUMPI DUP1 PUSH4 0xB7465799 EQ PUSH2 0xB0 JUMPI DUP1 PUSH4 0xD4E5DD2B EQ PUSH2 0xD2 JUMPI JUMPDEST PUSH1 0x0 DUP1 REVERT JUMPDEST PUSH2 0x6F PUSH2 0x6A CALLDATASIZE PUSH1 0x4 PUSH2 0x18E0 JUMP JUMPDEST PUSH2 0xE5 JUMP JUMPDEST PUSH1 0x40 MLOAD PUSH2 0x7C SWAP2 SWAP1 PUSH2 0x1959 JUMP JUMPDEST PUSH1 0x40 MLOAD DUP1 SWAP2 SUB SWAP1 RETURN JUMPDEST PUSH2 0x98 PUSH2 0x93 CALLDATASIZE PUSH1 0x4 PUSH2 0x19BB JUMP JUMPDEST PUSH2 0x1D8 JUMP JUMPDEST PUSH1 0x40 MLOAD SWAP1 DUP2 MSTORE PUSH1 0x20 ADD PUSH2 0x7C JUMP JUMPDEST PUSH2 0xAE PUSH2 0x6CB JUMP JUMPDEST STOP JUMPDEST PUSH2 0xC3 PUSH2 0xBE CALLDATASIZE PUSH1 0x4 PUSH2 0x1A16 JUMP JUMPDEST PUSH2 0x713 JUMP JUMPDEST PUSH1 0x40 MLOAD PUSH2 0x7C SWAP4 SWAP3 SWAP2 SWAP1 PUSH2 0x1A3F JUMP JUMPDEST PUSH2 0x98 PUSH2 0xE0 CALLDATASIZE PUSH1 0x4 PUSH2 0x1A71 JUMP JUMPDEST PUSH2 0x7C9 JUMP JUMPDEST PUSH1 0x0 DUP3 DUP2 MSTORE PUSH1 0x20 DUP2 DUP2 MSTORE PUSH1 0x40 DUP1 DUP4 KECCAK256 PUSH1 0x1 PUSH1 0x1 PUSH1 0x40 SHL SUB DUP6 AND DUP5 MSTORE SWAP1 SWAP2 MSTORE SWAP1 KECCAK256 DUP1 SLOAD PUSH1 0x60 SWAP2 SWAP1 PUSH1 0xFF AND PUSH2 0x142 JUMPI PUSH1 0x40 MLOAD PUSH4 0x9CB23C9 PUSH1 0xE1 SHL DUP2 MSTORE PUSH1 0x4 DUP2 ADD DUP6 SWAP1 MSTORE PUSH1 0x1 PUSH1 0x1 PUSH1 0x40 SHL SUB DUP5 AND PUSH1 0x24 DUP3 ADD MSTORE PUSH1 0x44 ADD JUMPDEST PUSH1 0x40 MLOAD DUP1 SWAP2 SUB SWAP1 REVERT JUMPDEST DUP1 PUSH1 0x1 ADD DUP1 SLOAD PUSH2 0x151 SWAP1 PUSH2 0x1AC4 JUMP JUMPDEST DUP1 PUSH1 0x1F ADD PUSH1 0x20 DUP1 SWAP2 DIV MUL PUSH1 0x20 ADD PUSH1 0x40 MLOAD SWAP1 DUP2 ADD PUSH1 0x40 MSTORE DUP1 SWAP3 SWAP2 SWAP1 DUP2 DUP2 MSTORE PUSH1 0x20 ADD DUP3 DUP1 SLOAD PUSH2 0x17D SWAP1 PUSH2 0x1AC4 JUMP JUMPDEST DUP1 ISZERO PUSH2 0x1CA JUMPI DUP1 PUSH1 0x1F LT PUSH2 0x19F JUMPI PUSH2 0x100 DUP1 DUP4 SLOAD DIV MUL DUP4 MSTORE SWAP2 PUSH1 0x20 ADD SWAP2 PUSH2 0x1CA JUMP JUMPDEST DUP3 ADD SWAP2 SWAP1 PUSH1 0x0 MSTORE PUSH1 0x20 PUSH1 0x0 KECCAK256 SWAP1 JUMPDEST DUP2 SLOAD DUP2 MSTORE SWAP1 PUSH1 0x1 ADD SWAP1 PUSH1 0x20 ADD DUP1 DUP4 GT PUSH2 0x1AD JUMPI DUP3 SWAP1 SUB PUSH1 0x1F AND DUP3 ADD SWAP2 JUMPDEST POP POP POP POP POP SWAP2 POP POP SWAP3 SWAP2 POP POP JUMP JUMPDEST PUSH1 0x0 PUSH1 0x1 DUP3 AND ISZERO ISZERO PUSH1 0x2 DUP4 AND ISZERO PUSH2 0x230 JUMPI CALLER PUSH1 0x0 SWAP1 DUP2 MSTORE PUSH1 0x1 PUSH1 0x20 DUP2 SWAP1 MSTORE PUSH1 0x40 DUP3 KECCAK256 DUP1 SLOAD PUSH8 0xFFFFFFFFFFFFFFFF NOT AND DUP2 SSTORE SWAP2 SWAP1 PUSH2 0x217 SWAP1 DUP4 ADD DUP3 PUSH2 0x17A2 JUMP JUMPDEST PUSH2 0x225 PUSH1 0x2 DUP4 ADD PUSH1 0x0 PUSH2 0x17DF JUMP JUMPDEST PUSH1 0x9 DUP3 ADD PUSH1 0x0 SWAP1 SSTORE POP POP JUMPDEST DUP1 DUP1 PUSH2 0x244 JUMPI POP PUSH2 0x242 PUSH1 0x88 DUP7 PUSH2 0x1B15 JUMP JUMPDEST ISZERO JUMPDEST PUSH2 0x284 JUMPI PUSH1 0x40 MLOAD PUSH3 0x461BCD PUSH1 0xE5 SHL DUP2 MSTORE PUSH1 0x20 PUSH1 0x4 DUP3 ADD MSTORE PUSH1 0x11 PUSH1 0x24 DUP3 ADD MSTORE PUSH17 0x1393D517D09313D0D2D7D0531251D39151 PUSH1 0x7A SHL PUSH1 0x44 DUP3 ADD MSTORE PUSH1 0x64 ADD PUSH2 0x139 JUMP JUMPDEST CALLER PUSH1 0x0 SWAP1 DUP2 MSTORE PUSH1 0x1 PUSH1 0x20 MSTORE PUSH1 0x40 SWAP1 KECCAK256 PUSH1 0x9 DUP2 ADD SLOAD DUP1 PUSH2 0x2BC JUMPI DUP2 SLOAD PUSH8 0xFFFFFFFFFFFFFFFF NOT AND PUSH1 0x1 PUSH1 0x1 PUSH1 0x40 SHL SUB DUP8 AND OR DUP3 SSTORE PUSH2 0x306 JUMP JUMPDEST DUP2 SLOAD PUSH1 0x1 PUSH1 0x1 PUSH1 0x40 SHL SUB DUP8 DUP2 AND SWAP2 AND EQ PUSH2 0x306 JUMPI PUSH1 0x40 MLOAD PUSH3 0x461BCD PUSH1 0xE5 SHL DUP2 MSTORE PUSH1 0x20 PUSH1 0x4 DUP3 ADD MSTORE PUSH1 0xB PUSH1 0x24 DUP3 ADD MSTORE PUSH11 0x1112519197D3D19194D155 PUSH1 0xAA SHL PUSH1 0x44 DUP3 ADD MSTORE PUSH1 0x64 ADD PUSH2 0x139 JUMP JUMPDEST PUSH2 0x312 DUP3 DUP10 DUP10 DUP7 PUSH2 0x920 JUMP JUMPDEST DUP1 PUSH2 0x327 PUSH1 0x20 PUSH1 0x1 PUSH1 0x1 PUSH1 0x40 SHL SUB DUP10 AND PUSH2 0x1B3F JUMP JUMPDEST GT DUP1 ISZERO PUSH2 0x340 JUMPI POP DUP2 PUSH1 0x9 ADD SLOAD DUP7 PUSH1 0x1 PUSH1 0x1 PUSH1 0x40 SHL SUB AND LT JUMPDEST ISZERO PUSH2 0x45A JUMPI PUSH1 0x0 DUP2 DUP8 PUSH1 0x1 PUSH1 0x1 PUSH1 0x40 SHL SUB AND GT ISZERO PUSH2 0x36E JUMPI PUSH2 0x36B DUP3 PUSH1 0x1 PUSH1 0x1 PUSH1 0x40 SHL SUB DUP10 AND PUSH2 0x1B57 JUMP JUMPDEST SWAP1 POP JUMPDEST PUSH1 0x0 DUP3 PUSH2 0x385 PUSH1 0x20 PUSH1 0x1 PUSH1 0x1 PUSH1 0x40 SHL SUB DUP12 AND PUSH2 0x1B3F JUMP JUMPDEST PUSH2 0x38F SWAP2 SWAP1 PUSH2 0x1B57 JUMP JUMPDEST SWAP1 POP DUP9 DUP2 GT ISZERO PUSH2 0x39C JUMPI POP DUP8 JUMPDEST DUP2 JUMPDEST DUP2 DUP2 LT ISZERO PUSH2 0x456 JUMPI DUP5 PUSH1 0x1 ADD DUP12 DUP12 DUP4 DUP2 DUP2 LT PUSH2 0x3BC JUMPI PUSH2 0x3BC PUSH2 0x1B6E JUMP JUMPDEST SWAP1 POP ADD CALLDATALOAD PUSH1 0xF8 SHR PUSH1 0xF8 SHL SWAP1 DUP1 DUP1 SLOAD DUP1 PUSH2 0x3D4 SWAP1 PUSH2 0x1AC4 JUMP JUMPDEST DUP1 PUSH1 0x1F DUP2 EQ PUSH2 0x3E2 JUMPI PUSH2 0x3F8 JUMP JUMPDEST DUP4 PUSH1 0x0 MSTORE PUSH1 0x20 PUSH1 0x0 KECCAK256 PUSH1 0xFF NOT DUP5 AND DUP2 SSTORE PUSH1 0x3F SWAP4 POP POP JUMPDEST POP PUSH1 0x2 SWAP2 SWAP1 SWAP2 ADD SWAP1 SWAP2 SSTORE DUP2 SLOAD PUSH1 0x1 AND ISZERO PUSH2 0x421 JUMPI SWAP1 PUSH1 0x0 MSTORE PUSH1 0x20 PUSH1 0x0 KECCAK256 SWAP1 PUSH1 0x20 SWAP2 DUP3 DUP3 DIV ADD SWAP2 SWAP1 MOD JUMPDEST SWAP1 SWAP2 SWAP1 SWAP2 SWAP1 SWAP2 PUSH1 0x1F SUB PUSH2 0x100 EXP DUP2 SLOAD DUP2 PUSH1 0xFF MUL NOT AND SWAP1 PUSH1 0x1 PUSH1 0xF8 SHL DUP5 DIV MUL OR SWAP1 SSTORE POP DUP1 DUP1 PUSH2 0x44E SWAP1 PUSH2 0x1B84 JUMP JUMPDEST SWAP2 POP POP PUSH2 0x39E JUMP JUMPDEST POP POP POP JUMPDEST DUP3 PUSH2 0x46C JUMPI POP PUSH1 0x0 SWAP3 POP PUSH2 0x6C3 SWAP2 POP POP JUMP JUMPDEST PUSH1 0x0 JUMPDEST PUSH1 0x20 DUP2 LT ISZERO PUSH2 0x53C JUMPI PUSH1 0x0 PUSH2 0x485 PUSH1 0x8 DUP4 PUSH2 0x1B9F JUMP JUMPDEST SWAP1 POP PUSH2 0x492 PUSH1 0x5 DUP3 PUSH2 0x1B9F JUMP JUMPDEST PUSH2 0x49D PUSH1 0x5 DUP4 PUSH2 0x1B15 JUMP JUMPDEST PUSH2 0x4A8 SWAP1 PUSH1 0x5 PUSH2 0x1BB3 JUMP JUMPDEST PUSH2 0x4B2 SWAP2 SWAP1 PUSH2 0x1B3F JUMP JUMPDEST SWAP1 POP PUSH1 0x0 PUSH2 0x4C1 PUSH1 0x8 DUP5 PUSH2 0x1B15 JUMP JUMPDEST PUSH2 0x4CC SWAP1 PUSH1 0x8 PUSH2 0x1BB3 JUMP JUMPDEST DUP6 PUSH1 0x2 ADD DUP4 PUSH1 0x19 DUP2 LT PUSH2 0x4E1 JUMPI PUSH2 0x4E1 PUSH2 0x1B6E JUMP JUMPDEST PUSH1 0x4 DUP2 DIV SWAP1 SWAP2 ADD SLOAD PUSH1 0x1 PUSH1 0x1 PUSH1 0x40 SHL SUB PUSH1 0x8 PUSH1 0x3 SWAP1 SWAP4 AND DUP4 MUL PUSH2 0x100 EXP SWAP1 SWAP2 DIV AND SWAP1 SWAP2 SHR SWAP2 POP PUSH2 0x512 SWAP1 DUP5 SWAP1 PUSH2 0x1BB3 JUMP JUMPDEST PUSH2 0x51D SWAP1 PUSH1 0xF8 PUSH2 0x1B57 JUMP JUMPDEST PUSH1 0xFF SWAP1 SWAP2 AND SWAP1 SHL SWAP6 SWAP1 SWAP6 OR SWAP5 POP DUP1 PUSH2 0x534 DUP2 PUSH2 0x1B84 JUMP JUMPDEST SWAP2 POP POP PUSH2 0x46F JUMP JUMPDEST POP PUSH1 0x40 MLOAD DUP1 PUSH1 0x40 ADD PUSH1 0x40 MSTORE DUP1 PUSH1 0x1 ISZERO ISZERO DUP2 MSTORE PUSH1 0x20 ADD DUP4 PUSH1 0x1 ADD DUP1 SLOAD PUSH2 0x560 SWAP1 PUSH2 0x1AC4 JUMP JUMPDEST DUP1 PUSH1 0x1F ADD PUSH1 0x20 DUP1 SWAP2 DIV MUL PUSH1 0x20 ADD PUSH1 0x40 MLOAD SWAP1 DUP2 ADD PUSH1 0x40 MSTORE DUP1 SWAP3 SWAP2 SWAP1 DUP2 DUP2 MSTORE PUSH1 0x20 ADD DUP3 DUP1 SLOAD PUSH2 0x58C SWAP1 PUSH2 0x1AC4 JUMP JUMPDEST DUP1 ISZERO PUSH2 0x5D9 JUMPI DUP1 PUSH1 0x1F LT PUSH2 0x5AE JUMPI PUSH2 0x100 DUP1 DUP4 SLOAD DIV MUL DUP4 MSTORE SWAP2 PUSH1 0x20 ADD SWAP2 PUSH2 0x5D9 JUMP JUMPDEST DUP3 ADD SWAP2 SWAP1 PUSH1 0x0 MSTORE PUSH1 0x20 PUSH1 0x0 KECCAK256 SWAP1 JUMPDEST DUP2 SLOAD DUP2 MSTORE SWAP1 PUSH1 0x1 ADD SWAP1 PUSH1 0x20 ADD DUP1 DUP4 GT PUSH2 0x5BC JUMPI DUP3 SWAP1 SUB PUSH1 0x1F AND DUP3 ADD SWAP2 JUMPDEST POP POP POP SWAP2 SWAP1 SWAP3 MSTORE POP POP PUSH1 0x0 DUP6 DUP2 MSTORE PUSH1 0x20 DUP2 DUP2 MSTORE PUSH1 0x40 DUP1 DUP4 KECCAK256 DUP7 SLOAD PUSH1 0x1 PUSH1 0x1 PUSH1 0x40 SHL SUB AND DUP5 MSTORE DUP3 MSTORE SWAP1 SWAP2 KECCAK256 DUP3 MLOAD DUP2 SLOAD PUSH1 0xFF NOT AND SWAP1 ISZERO ISZERO OR DUP2 SSTORE DUP3 DUP3 ADD MLOAD DUP1 MLOAD SWAP2 SWAP3 PUSH2 0x62B SWAP3 PUSH1 0x1 DUP6 ADD SWAP3 SWAP1 SWAP2 ADD SWAP1 PUSH2 0x17EE JUMP JUMPDEST POP POP DUP3 SLOAD PUSH1 0x40 MLOAD PUSH1 0x1 PUSH1 0x1 PUSH1 0x40 SHL SUB SWAP1 SWAP2 AND SWAP2 POP DUP6 SWAP1 PUSH32 0xF88493E8AC6179D3C1BA8712068367D7ECDD6F30D3B5DE01198E7A449FE2802C SWAP1 PUSH2 0x671 SWAP1 PUSH1 0x1 DUP8 ADD SWAP1 PUSH2 0x1BD2 JUMP JUMPDEST PUSH1 0x40 MLOAD DUP1 SWAP2 SUB SWAP1 LOG3 CALLER PUSH1 0x0 SWAP1 DUP2 MSTORE PUSH1 0x1 PUSH1 0x20 DUP2 SWAP1 MSTORE PUSH1 0x40 DUP3 KECCAK256 DUP1 SLOAD PUSH8 0xFFFFFFFFFFFFFFFF NOT AND DUP2 SSTORE SWAP2 SWAP1 PUSH2 0x6A7 SWAP1 DUP4 ADD DUP3 PUSH2 0x17A2 JUMP JUMPDEST PUSH2 0x6B5 PUSH1 0x2 DUP4 ADD PUSH1 0x0 PUSH2 0x17DF JUMP JUMPDEST PUSH1 0x9 DUP3 ADD PUSH1 0x0 SWAP1 SSTORE POP POP POP POP POP JUMPDEST SWAP5 SWAP4 POP POP POP POP JUMP JUMPDEST CALLER PUSH1 0x0 SWAP1 DUP2 MSTORE PUSH1 0x1 PUSH1 0x20 DUP2 SWAP1 MSTORE PUSH1 0x40 DUP3 KECCAK256 DUP1 SLOAD PUSH8 0xFFFFFFFFFFFFFFFF NOT AND DUP2 SSTORE SWAP2 SWAP1 PUSH2 0x6F9 SWAP1 DUP4 ADD DUP3 PUSH2 0x17A2 JUMP JUMPDEST PUSH2 0x707 PUSH1 0x2 DUP4 ADD PUSH1 0x0 PUSH2 0x17DF JUMP JUMPDEST PUSH1 0x9 DUP3 ADD PUSH1 0x0 SWAP1 SSTORE POP POP JUMP JUMPDEST PUSH1 0x1 PUSH1 0x20 DUP2 SWAP1 MSTORE PUSH1 0x0 SWAP2 DUP3 MSTORE PUSH1 0x40 SWAP1 SWAP2 KECCAK256 DUP1 SLOAD SWAP2 DUP2 ADD DUP1 SLOAD PUSH1 0x1 PUSH1 0x1 PUSH1 0x40 SHL SUB SWAP1 SWAP4 AND SWAP3 PUSH2 0x740 SWAP1 PUSH2 0x1AC4 JUMP JUMPDEST DUP1 PUSH1 0x1F ADD PUSH1 0x20 DUP1 SWAP2 DIV MUL PUSH1 0x20 ADD PUSH1 0x40 MLOAD SWAP1 DUP2 ADD PUSH1 0x40 MSTORE DUP1 SWAP3 SWAP2 SWAP1 DUP2 DUP2 MSTORE PUSH1 0x20 ADD DUP3 DUP1 SLOAD PUSH2 0x76C SWAP1 PUSH2 0x1AC4 JUMP JUMPDEST DUP1 ISZERO PUSH2 0x7B9 JUMPI DUP1 PUSH1 0x1F LT PUSH2 0x78E JUMPI PUSH2 0x100 DUP1 DUP4 SLOAD DIV MUL DUP4 MSTORE SWAP2 PUSH1 0x20 ADD SWAP2 PUSH2 0x7B9 JUMP JUMPDEST DUP3 ADD SWAP2 SWAP1 PUSH1 0x0 MSTORE PUSH1 0x20 PUSH1 0x0 KECCAK256 SWAP1 JUMPDEST DUP2 SLOAD DUP2 MSTORE SWAP1 PUSH1 0x1 ADD SWAP1 PUSH1 0x20 ADD DUP1 DUP4 GT PUSH2 0x79C JUMPI DUP3 SWAP1 SUB PUSH1 0x1F AND DUP3 ADD SWAP2 JUMPDEST POP POP POP POP POP SWAP1 DUP1 PUSH1 0x9 ADD SLOAD SWAP1 POP DUP4 JUMP JUMPDEST PUSH1 0x0 DUP4 DUP4 PUSH1 0x40 MLOAD PUSH2 0x7DB SWAP3 SWAP2 SWAP1 PUSH2 0x1C7A JUMP JUMPDEST PUSH1 0x40 MLOAD SWAP1 DUP2 SWAP1 SUB SWAP1 KECCAK256 SWAP1 POP PUSH1 0x60 PUSH1 0x1 PUSH1 0x1 PUSH1 0x40 SHL SUB DUP4 AND DUP5 GT ISZERO PUSH2 0x879 JUMPI PUSH1 0x0 PUSH2 0x80E PUSH1 0x1 PUSH1 0x1 PUSH1 0x40 SHL SUB DUP6 AND DUP7 PUSH2 0x1B57 JUMP JUMPDEST SWAP1 POP PUSH1 0x20 DUP2 GT ISZERO PUSH2 0x81D JUMPI POP PUSH1 0x20 JUMPDEST DUP6 PUSH1 0x1 PUSH1 0x1 PUSH1 0x40 SHL SUB DUP6 AND DUP7 PUSH2 0x833 DUP5 DUP4 PUSH2 0x1B3F JUMP JUMPDEST SWAP3 PUSH2 0x840 SWAP4 SWAP3 SWAP2 SWAP1 PUSH2 0x1C8A JUMP JUMPDEST DUP1 DUP1 PUSH1 0x1F ADD PUSH1 0x20 DUP1 SWAP2 DIV MUL PUSH1 0x20 ADD PUSH1 0x40 MLOAD SWAP1 DUP2 ADD PUSH1 0x40 MSTORE DUP1 SWAP4 SWAP3 SWAP2 SWAP1 DUP2 DUP2 MSTORE PUSH1 0x20 ADD DUP4 DUP4 DUP1 DUP3 DUP5 CALLDATACOPY PUSH1 0x0 SWAP3 ADD SWAP2 SWAP1 SWAP2 MSTORE POP SWAP3 SWAP5 POP POP POP POP POP JUMPDEST PUSH1 0x40 DUP1 MLOAD DUP1 DUP3 ADD DUP3 MSTORE PUSH1 0x1 DUP1 DUP3 MSTORE PUSH1 0x20 DUP1 DUP4 ADD DUP6 DUP2 MSTORE PUSH1 0x0 DUP8 DUP2 MSTORE DUP1 DUP4 MSTORE DUP6 DUP2 KECCAK256 PUSH1 0x1 PUSH1 0x1 PUSH1 0x40 SHL SUB DUP11 AND DUP3 MSTORE DUP4 MSTORE SWAP5 SWAP1 SWAP5 KECCAK256 DUP4 MLOAD DUP2 SLOAD PUSH1 0xFF NOT AND SWAP1 ISZERO ISZERO OR DUP2 SSTORE SWAP4 MLOAD DUP1 MLOAD SWAP4 SWAP5 SWAP4 PUSH2 0x8D2 SWAP4 DUP6 ADD SWAP3 SWAP2 SWAP1 SWAP2 ADD SWAP1 PUSH2 0x17EE JUMP JUMPDEST POP SWAP1 POP POP DUP3 PUSH1 0x1 PUSH1 0x1 PUSH1 0x40 SHL SUB AND DUP3 PUSH32 0xF88493E8AC6179D3C1BA8712068367D7ECDD6F30D3B5DE01198E7A449FE2802C DUP4 PUSH1 0x40 MLOAD PUSH2 0x910 SWAP2 SWAP1 PUSH2 0x1959 JUMP JUMPDEST PUSH1 0x40 MLOAD DUP1 SWAP2 SUB SWAP1 LOG3 POP SWAP4 SWAP3 POP POP POP JUMP JUMPDEST DUP3 DUP3 SWAP1 POP DUP5 PUSH1 0x9 ADD PUSH1 0x0 DUP3 DUP3 SLOAD PUSH2 0x937 SWAP2 SWAP1 PUSH2 0x1B3F JUMP JUMPDEST SWAP1 SWAP2 SSTORE POP POP JUMPDEST DUP2 ISZERO DUP1 ISZERO PUSH2 0x949 JUMPI POP DUP1 ISZERO JUMPDEST ISZERO PUSH2 0x953 JUMPI PUSH2 0xBA2 JUMP JUMPDEST PUSH1 0x0 JUMPDEST PUSH1 0x88 DUP2 LT ISZERO PUSH2 0xA7A JUMPI PUSH1 0x0 DUP4 DUP3 LT ISZERO PUSH2 0x98C JUMPI DUP5 DUP5 DUP4 DUP2 DUP2 LT PUSH2 0x97B JUMPI PUSH2 0x97B PUSH2 0x1B6E JUMP JUMPDEST SWAP2 SWAP1 SWAP2 ADD CALLDATALOAD PUSH1 0xF8 SHR SWAP2 POP PUSH2 0x9AF SWAP1 POP JUMP JUMPDEST DUP2 DUP5 EQ ISZERO PUSH2 0x998 JUMPI PUSH1 0x1 OR JUMPDEST PUSH2 0x9A4 PUSH1 0x1 PUSH1 0x88 PUSH2 0x1B57 JUMP JUMPDEST DUP3 EQ ISZERO PUSH2 0x9AF JUMPI PUSH1 0x80 OR JUMPDEST PUSH1 0x0 PUSH2 0x9BC PUSH1 0x8 DUP5 PUSH2 0x1B9F JUMP JUMPDEST SWAP1 POP PUSH2 0x9C9 PUSH1 0x5 DUP3 PUSH2 0x1B9F JUMP JUMPDEST PUSH2 0x9D4 PUSH1 0x5 DUP4 PUSH2 0x1B15 JUMP JUMPDEST PUSH2 0x9DF SWAP1 PUSH1 0x5 PUSH2 0x1BB3 JUMP JUMPDEST PUSH2 0x9E9 SWAP2 SWAP1 PUSH2 0x1B3F JUMP JUMPDEST SWAP1 POP PUSH2 0x9F6 PUSH1 0x8 DUP5 PUSH2 0x1B15 JUMP JUMPDEST PUSH2 0xA01 SWAP1 PUSH1 0x8 PUSH2 0x1BB3 JUMP JUMPDEST PUSH1 0x1 PUSH1 0x1 PUSH1 0x40 SHL SUB AND DUP3 PUSH1 0xFF AND PUSH1 0x1 PUSH1 0x1 PUSH1 0x40 SHL SUB AND SWAP1 SHL DUP8 PUSH1 0x2 ADD DUP3 PUSH1 0x19 DUP2 LT PUSH2 0xA2E JUMPI PUSH2 0xA2E PUSH2 0x1B6E JUMP JUMPDEST PUSH1 0x4 DUP2 DIV SWAP1 SWAP2 ADD DUP1 SLOAD PUSH1 0x1 PUSH1 0x1 PUSH1 0x40 SHL SUB PUSH1 0x8 PUSH1 0x3 SWAP1 SWAP5 AND SWAP4 SWAP1 SWAP4 MUL PUSH2 0x100 EXP DUP1 DUP3 DIV DUP5 AND SWAP1 SWAP5 XOR DUP4 AND DUP5 MUL SWAP3 SWAP1 SWAP4 MUL NOT SWAP1 SWAP3 AND OR SWAP1 SSTORE POP DUP2 SWAP1 POP PUSH2 0xA72 DUP2 PUSH2 0x1B84 JUMP JUMPDEST SWAP2 POP POP PUSH2 0x956 JUMP JUMPDEST POP PUSH2 0xA83 PUSH2 0x1872 JUMP JUMPDEST PUSH1 0x0 JUMPDEST PUSH1 0x19 DUP2 LT ISZERO PUSH2 0xAF5 JUMPI DUP6 PUSH1 0x2 ADD DUP2 PUSH1 0x19 DUP2 LT PUSH2 0xAA4 JUMPI PUSH2 0xAA4 PUSH2 0x1B6E JUMP JUMPDEST PUSH1 0x4 SWAP2 DUP3 DUP3 DIV ADD SWAP2 SWAP1 MOD PUSH1 0x8 MUL SWAP1 SLOAD SWAP1 PUSH2 0x100 EXP SWAP1 DIV PUSH1 0x1 PUSH1 0x1 PUSH1 0x40 SHL SUB AND PUSH1 0x1 PUSH1 0x1 PUSH1 0x40 SHL SUB AND DUP3 DUP3 PUSH1 0x19 DUP2 LT PUSH2 0xADE JUMPI PUSH2 0xADE PUSH2 0x1B6E JUMP JUMPDEST PUSH1 0x20 MUL ADD MSTORE DUP1 PUSH2 0xAED DUP2 PUSH2 0x1B84 JUMP JUMPDEST SWAP2 POP POP PUSH2 0xA86 JUMP JUMPDEST POP PUSH2 0xAFF DUP2 PUSH2 0xBA8 JUMP JUMPDEST SWAP1 POP PUSH1 0x0 JUMPDEST PUSH1 0x19 DUP2 LT ISZERO PUSH2 0xB7B JUMPI DUP2 DUP2 PUSH1 0x19 DUP2 LT PUSH2 0xB1F JUMPI PUSH2 0xB1F PUSH2 0x1B6E JUMP JUMPDEST PUSH1 0x20 MUL ADD MLOAD DUP7 PUSH1 0x2 ADD DUP3 PUSH1 0x19 DUP2 LT PUSH2 0xB39 JUMPI PUSH2 0xB39 PUSH2 0x1B6E JUMP JUMPDEST PUSH1 0x4 SWAP2 DUP3 DUP3 DIV ADD SWAP2 SWAP1 MOD PUSH1 0x8 MUL PUSH2 0x100 EXP DUP2 SLOAD DUP2 PUSH1 0x1 PUSH1 0x1 PUSH1 0x40 SHL SUB MUL NOT AND SWAP1 DUP4 PUSH1 0x1 PUSH1 0x1 PUSH1 0x40 SHL SUB AND MUL OR SWAP1 SSTORE POP DUP1 DUP1 PUSH2 0xB73 SWAP1 PUSH2 0x1B84 JUMP JUMPDEST SWAP2 POP POP PUSH2 0xB04 JUMP JUMPDEST POP PUSH1 0x88 DUP4 LT ISZERO PUSH2 0xB8B JUMPI POP PUSH2 0xBA2 JUMP JUMPDEST PUSH2 0xB98 DUP4 PUSH1 0x88 DUP2 DUP8 PUSH2 0x1C8A JUMP JUMPDEST SWAP4 POP SWAP4 POP POP PUSH2 0x93D JUMP JUMPDEST POP POP POP POP JUMP JUMPDEST PUSH2 0xBB0 PUSH2 0x1872 JUMP JUMPDEST PUSH2 0xBB8 PUSH2 0x1891 JUMP JUMPDEST PUSH2 0xBC0 PUSH2 0x1891 JUMP JUMPDEST PUSH2 0xBC8 PUSH2 0x1872 JUMP JUMPDEST PUSH1 0x0 PUSH1 0x40 MLOAD DUP1 PUSH2 0x300 ADD PUSH1 0x40 MSTORE DUP1 PUSH1 0x1 DUP2 MSTORE PUSH1 0x20 ADD PUSH2 0x8082 DUP2 MSTORE PUSH1 0x20 ADD PUSH8 0x800000000000808A DUP2 MSTORE PUSH1 0x20 ADD PUSH8 0x8000000080008000 DUP2 MSTORE PUSH1 0x20 ADD PUSH2 0x808B DUP2 MSTORE PUSH1 0x20 ADD PUSH4 0x80000001 DUP2 MSTORE PUSH1 0x20 ADD PUSH8 0x8000000080008081 DUP2 MSTORE PUSH1 0x20 ADD PUSH8 0x8000000000008009 DUP2 MSTORE PUSH1 0x20 ADD PUSH1 0x8A DUP2 MSTORE PUSH1 0x20 ADD PUSH1 0x88 DUP2 MSTORE PUSH1 0x20 ADD PUSH4 0x80008009 DUP2 MSTORE PUSH1 0x20 ADD PUSH4 0x8000000A DUP2 MSTORE PUSH1 0x20 ADD PUSH4 0x8000808B DUP2 MSTORE PUSH1 0x20 ADD PUSH8 0x800000000000008B DUP2 MSTORE PUSH1 0x20 ADD PUSH8 0x8000000000008089 DUP2 MSTORE PUSH1 0x20 ADD PUSH8 0x8000000000008003 DUP2 MSTORE PUSH1 0x20 ADD PUSH8 0x8000000000008002 DUP2 MSTORE PUSH1 0x20 ADD PUSH8 0x8000000000000080 DUP2 MSTORE PUSH1 0x20 ADD PUSH2 0x800A DUP2 MSTORE PUSH1 0x20 ADD PUSH8 0x800000008000000A DUP2 MSTORE PUSH1 0x20 ADD PUSH8 0x8000000080008081 DUP2 MSTORE PUSH1 0x20 ADD PUSH8 0x8000000000008080 DUP2 MSTORE PUSH1 0x20 ADD PUSH4 0x80000001 DUP2 MSTORE PUSH1 0x20 ADD PUSH8 0x8000000080008008 DUP2 MSTORE POP SWAP1 POP PUSH1 0x0 JUMPDEST PUSH1 0x18 DUP2 LT ISZERO PUSH2 0x1797 JUMPI PUSH1 0x80 DUP8 DUP2 ADD MLOAD PUSH1 0x60 DUP1 DUP11 ADD MLOAD PUSH1 0x40 DUP1 DUP13 ADD MLOAD PUSH1 0x20 DUP1 DUP15 ADD MLOAD DUP15 MLOAD XOR SWAP1 SWAP2 XOR SWAP1 SWAP3 XOR SWAP1 SWAP4 XOR DUP10 MSTORE PUSH2 0x120 DUP12 ADD MLOAD PUSH2 0x100 DUP13 ADD MLOAD PUSH1 0xE0 DUP14 ADD MLOAD PUSH1 0xC0 DUP15 ADD MLOAD PUSH1 0xA0 DUP16 ADD MLOAD XOR XOR XOR XOR SWAP1 DUP10 ADD DUP2 SWAP1 MSTORE PUSH2 0x1C0 DUP12 ADD MLOAD PUSH2 0x1A0 DUP13 ADD MLOAD PUSH2 0x180 DUP14 ADD MLOAD PUSH2 0x160 DUP15 ADD MLOAD PUSH2 0x140 DUP16 ADD MLOAD XOR XOR XOR XOR SWAP3 DUP10 ADD SWAP3 DUP4 MSTORE PUSH2 0x260 DUP12 ADD MLOAD PUSH2 0x240 DUP13 ADD MLOAD PUSH2 0x220 DUP14 ADD MLOAD PUSH2 0x200 DUP15 ADD MLOAD PUSH2 0x1E0 DUP16 ADD MLOAD XOR XOR XOR XOR SWAP2 DUP10 ADD SWAP2 SWAP1 SWAP2 MSTORE PUSH2 0x300 DUP11 ADD MLOAD PUSH2 0x2E0 DUP12 ADD MLOAD PUSH2 0x2C0 DUP13 ADD MLOAD PUSH2 0x2A0 DUP14 ADD MLOAD PUSH2 0x280 DUP15 ADD MLOAD XOR XOR XOR XOR SWAP3 DUP9 ADD DUP4 SWAP1 MSTORE PUSH1 0x1 PUSH1 0x1 PUSH1 0x40 SHL SUB PUSH1 0x2 DUP3 MUL AND PUSH1 0x1 PUSH1 0x3F SHL SWAP2 DUP3 SWAP1 DIV OR SWAP1 SWAP3 XOR DUP7 MSTORE MLOAD DIV DUP6 PUSH1 0x2 PUSH1 0x20 MUL ADD MLOAD PUSH1 0x2 MUL PUSH1 0x1 PUSH1 0x1 PUSH1 0x40 SHL SUB AND OR DUP6 PUSH1 0x0 PUSH1 0x20 MUL ADD MLOAD XOR DUP5 PUSH1 0x1 PUSH1 0x20 MUL ADD MSTORE PUSH1 0x1 PUSH1 0x3F SHL DUP6 PUSH1 0x3 PUSH1 0x20 MUL ADD MLOAD DUP2 PUSH2 0xE19 JUMPI PUSH2 0xE19 PUSH2 0x1AFF JUMP JUMPDEST DIV DUP6 PUSH1 0x3 PUSH1 0x20 MUL ADD MLOAD PUSH1 0x2 MUL PUSH1 0x1 PUSH1 0x1 PUSH1 0x40 SHL SUB AND OR DUP6 PUSH1 0x1 PUSH1 0x20 MUL ADD MLOAD XOR DUP5 PUSH1 0x2 PUSH1 0x20 MUL ADD MSTORE PUSH1 0x1 PUSH1 0x3F SHL DUP6 PUSH1 0x4 PUSH1 0x20 MUL ADD MLOAD DUP2 PUSH2 0xE5A JUMPI PUSH2 0xE5A PUSH2 0x1AFF JUMP JUMPDEST DIV DUP6 PUSH1 0x4 PUSH1 0x20 MUL ADD MLOAD PUSH1 0x2 MUL PUSH1 0x1 PUSH1 0x1 PUSH1 0x40 SHL SUB AND OR DUP6 PUSH1 0x2 PUSH1 0x5 DUP2 LT PUSH2 0xE83 JUMPI PUSH2 0xE83 PUSH2 0x1B6E JUMP JUMPDEST PUSH1 0x20 MUL ADD MLOAD XOR PUSH1 0x60 DUP6 ADD MSTORE DUP5 MLOAD PUSH1 0x1 PUSH1 0x3F SHL SWAP1 DUP7 MLOAD PUSH1 0x60 DUP1 DUP10 ADD MLOAD SWAP4 SWAP1 SWAP3 DIV PUSH1 0x2 SWAP1 SWAP2 MUL PUSH1 0x1 PUSH1 0x1 PUSH1 0x40 SHL SUB AND OR SWAP1 SWAP2 XOR PUSH1 0x80 DUP7 DUP2 ADD SWAP2 DUP3 MSTORE DUP7 MLOAD DUP11 MLOAD XOR DUP1 DUP12 MSTORE DUP8 MLOAD PUSH1 0x20 DUP1 DUP14 ADD DUP1 MLOAD SWAP1 SWAP3 XOR DUP3 MSTORE DUP10 MLOAD PUSH1 0x40 DUP1 DUP16 ADD DUP1 MLOAD SWAP1 SWAP3 XOR SWAP1 SWAP2 MSTORE DUP11 MLOAD DUP15 DUP9 ADD DUP1 MLOAD SWAP1 SWAP2 XOR SWAP1 MSTORE DUP11 MLOAD SWAP5 DUP15 ADD DUP1 MLOAD SWAP1 SWAP6 XOR SWAP1 SWAP5 MSTORE DUP10 ADD DUP1 MLOAD PUSH1 0xA0 DUP15 ADD DUP1 MLOAD SWAP1 SWAP2 XOR SWAP1 MSTORE DUP1 MLOAD PUSH1 0xC0 DUP15 ADD DUP1 MLOAD SWAP1 SWAP2 XOR SWAP1 MSTORE DUP1 MLOAD PUSH1 0xE0 DUP15 ADD DUP1 MLOAD SWAP1 SWAP2 XOR SWAP1 MSTORE DUP1 MLOAD PUSH2 0x100 DUP15 ADD DUP1 MLOAD SWAP1 SWAP2 XOR SWAP1 MSTORE MLOAD PUSH2 0x120 DUP14 ADD DUP1 MLOAD SWAP1 SWAP2 XOR SWAP1 MSTORE SWAP2 DUP9 ADD DUP1 MLOAD PUSH2 0x140 DUP14 ADD DUP1 MLOAD SWAP1 SWAP2 XOR SWAP1 MSTORE DUP1 MLOAD PUSH2 0x160 DUP14 ADD DUP1 MLOAD SWAP1 SWAP2 XOR SWAP1 MSTORE DUP1 MLOAD PUSH2 0x180 DUP14 ADD DUP1 MLOAD SWAP1 SWAP2 XOR SWAP1 MSTORE DUP1 MLOAD PUSH2 0x1A0 DUP14 ADD DUP1 MLOAD SWAP1 SWAP2 XOR SWAP1 MSTORE MLOAD PUSH2 0x1C0 DUP13 ADD DUP1 MLOAD SWAP1 SWAP2 XOR SWAP1 MSTORE SWAP3 DUP8 ADD DUP1 MLOAD PUSH2 0x1E0 DUP13 ADD DUP1 MLOAD SWAP1 SWAP2 XOR SWAP1 MSTORE DUP1 MLOAD PUSH2 0x200 DUP13 ADD DUP1 MLOAD SWAP1 SWAP2 XOR SWAP1 MSTORE DUP1 MLOAD PUSH2 0x220 DUP13 ADD DUP1 MLOAD SWAP1 SWAP2 XOR SWAP1 MSTORE DUP1 MLOAD PUSH2 0x240 DUP13 ADD DUP1 MLOAD SWAP1 SWAP2 XOR SWAP1 MSTORE MLOAD PUSH2 0x260 DUP12 ADD DUP1 MLOAD SWAP1 SWAP2 XOR SWAP1 MSTORE DUP2 MLOAD PUSH2 0x280 DUP12 ADD DUP1 MLOAD SWAP1 SWAP2 XOR SWAP1 MSTORE DUP2 MLOAD PUSH2 0x2A0 DUP12 ADD DUP1 MLOAD SWAP1 SWAP2 XOR SWAP1 MSTORE DUP2 MLOAD PUSH2 0x2C0 DUP12 ADD DUP1 MLOAD SWAP1 SWAP2 XOR SWAP1 MSTORE DUP2 MLOAD PUSH2 0x2E0 DUP12 ADD DUP1 MLOAD SWAP1 SWAP2 XOR SWAP1 MSTORE SWAP1 MLOAD PUSH2 0x300 DUP11 ADD DUP1 MLOAD SWAP1 SWAP2 XOR SWAP1 MSTORE SWAP1 DUP5 MSTORE MLOAD PUSH4 0x10000000 SWAP1 PUSH1 0x20 DUP10 ADD MLOAD PUSH1 0x1 PUSH1 0x1 PUSH1 0x40 SHL SUB PUSH5 0x1000000000 SWAP1 SWAP2 MUL AND SWAP2 SWAP1 DIV OR PUSH2 0x100 DUP5 ADD MSTORE PUSH1 0x40 DUP8 ADD MLOAD PUSH1 0x1 PUSH1 0x3D SHL SWAP1 PUSH1 0x40 DUP10 ADD MLOAD PUSH1 0x1 PUSH1 0x1 PUSH1 0x40 SHL SUB PUSH1 0x8 SWAP1 SWAP2 MUL AND SWAP2 SWAP1 DIV OR PUSH2 0x160 DUP5 ADD MSTORE PUSH1 0x60 DUP8 ADD MLOAD PUSH3 0x800000 SWAP1 PUSH1 0x60 DUP10 ADD MLOAD PUSH1 0x1 PUSH1 0x1 PUSH1 0x40 SHL SUB PUSH6 0x20000000000 SWAP1 SWAP2 MUL AND SWAP2 SWAP1 DIV OR PUSH2 0x260 DUP5 ADD MSTORE PUSH1 0x80 DUP8 ADD MLOAD PUSH6 0x400000000000 SWAP1 PUSH1 0x80 DUP10 ADD MLOAD PUSH1 0x1 PUSH1 0x1 PUSH1 0x40 SHL SUB PUSH3 0x40000 SWAP1 SWAP2 MUL AND SWAP2 SWAP1 DIV OR PUSH2 0x2C0 DUP5 ADD MSTORE PUSH1 0xA0 DUP8 ADD MLOAD PUSH1 0x1 PUSH1 0x3F SHL SWAP1 DIV DUP8 PUSH1 0x5 PUSH1 0x20 MUL ADD MLOAD PUSH1 0x2 MUL PUSH1 0x1 PUSH1 0x1 PUSH1 0x40 SHL SUB AND OR DUP4 PUSH1 0x2 PUSH1 0x19 DUP2 LT PUSH2 0x10F3 JUMPI PUSH2 0x10F3 PUSH2 0x1B6E JUMP JUMPDEST PUSH1 0x20 MUL ADD MSTORE PUSH1 0xC0 DUP8 ADD MLOAD PUSH3 0x100000 DUP2 DIV PUSH1 0x1 PUSH1 0x2C SHL SWAP1 SWAP2 MUL PUSH1 0x1 PUSH1 0x1 PUSH1 0x40 SHL SUB SWAP1 DUP2 AND SWAP2 SWAP1 SWAP2 OR PUSH1 0xA0 DUP6 ADD MSTORE PUSH1 0xE0 DUP9 ADD MLOAD PUSH7 0x40000000000000 DUP2 DIV PUSH2 0x400 SWAP1 SWAP2 MUL DUP3 AND OR PUSH2 0x1A0 DUP6 ADD MSTORE PUSH2 0x100 DUP9 ADD MLOAD PUSH3 0x80000 DUP2 DIV PUSH6 0x200000000000 SWAP1 SWAP2 MUL DUP3 AND OR PUSH2 0x200 DUP6 ADD MSTORE PUSH2 0x120 DUP9 ADD MLOAD PUSH1 0x4 DUP1 DUP3 MUL SWAP1 SWAP3 AND PUSH1 0x1 PUSH1 0x3E SHL SWAP1 SWAP2 DIV OR PUSH2 0x300 DUP6 ADD MSTORE PUSH2 0x140 DUP9 ADD MLOAD PUSH2 0x140 DUP10 ADD MLOAD PUSH1 0x1 PUSH1 0x1 PUSH1 0x40 SHL SUB PUSH1 0x1 PUSH1 0x3E SHL SWAP1 SWAP2 MUL AND SWAP2 SWAP1 DIV OR PUSH1 0x80 DUP5 ADD MSTORE PUSH2 0x160 DUP8 ADD MLOAD PUSH1 0x1 PUSH1 0x3A SHL SWAP1 PUSH2 0x160 DUP10 ADD MLOAD PUSH1 0x1 PUSH1 0x1 PUSH1 0x40 SHL SUB PUSH1 0x40 SWAP1 SWAP2 MUL AND SWAP2 SWAP1 DIV OR PUSH1 0xE0 DUP5 ADD MSTORE PUSH2 0x180 DUP8 ADD MLOAD PUSH3 0x200000 SWAP1 PUSH2 0x180 DUP10 ADD MLOAD PUSH1 0x1 PUSH1 0x1 PUSH1 0x40 SHL SUB PUSH1 0x1 PUSH1 0x2B SHL SWAP1 SWAP2 MUL AND SWAP2 SWAP1 DIV OR PUSH2 0x140 DUP5 ADD MSTORE PUSH2 0x1A0 DUP8 ADD MLOAD PUSH7 0x2000000000000 SWAP1 PUSH2 0x1A0 DUP10 ADD MLOAD PUSH1 0x1 PUSH1 0x1 PUSH1 0x40 SHL SUB PUSH2 0x8000 SWAP1 SWAP2 MUL AND SWAP2 SWAP1 DIV OR PUSH2 0x240 DUP5 ADD MSTORE PUSH2 0x1C0 DUP8 ADD MLOAD PUSH1 0x8 SWAP1 PUSH2 0x1C0 DUP10 ADD MLOAD PUSH1 0x1 PUSH1 0x1 PUSH1 0x40 SHL SUB PUSH1 0x1 PUSH1 0x3D SHL SWAP1 SWAP2 MUL AND SWAP2 SWAP1 DIV OR PUSH2 0x2A0 DUP5 ADD MSTORE PUSH2 0x1E0 DUP8 ADD MLOAD PUSH5 0x1000000000 SWAP1 PUSH2 0x1E0 DUP10 ADD MLOAD PUSH1 0x1 PUSH1 0x1 PUSH1 0x40 SHL SUB PUSH4 0x10000000 SWAP1 SWAP2 MUL AND SWAP2 SWAP1 DIV OR PUSH1 0x20 DUP5 ADD MSTORE PUSH2 0x200 DUP1 DUP9 ADD MLOAD PUSH2 0x200 DUP10 ADD MLOAD PUSH1 0x1 PUSH1 0x1 PUSH1 0x40 SHL SUB PUSH7 0x80000000000000 SWAP1 SWAP2 MUL AND SWAP2 SWAP1 DIV OR PUSH2 0x120 DUP5 ADD MSTORE PUSH2 0x220 DUP8 ADD MLOAD PUSH5 0x8000000000 SWAP1 PUSH2 0x220 DUP10 ADD MLOAD PUSH1 0x1 PUSH1 0x1 PUSH1 0x40 SHL SUB PUSH4 0x2000000 SWAP1 SWAP2 MUL AND SWAP2 SWAP1 DIV OR PUSH2 0x180 DUP5 ADD MSTORE PUSH2 0x240 DUP8 ADD MLOAD PUSH1 0x1 PUSH1 0x2B SHL SWAP1 PUSH2 0x240 DUP10 ADD MLOAD PUSH1 0x1 PUSH1 0x1 PUSH1 0x40 SHL SUB PUSH3 0x200000 SWAP1 SWAP2 MUL AND SWAP2 SWAP1 DIV OR PUSH2 0x1E0 DUP5 ADD MSTORE PUSH2 0x260 DUP8 ADD MLOAD PUSH2 0x100 SWAP1 PUSH2 0x260 DUP10 ADD MLOAD PUSH1 0x1 PUSH1 0x1 PUSH1 0x40 SHL SUB PUSH1 0x1 PUSH1 0x38 SHL SWAP1 SWAP2 MUL AND SWAP2 SWAP1 DIV OR PUSH2 0x2E0 DUP5 ADD MSTORE PUSH2 0x280 DUP8 ADD MLOAD PUSH5 0x2000000000 SWAP1 PUSH2 0x280 DUP10 ADD MLOAD PUSH1 0x1 PUSH1 0x1 PUSH1 0x40 SHL SUB PUSH4 0x8000000 SWAP1 SWAP2 MUL AND SWAP2 SWAP1 DIV OR PUSH1 0x60 DUP5 ADD MSTORE PUSH2 0x2A0 DUP8 ADD MLOAD PUSH1 0x1 PUSH1 0x2C SHL SWAP1 PUSH2 0x2A0 DUP10 ADD MLOAD PUSH1 0x1 PUSH1 0x1 PUSH1 0x40 SHL SUB PUSH3 0x100000 SWAP1 SWAP2 MUL AND SWAP2 SWAP1 DIV OR PUSH1 0xC0 DUP5 ADD MSTORE PUSH2 0x2C0 DUP8 ADD MLOAD PUSH4 0x2000000 SWAP1 PUSH2 0x2C0 DUP10 ADD MLOAD PUSH1 0x1 PUSH1 0x1 PUSH1 0x40 SHL SUB PUSH5 0x8000000000 SWAP1 SWAP2 MUL AND SWAP2 SWAP1 DIV OR PUSH2 0x1C0 DUP5 ADD MSTORE PUSH2 0x2E0 DUP8 ADD MLOAD PUSH1 0x1 PUSH1 0x38 SHL SWAP1 PUSH2 0x2E0 DUP10 ADD MLOAD PUSH1 0x1 PUSH1 0x1 PUSH1 0x40 SHL SUB PUSH2 0x100 SWAP1 SWAP2 MUL AND SWAP2 SWAP1 DIV OR PUSH2 0x220 DUP5 ADD MSTORE PUSH2 0x300 DUP8 ADD MLOAD PUSH7 0x4000000000000 SWAP1 DIV DUP8 PUSH1 0x18 PUSH1 0x20 MUL ADD MLOAD PUSH2 0x4000 MUL PUSH1 0x1 PUSH1 0x1 PUSH1 0x40 SHL SUB AND OR DUP4 PUSH1 0x14 PUSH1 0x20 MUL ADD MSTORE DUP3 PUSH1 0xA PUSH1 0x20 MUL ADD MLOAD DUP4 PUSH1 0x5 PUSH1 0x20 MUL ADD MLOAD NOT AND DUP4 PUSH1 0x0 PUSH1 0x20 MUL ADD MLOAD XOR DUP8 PUSH1 0x0 PUSH1 0x20 MUL ADD MSTORE DUP3 PUSH1 0xB PUSH1 0x20 MUL ADD MLOAD DUP4 PUSH1 0x6 PUSH1 0x20 MUL ADD MLOAD NOT AND DUP4 PUSH1 0x1 PUSH1 0x20 MUL ADD MLOAD XOR DUP8 PUSH1 0x1 PUSH1 0x20 MUL ADD MSTORE DUP3 PUSH1 0xC PUSH1 0x20 MUL ADD MLOAD DUP4 PUSH1 0x7 PUSH1 0x20 MUL ADD MLOAD NOT AND DUP4 PUSH1 0x2 PUSH1 0x20 MUL ADD MLOAD XOR DUP8 PUSH1 0x2 PUSH1 0x20 MUL ADD MSTORE DUP3 PUSH1 0xD PUSH1 0x20 MUL ADD MLOAD DUP4 PUSH1 0x8 PUSH1 0x20 MUL ADD MLOAD NOT AND DUP4 PUSH1 0x3 PUSH1 0x20 MUL ADD MLOAD XOR DUP8 PUSH1 0x3 PUSH1 0x20 MUL ADD MSTORE DUP3 PUSH1 0xE PUSH1 0x20 MUL ADD MLOAD DUP4 PUSH1 0x9 PUSH1 0x20 MUL ADD MLOAD NOT AND DUP4 PUSH1 0x4 PUSH1 0x20 MUL ADD MLOAD XOR DUP8 PUSH1 0x4 PUSH1 0x20 MUL ADD MSTORE DUP3 PUSH1 0xF PUSH1 0x20 MUL ADD MLOAD DUP4 PUSH1 0xA PUSH1 0x20 MUL ADD MLOAD NOT AND DUP4 PUSH1 0x5 PUSH1 0x20 MUL ADD MLOAD XOR DUP8 PUSH1 0x5 PUSH1 0x20 MUL ADD MSTORE DUP3 PUSH1 0x10 PUSH1 0x20 MUL ADD MLOAD DUP4 PUSH1 0xB PUSH1 0x20 MUL ADD MLOAD NOT AND DUP4 PUSH1 0x6 PUSH1 0x20 MUL ADD MLOAD XOR DUP8 PUSH1 0x6 PUSH1 0x20 MUL ADD MSTORE DUP3 PUSH1 0x11 PUSH1 0x20 MUL ADD MLOAD DUP4 PUSH1 0xC PUSH1 0x20 MUL ADD MLOAD NOT AND DUP4 PUSH1 0x7 PUSH1 0x20 MUL ADD MLOAD XOR DUP8 PUSH1 0x7 PUSH1 0x20 MUL ADD MSTORE DUP3 PUSH1 0x12 PUSH1 0x20 MUL ADD MLOAD DUP4 PUSH1 0xD PUSH1 0x20 MUL ADD MLOAD NOT AND DUP4 PUSH1 0x8 PUSH1 0x20 MUL ADD MLOAD XOR DUP8 PUSH1 0x8 PUSH1 0x20 MUL ADD MSTORE DUP3 PUSH1 0x13 PUSH1 0x20 MUL ADD MLOAD DUP4 PUSH1 0xE PUSH1 0x20 MUL ADD MLOAD NOT AND DUP4 PUSH1 0x9 PUSH1 0x20 MUL ADD MLOAD XOR DUP8 PUSH1 0x9 PUSH1 0x20 MUL ADD MSTORE DUP3 PUSH1 0x14 PUSH1 0x20 MUL ADD MLOAD DUP4 PUSH1 0xF PUSH1 0x20 MUL ADD MLOAD NOT AND DUP4 PUSH1 0xA PUSH1 0x20 MUL ADD MLOAD XOR DUP8 PUSH1 0xA PUSH1 0x20 MUL ADD MSTORE DUP3 PUSH1 0x15 PUSH1 0x20 MUL ADD MLOAD DUP4 PUSH1 0x10 PUSH1 0x20 MUL ADD MLOAD NOT AND DUP4 PUSH1 0xB PUSH1 0x20 MUL ADD MLOAD XOR DUP8 PUSH1 0xB PUSH1 0x20 MUL ADD MSTORE DUP3 PUSH1 0x16 PUSH1 0x20 MUL ADD MLOAD DUP4 PUSH1 0x11 PUSH1 0x20 MUL ADD MLOAD NOT AND DUP4 PUSH1 0xC PUSH1 0x20 MUL ADD MLOAD XOR DUP8 PUSH1 0xC PUSH1 0x20 MUL ADD MSTORE DUP3 PUSH1 0x17 PUSH1 0x20 MUL ADD MLOAD DUP4 PUSH1 0x12 PUSH1 0x20 MUL ADD MLOAD NOT AND DUP4 PUSH1 0xD PUSH1 0x20 MUL ADD MLOAD XOR DUP8 PUSH1 0xD PUSH1 0x20 MUL ADD MSTORE DUP3 PUSH1 0x18 PUSH1 0x20 MUL ADD MLOAD DUP4 PUSH1 0x13 PUSH1 0x20 MUL ADD MLOAD NOT AND DUP4 PUSH1 0xE PUSH1 0x20 MUL ADD MLOAD XOR DUP8 PUSH1 0xE PUSH1 0x20 MUL ADD MSTORE DUP3 PUSH1 0x0 PUSH1 0x20 MUL ADD MLOAD DUP4 PUSH1 0x14 PUSH1 0x20 MUL ADD MLOAD NOT AND DUP4 PUSH1 0xF PUSH1 0x20 MUL ADD MLOAD XOR DUP8 PUSH1 0xF PUSH1 0x20 MUL ADD MSTORE DUP3 PUSH1 0x1 PUSH1 0x20 MUL ADD MLOAD DUP4 PUSH1 0x15 PUSH1 0x20 MUL ADD MLOAD NOT AND DUP4 PUSH1 0x10 PUSH1 0x20 MUL ADD MLOAD XOR DUP8 PUSH1 0x10 PUSH1 0x20 MUL ADD MSTORE DUP3 PUSH1 0x2 PUSH1 0x20 MUL ADD MLOAD DUP4 PUSH1 0x16 PUSH1 0x20 MUL ADD MLOAD NOT AND DUP4 PUSH1 0x11 PUSH1 0x20 MUL ADD MLOAD XOR DUP8 PUSH1 0x11 PUSH1 0x20 MUL ADD MSTORE DUP3 PUSH1 0x3 PUSH1 0x20 MUL ADD MLOAD DUP4 PUSH1 0x17 PUSH1 0x20 MUL ADD MLOAD NOT AND DUP4 PUSH1 0x12 PUSH1 0x20 MUL ADD MLOAD XOR DUP8 PUSH1 0x12 PUSH1 0x20 MUL ADD MSTORE DUP3 PUSH1 0x4 PUSH1 0x20 MUL ADD MLOAD DUP4 PUSH1 0x18 PUSH1 0x20 MUL ADD MLOAD NOT AND DUP4 PUSH1 0x13 PUSH1 0x20 MUL ADD MLOAD XOR DUP8 PUSH1 0x13 PUSH1 0x20 MUL ADD MSTORE DUP3 PUSH1 0x5 PUSH1 0x20 MUL ADD MLOAD DUP4 PUSH1 0x0 PUSH1 0x20 MUL ADD MLOAD NOT AND DUP4 PUSH1 0x14 PUSH1 0x20 MUL ADD MLOAD XOR DUP8 PUSH1 0x14 PUSH1 0x20 MUL ADD MSTORE DUP3 PUSH1 0x6 PUSH1 0x20 MUL ADD MLOAD DUP4 PUSH1 0x1 PUSH1 0x20 MUL ADD MLOAD NOT AND DUP4 PUSH1 0x15 PUSH1 0x20 MUL ADD MLOAD XOR DUP8 PUSH1 0x15 PUSH1 0x20 MUL ADD MSTORE DUP3 PUSH1 0x7 PUSH1 0x20 MUL ADD MLOAD DUP4 PUSH1 0x2 PUSH1 0x20 MUL ADD MLOAD NOT AND DUP4 PUSH1 0x16 PUSH1 0x20 MUL ADD MLOAD XOR DUP8 PUSH1 0x16 PUSH1 0x20 MUL ADD MSTORE DUP3 PUSH1 0x8 PUSH1 0x20 MUL ADD MLOAD DUP4 PUSH1 0x3 PUSH1 0x20 MUL ADD MLOAD NOT AND DUP4 PUSH1 0x17 PUSH1 0x20 MUL ADD MLOAD XOR DUP8 PUSH1 0x17 PUSH1 0x20 MUL ADD MSTORE DUP3 PUSH1 0x9 PUSH1 0x20 MUL ADD MLOAD DUP4 PUSH1 0x4 PUSH1 0x20 MUL ADD MLOAD NOT AND DUP4 PUSH1 0x18 PUSH1 0x20 MUL ADD MLOAD XOR DUP8 PUSH1 0x18 PUSH1 0x20 MUL ADD MSTORE DUP2 DUP2 PUSH1 0x18 DUP2 LT PUSH2 0x1785 JUMPI PUSH2 0x1785 PUSH2 0x1B6E JUMP JUMPDEST PUSH1 0x20 MUL ADD MLOAD DUP8 MLOAD XOR DUP8 MSTORE PUSH1 0x1 ADD PUSH2 0xCEE JUMP JUMPDEST POP SWAP5 SWAP6 SWAP5 POP POP POP POP POP JUMP JUMPDEST POP DUP1 SLOAD PUSH2 0x17AE SWAP1 PUSH2 0x1AC4 JUMP JUMPDEST PUSH1 0x0 DUP3 SSTORE DUP1 PUSH1 0x1F LT PUSH2 0x17BE JUMPI POP POP JUMP JUMPDEST PUSH1 0x1F ADD PUSH1 0x20 SWAP1 DIV SWAP1 PUSH1 0x0 MSTORE PUSH1 0x20 PUSH1 0x0 KECCAK256 SWAP1 DUP2 ADD SWAP1 PUSH2 0x17DC SWAP2 SWAP1 PUSH2 0x18AF JUMP JUMPDEST POP JUMP JUMPDEST POP PUSH2 0x17DC SWAP1 PUSH1 0x7 DUP2 ADD SWAP1 PUSH2 0x18AF JUMP JUMPDEST DUP3 DUP1 SLOAD PUSH2 0x17FA SWAP1 PUSH2 0x1AC4 JUMP JUMPDEST SWAP1 PUSH1 0x0 MSTORE PUSH1 0x20 PUSH1 0x0 KECCAK256 SWAP1 PUSH1 0x1F ADD PUSH1 0x20 SWAP1 DIV DUP2 ADD SWAP3 DUP3 PUSH2 0x181C JUMPI PUSH1 0x0 DUP6 SSTORE PUSH2 0x1862 JUMP JUMPDEST DUP3 PUSH1 0x1F LT PUSH2 0x1835 JUMPI DUP1 MLOAD PUSH1 0xFF NOT AND DUP4 DUP1 ADD OR DUP6 SSTORE PUSH2 0x1862 JUMP JUMPDEST DUP3 DUP1 ADD PUSH1 0x1 ADD DUP6 SSTORE DUP3 ISZERO PUSH2 0x1862 JUMPI SWAP2 DUP3 ADD JUMPDEST DUP3 DUP2 GT ISZERO PUSH2 0x1862 JUMPI DUP3 MLOAD DUP3 SSTORE SWAP2 PUSH1 0x20 ADD SWAP2 SWAP1 PUSH1 0x1 ADD SWAP1 PUSH2 0x1847 JUMP JUMPDEST POP PUSH2 0x186E SWAP3 SWAP2 POP PUSH2 0x18AF JUMP JUMPDEST POP SWAP1 JUMP JUMPDEST PUSH1 0x40 MLOAD DUP1 PUSH2 0x320 ADD PUSH1 0x40 MSTORE DUP1 PUSH1 0x19 SWAP1 PUSH1 0x20 DUP3 MUL DUP1 CALLDATASIZE DUP4 CALLDATACOPY POP SWAP2 SWAP3 SWAP2 POP POP JUMP JUMPDEST PUSH1 0x40 MLOAD DUP1 PUSH1 0xA0 ADD PUSH1 0x40 MSTORE DUP1 PUSH1 0x5 SWAP1 PUSH1 0x20 DUP3 MUL DUP1 CALLDATASIZE DUP4 CALLDATACOPY POP SWAP2 SWAP3 SWAP2 POP POP JUMP JUMPDEST JUMPDEST DUP1 DUP3 GT ISZERO PUSH2 0x186E JUMPI PUSH1 0x0 DUP2 SSTORE PUSH1 0x1 ADD PUSH2 0x18B0 JUMP JUMPDEST DUP1 CALLDATALOAD PUSH1 0x1 PUSH1 0x1 PUSH1 0x40 SHL SUB DUP2 AND DUP2 EQ PUSH2 0x18DB JUMPI PUSH1 0x0 DUP1 REVERT JUMPDEST SWAP2 SWAP1 POP JUMP JUMPDEST PUSH1 0x0 DUP1 PUSH1 0x40 DUP4 DUP6 SUB SLT ISZERO PUSH2 0x18F3 JUMPI PUSH1 0x0 DUP1 REVERT JUMPDEST DUP3 CALLDATALOAD SWAP2 POP PUSH2 0x1903 PUSH1 0x20 DUP5 ADD PUSH2 0x18C4 JUMP JUMPDEST SWAP1 POP SWAP3 POP SWAP3 SWAP1 POP JUMP JUMPDEST PUSH1 0x0 DUP2 MLOAD DUP1 DUP5 MSTORE PUSH1 0x0 JUMPDEST DUP2 DUP2 LT ISZERO PUSH2 0x1932 JUMPI PUSH1 0x20 DUP2 DUP6 ADD DUP2 ADD MLOAD DUP7 DUP4 ADD DUP3 ADD MSTORE ADD PUSH2 0x1916 JUMP JUMPDEST DUP2 DUP2 GT ISZERO PUSH2 0x1944 JUMPI PUSH1 0x0 PUSH1 0x20 DUP4 DUP8 ADD ADD MSTORE JUMPDEST POP PUSH1 0x1F ADD PUSH1 0x1F NOT AND SWAP3 SWAP1 SWAP3 ADD PUSH1 0x20 ADD SWAP3 SWAP2 POP POP JUMP JUMPDEST PUSH1 0x20 DUP2 MSTORE PUSH1 0x0 PUSH2 0x196C PUSH1 0x20 DUP4 ADD DUP5 PUSH2 0x190C JUMP JUMPDEST SWAP4 SWAP3 POP POP POP JUMP JUMPDEST PUSH1 0x0 DUP1 DUP4 PUSH1 0x1F DUP5 ADD SLT PUSH2 0x1985 JUMPI PUSH1 0x0 DUP1 REVERT JUMPDEST POP DUP2 CALLDATALOAD PUSH1 0x1 PUSH1 0x1 PUSH1 0x40 SHL SUB DUP2 GT ISZERO PUSH2 0x199C JUMPI PUSH1 0x0 DUP1 REVERT JUMPDEST PUSH1 0x20 DUP4 ADD SWAP2 POP DUP4 PUSH1 0x20 DUP3 DUP6 ADD ADD GT ISZERO PUSH2 0x19B4 JUMPI PUSH1 0x0 DUP1 REVERT JUMPDEST SWAP3 POP SWAP3 SWAP1 POP JUMP JUMPDEST PUSH1 0x0 DUP1 PUSH1 0x0 DUP1 PUSH1 0x60 DUP6 DUP8 SUB SLT ISZERO PUSH2 0x19D1 JUMPI PUSH1 0x0 DUP1 REVERT JUMPDEST DUP5 CALLDATALOAD PUSH1 0x1 PUSH1 0x1 PUSH1 0x40 SHL SUB DUP2 GT ISZERO PUSH2 0x19E7 JUMPI PUSH1 0x0 DUP1 REVERT JUMPDEST PUSH2 0x19F3 DUP8 DUP3 DUP9 ADD PUSH2 0x1973 JUMP JUMPDEST SWAP1 SWAP6 POP SWAP4 POP PUSH2 0x1A06 SWAP1 POP PUSH1 0x20 DUP7 ADD PUSH2 0x18C4 JUMP JUMPDEST SWAP4 SWAP7 SWAP3 SWAP6 POP SWAP3 SWAP4 PUSH1 0x40 ADD CALLDATALOAD SWAP3 POP POP JUMP JUMPDEST PUSH1 0x0 PUSH1 0x20 DUP3 DUP5 SUB SLT ISZERO PUSH2 0x1A28 JUMPI PUSH1 0x0 DUP1 REVERT JUMPDEST DUP2 CALLDATALOAD PUSH1 0x1 PUSH1 0x1 PUSH1 0xA0 SHL SUB DUP2 AND DUP2 EQ PUSH2 0x196C JUMPI PUSH1 0x0 DUP1 REVERT JUMPDEST PUSH1 0x1 PUSH1 0x1 PUSH1 0x40 SHL SUB DUP5 AND DUP2 MSTORE PUSH1 0x60 PUSH1 0x20 DUP3 ADD MSTORE PUSH1 0x0 PUSH2 0x1A61 PUSH1 0x60 DUP4 ADD DUP6 PUSH2 0x190C JUMP JUMPDEST SWAP1 POP DUP3 PUSH1 0x40 DUP4 ADD MSTORE SWAP5 SWAP4 POP POP POP POP JUMP JUMPDEST PUSH1 0x0 DUP1 PUSH1 0x0 PUSH1 0x40 DUP5 DUP7 SUB SLT ISZERO PUSH2 0x1A86 JUMPI PUSH1 0x0 DUP1 REVERT JUMPDEST DUP4 CALLDATALOAD PUSH1 0x1 PUSH1 0x1 PUSH1 0x40 SHL SUB DUP2 GT ISZERO PUSH2 0x1A9C JUMPI PUSH1 0x0 DUP1 REVERT JUMPDEST PUSH2 0x1AA8 DUP7 DUP3 DUP8 ADD PUSH2 0x1973 JUMP JUMPDEST SWAP1 SWAP5 POP SWAP3 POP PUSH2 0x1ABB SWAP1 POP PUSH1 0x20 DUP6 ADD PUSH2 0x18C4 JUMP JUMPDEST SWAP1 POP SWAP3 POP SWAP3 POP SWAP3 JUMP JUMPDEST PUSH1 0x1 DUP2 DUP2 SHR SWAP1 DUP3 AND DUP1 PUSH2 0x1AD8 JUMPI PUSH1 0x7F DUP3 AND SWAP2 POP JUMPDEST PUSH1 0x20 DUP3 LT DUP2 EQ ISZERO PUSH2 0x1AF9 JUMPI PUSH4 0x4E487B71 PUSH1 0xE0 SHL PUSH1 0x0 MSTORE PUSH1 0x22 PUSH1 0x4 MSTORE PUSH1 0x24 PUSH1 0x0 REVERT JUMPDEST POP SWAP2 SWAP1 POP JUMP JUMPDEST PUSH4 0x4E487B71 PUSH1 0xE0 SHL PUSH1 0x0 MSTORE PUSH1 0x12 PUSH1 0x4 MSTORE PUSH1 0x24 PUSH1 0x0 REVERT JUMPDEST PUSH1 0x0 DUP3 PUSH2 0x1B24 JUMPI PUSH2 0x1B24 PUSH2 0x1AFF JUMP JUMPDEST POP MOD SWAP1 JUMP JUMPDEST PUSH4 0x4E487B71 PUSH1 0xE0 SHL PUSH1 0x0 MSTORE PUSH1 0x11 PUSH1 0x4 MSTORE PUSH1 0x24 PUSH1 0x0 REVERT JUMPDEST PUSH1 0x0 DUP3 NOT DUP3 GT ISZERO PUSH2 0x1B52 JUMPI PUSH2 0x1B52 PUSH2 0x1B29 JUMP JUMPDEST POP ADD SWAP1 JUMP JUMPDEST PUSH1 0x0 DUP3 DUP3 LT ISZERO PUSH2 0x1B69 JUMPI PUSH2 0x1B69 PUSH2 0x1B29 JUMP JUMPDEST POP SUB SWAP1 JUMP JUMPDEST PUSH4 0x4E487B71 PUSH1 0xE0 SHL PUSH1 0x0 MSTORE PUSH1 0x32 PUSH1 0x4 MSTORE PUSH1 0x24 PUSH1 0x0 REVERT JUMPDEST PUSH1 0x0 PUSH1 0x0 NOT DUP3 EQ ISZERO PUSH2 0x1B98 JUMPI PUSH2 0x1B98 PUSH2 0x1B29 JUMP JUMPDEST POP PUSH1 0x1 ADD SWAP1 JUMP JUMPDEST PUSH1 0x0 DUP3 PUSH2 0x1BAE JUMPI PUSH2 0x1BAE PUSH2 0x1AFF JUMP JUMPDEST POP DIV SWAP1 JUMP JUMPDEST PUSH1 0x0 DUP2 PUSH1 0x0 NOT DIV DUP4 GT DUP3 ISZERO ISZERO AND ISZERO PUSH2 0x1BCD JUMPI PUSH2 0x1BCD PUSH2 0x1B29 JUMP JUMPDEST POP MUL SWAP1 JUMP JUMPDEST PUSH1 0x0 PUSH1 0x20 DUP1 DUP4 MSTORE PUSH1 0x0 DUP5 SLOAD DUP2 PUSH1 0x1 DUP3 DUP2 SHR SWAP2 POP DUP1 DUP4 AND DUP1 PUSH2 0x1BF4 JUMPI PUSH1 0x7F DUP4 AND SWAP3 POP JUMPDEST DUP6 DUP4 LT DUP2 EQ ISZERO PUSH2 0x1C12 JUMPI PUSH4 0x4E487B71 PUSH1 0xE0 SHL DUP6 MSTORE PUSH1 0x22 PUSH1 0x4 MSTORE PUSH1 0x24 DUP6 REVERT JUMPDEST DUP8 DUP7 ADD DUP4 DUP2 MSTORE PUSH1 0x20 ADD DUP2 DUP1 ISZERO PUSH2 0x1C2F JUMPI PUSH1 0x1 DUP2 EQ PUSH2 0x1C40 JUMPI PUSH2 0x1C6B JUMP JUMPDEST PUSH1 0xFF NOT DUP7 AND DUP3 MSTORE DUP8 DUP3 ADD SWAP7 POP PUSH2 0x1C6B JUMP JUMPDEST PUSH1 0x0 DUP12 DUP2 MSTORE PUSH1 0x20 SWAP1 KECCAK256 PUSH1 0x0 JUMPDEST DUP7 DUP2 LT ISZERO PUSH2 0x1C65 JUMPI DUP2 SLOAD DUP5 DUP3 ADD MSTORE SWAP1 DUP6 ADD SWAP1 DUP10 ADD PUSH2 0x1C4C JUMP JUMPDEST DUP4 ADD SWAP8 POP POP JUMPDEST POP SWAP5 SWAP10 SWAP9 POP POP POP POP POP POP POP POP POP JUMP JUMPDEST DUP2 DUP4 DUP3 CALLDATACOPY PUSH1 0x0 SWAP2 ADD SWAP1 DUP2 MSTORE SWAP2 SWAP1 POP JUMP JUMPDEST PUSH1 0x0 DUP1 DUP6 DUP6 GT ISZERO PUSH2 0x1C9A JUMPI PUSH1 0x0 DUP1 REVERT JUMPDEST DUP4 DUP7 GT ISZERO PUSH2 0x1CA7 JUMPI PUSH1 0x0 DUP1 REVERT JUMPDEST POP POP DUP3 ADD SWAP4 SWAP2 SWAP1 SWAP3 SUB SWAP2 POP JUMP INVALID LOG2 PUSH5 0x6970667358 0x22 SLT KECCAK256 0xF6 0x4F DUP2 0xB9 BLOCKHASH 0x1E DUP7 CALLDATASIZE PUSH24 0xEAFE7C7A2AFC1BF84B6131FB25288322661DFCA69D957F64 PUSH20 0x6F6C634300080900330000000000000000000000 "
        },
        "methodIdentifiers": {
          "clearSplitProof()": "ae364ac2",
          "getPreimagePart(bytes32,uint64)": "740085d7",
          "keccakStates(address)": "b7465799",
          "proveWithFullPreimage(bytes,uint64)": "d4e5dd2b",
          "proveWithSplitPreimage(bytes,uint64,uint256)": "79754cba"
        }
      }
    }
  }
}