{
  "src/test-helpers/CryptographyPrimitivesTester.sol": {
    "CryptographyPrimitivesTester": {
      "abi": [
        {
          "inputs": [
            {
              "internalType": "uint256[25]",
              "name": "input",
              "type": "uint256[25]"
            }
          ],
          "name": "keccakF",
          "outputs": [
            {
              "internalType": "uint256[25]",
              "name": "",
              "type": "uint256[25]"
            }
          ],
          "stateMutability": "pure",
          "type": "function"
        },
        {
          "inputs": [
            {
              "internalType": "bytes32[2]",
              "name": "inputChunk",
              "type": "bytes32[2]"
            },
            {
              "internalType": "bytes32",
              "name": "hashState",
              "type": "bytes32"
            }
          ],
          "name": "sha256Block",
          "outputs": [
            {
              "internalType": "bytes32",
              "name": "",
              "type": "bytes32"
            }
          ],
          "stateMutability": "pure",
          "type": "function"
        }
      ],
      "evm": {
        "bytecode": {
          "linkReferences": {},
          "object": "6116e861003a600b82828239805160001a60731461002d57634e487b7160e01b600052600060045260246000fd5b30600052607381538281f3fe73000000000000000000000000000000000000000030146080604052600436106100405760003560e01c8063ac90ed4614610045578063e479f5321461006e575b600080fd5b610058610053366004611503565b61008f565b604051610065919061158f565b60405180910390f35b61008161007c3660046115c1565b6100a6565b604051908152602001610065565b610097611488565b6100a0826100e9565b92915050565b60006100e26040518060400160405280856000600281106100c9576100c9611653565b6020908102919091015182528681015191015283610ce3565b9392505050565b6100f1611488565b6100f96114a7565b6101016114a7565b610109611488565b600060405180610300016040528060018152602001618082815260200167800000000000808a8152602001678000000080008000815260200161808b81526020016380000001815260200167800000008000808181526020016780000000000080098152602001608a81526020016088815260200163800080098152602001638000000a8152602001638000808b815260200167800000000000008b8152602001678000000000008089815260200167800000000000800381526020016780000000000080028152602001678000000000000080815260200161800a815260200167800000008000000a81526020016780000000800080818152602001678000000000008080815260200163800000018152602001678000000080008008815250905060005b6018811015610cd8576080878101516060808a01516040808c01516020808e01518e511890911890921890931889526101208b01516101008c015160e08d015160c08e015160a08f0151181818189089018190526101c08b01516101a08c01516101808d01516101608e01516101408f0151181818189289019283526102608b01516102408c01516102208d01516102008e01516101e08f015118181818918901919091526103008a01516102e08b01516102c08c01516102a08d01516102808e0151181818189288018390526001600160401b0360028202166001603f1b91829004179092188652510485600260200201516002026001600160401b03161785600060200201511884600160200201526001603f1b85600360200201518161035a5761035a611669565b0485600360200201516002026001600160401b03161785600160200201511884600260200201526001603f1b85600460200201518161039b5761039b611669565b0485600460200201516002026001600160401b031617856002600581106103c4576103c4611653565b602002015118606085015284516001603f1b9086516060808901519390920460029091026001600160401b031617909118608086810191825286518a5118808b5287516020808d018051909218825289516040808f0180519092189091528a518e8801805190911890528a51948e0180519095189094528901805160a08e0180519091189052805160c08e0180519091189052805160e08e018051909118905280516101008e0180519091189052516101208d018051909118905291880180516101408d018051909118905280516101608d018051909118905280516101808d018051909118905280516101a08d0180519091189052516101c08c018051909118905292870180516101e08c018051909118905280516102008c018051909118905280516102208c018051909118905280516102408c0180519091189052516102608b018051909118905281516102808b018051909118905281516102a08b018051909118905281516102c08b018051909118905281516102e08b018051909118905290516103008a01805190911890529084525163100000009060208901516001600160401b03641000000000909102169190041761010084015260408701516001603d1b9060408901516001600160401b03600890910216919004176101608401526060870151628000009060608901516001600160401b036502000000000090910216919004176102608401526080870151654000000000009060808901516001600160401b036204000090910216919004176102c084015260a08701516001603f1b900487600560200201516002026001600160401b0316178360026019811061063457610634611653565b602002015260c08701516210000081046001602c1b9091026001600160401b039081169190911760a085015260e0880151664000000000000081046104009091028216176101a08501526101008801516208000081046520000000000090910282161761020085015261012088015160048082029092166001603e1b909104176103008501526101408801516101408901516001600160401b036001603e1b909102169190041760808401526101608701516001603a1b906101608901516001600160401b036040909102169190041760e084015261018087015162200000906101808901516001600160401b036001602b1b90910216919004176101408401526101a08701516602000000000000906101a08901516001600160401b0361800090910216919004176102408401526101c08701516008906101c08901516001600160401b036001603d1b90910216919004176102a08401526101e0870151641000000000906101e08901516001600160401b03631000000090910216919004176020840152610200808801516102008901516001600160401b0366800000000000009091021691900417610120840152610220870151648000000000906102208901516001600160401b03630200000090910216919004176101808401526102408701516001602b1b906102408901516001600160401b036220000090910216919004176101e0840152610260870151610100906102608901516001600160401b03600160381b90910216919004176102e0840152610280870151642000000000906102808901516001600160401b036308000000909102169190041760608401526102a08701516001602c1b906102a08901516001600160401b0362100000909102169190041760c08401526102c08701516302000000906102c08901516001600160401b0364800000000090910216919004176101c08401526102e0870151600160381b906102e08901516001600160401b036101009091021691900417610220840152610300870151660400000000000090048760186020020151614000026001600160401b031617836014602002015282600a602002015183600560200201511916836000602002015118876000602002015282600b602002015183600660200201511916836001602002015118876001602002015282600c602002015183600760200201511916836002602002015118876002602002015282600d602002015183600860200201511916836003602002015118876003602002015282600e602002015183600960200201511916836004602002015118876004602002015282600f602002015183600a602002015119168360056020020151188760056020020152826010602002015183600b602002015119168360066020020151188760066020020152826011602002015183600c602002015119168360076020020151188760076020020152826012602002015183600d602002015119168360086020020151188760086020020152826013602002015183600e602002015119168360096020020151188760096020020152826014602002015183600f6020020151191683600a60200201511887600a602002015282601560200201518360106020020151191683600b60200201511887600b602002015282601660200201518360116020020151191683600c60200201511887600c602002015282601760200201518360126020020151191683600d60200201511887600d602002015282601860200201518360136020020151191683600e60200201511887600e602002015282600060200201518360146020020151191683600f60200201511887600f6020020152826001602002015183601560200201511916836010602002015118876010602002015282600260200201518360166020020151191683601160200201511887601160200201528260036020020151836017602002015119168360126020020151188760126020020152826004602002015183601860200201511916836013602002015118876013602002015282600560200201518360006020020151191683601460200201511887601460200201528260066020020151836001602002015119168360156020020151188760156020020152826007602002015183600260200201511916836016602002015118876016602002015282600860200201518360036020020151191683601760200201511887601760200201528260096020020151836004602002015119168360186020020151188760186020020152818160188110610cc657610cc6611653565b6020020151875118875260010161022f565b509495945050505050565b604080516108008101825263428a2f9881526371374491602082015263b5c0fbcf9181019190915263e9b5dba56060820152633956c25b60808201526359f111f160a082015263923f82a460c082015263ab1c5ed560e082015263d807aa986101008201526312835b0161012082015263243185be61014082015263550c7dc36101608201526372be5d746101808201526380deb1fe6101a0820152639bdc06a76101c082015263c19bf1746101e082015263e49b69c161020082015263efbe4786610220820152630fc19dc661024082015263240ca1cc610260820152632de92c6f610280820152634a7484aa6102a0820152635cb0a9dc6102c08201526376f988da6102e082015263983e515261030082015263a831c66d61032082015263b00327c861034082015263bf597fc761036082015263c6e00bf361038082015263d5a791476103a08201526306ca63516103c082015263142929676103e08201526327b70a85610400820152632e1b2138610420820152634d2c6dfc6104408201526353380d1361046082015263650a735461048082015263766a0abb6104a08201526381c2c92e6104c08201526392722c856104e082015263a2bfe8a161050082015263a81a664b61052082015263c24b8b7061054082015263c76c51a361056082015263d192e81961058082015263d69906246105a082015263f40e35856105c082015263106aa0706105e08201526319a4c116610600820152631e376c08610620820152632748774c6106408201526334b0bcb561066082015263391c0cb3610680820152634ed8aa4a6106a0820152635b9cca4f6106c082015263682e6ff36106e082015263748f82ee6107008201526378a5636f6107208201526384c87814610740820152638cc702086107608201526390befffa61078082015263a4506ceb6107a082015263bef9a3f76107c082015263c67178f26107e0820152600090610fb06114c5565b60005b60088163ffffffff1610156110495763ffffffff6020820260e003168660006020020151901c828263ffffffff1660408110610ff157610ff1611653565b63ffffffff92831660209182029290920191909152820260e003168660016020020151901c828260080163ffffffff166040811061103157611031611653565b63ffffffff9092166020929092020152600101610fb3565b5060106000805b60408363ffffffff1610156111db57600384600f850363ffffffff166040811061107c5761107c611653565b602002015163ffffffff16901c6110b385600f860363ffffffff16604081106110a7576110a7611653565b60200201516012611453565b6110dd86600f870363ffffffff16604081106110d1576110d1611653565b60200201516007611453565b18189150600a846002850363ffffffff16604081106110fe576110fe611653565b602002015163ffffffff16901c611135856002860363ffffffff166040811061112957611129611653565b60200201516013611453565b61115f866002870363ffffffff166040811061115357611153611653565b60200201516011611453565b1818905080846007850363ffffffff166040811061117f5761117f611653565b602002015183866010870363ffffffff16604081106111a0576111a0611653565b6020020151010101848463ffffffff16604081106111c0576111c0611653565b63ffffffff9092166020929092020152600190920191611050565b6111e36114e4565b600093505b60088463ffffffff16101561123a578360200260e00363ffffffff1688901c818563ffffffff166008811061121f5761121f611653565b63ffffffff90921660209290920201526001909301926111e8565b60008060008096505b60408763ffffffff161015611396576080840151611262906019611453565b608085015161127290600b611453565b6080860151611282906006611453565b18189450878763ffffffff166040811061129e5761129e611653565b6020020151898863ffffffff16604081106112bb576112bb611653565b6020020151608086015160a087015160c08801518219169116188787600760200201510101010192506112f684600060200201516016611453565b845161130390600d611453565b8551611310906002611453565b6040870180516020890180518a5160c08c01805163ffffffff90811660e08f015260a08e018051821690925260808e018051821690925260608e0180518e01821690925280861690915280831690955284811690925280831891909116911618929091189290921881810186810190931687526001999099019897509092509050611243565b600096505b60088763ffffffff1610156113f0578660200260e00363ffffffff168b901c848863ffffffff16600881106113d2576113d2611653565b60200201805163ffffffff920191909116905260019096019561139b565b60008097505b60088863ffffffff161015611443578760200260e00363ffffffff16858963ffffffff166008811061142a5761142a611653565b602002015160019099019863ffffffff16901b176113f6565b9c9b505050505050505050505050565b600061146082602061167f565b63ffffffff168363ffffffff16901b8263ffffffff168463ffffffff16901c17905092915050565b6040518061032001604052806019906020820280368337509192915050565b6040518060a001604052806005906020820280368337509192915050565b6040518061080001604052806040906020820280368337509192915050565b6040518061010001604052806008906020820280368337509192915050565b600061032080838503121561151757600080fd5b83601f84011261152657600080fd5b6040518181018181106001600160401b038211171561155557634e487b7160e01b600052604160045260246000fd5b60405290830190808583111561156a57600080fd5b845b8381101561158457803582526020918201910161156c565b509095945050505050565b6103208101818360005b60198110156115b8578151835260209283019290910190600101611599565b50505092915050565b600080606083850312156115d457600080fd5b83601f8401126115e357600080fd5b604051604081018181106001600160401b038211171561161357634e487b7160e01b600052604160045260246000fd5b806040525080604085018681111561162a57600080fd5b855b8181101561164457803583526020928301920161162c565b50919691359550909350505050565b634e487b7160e01b600052603260045260246000fd5b634e487b7160e01b600052601260045260246000fd5b600063ffffffff838116908316818110156116aa57634e487b7160e01b600052601160045260246000fd5b03939250505056fea2646970667358221220ec07e6dc6754340b6210c84bd17cf10bf698d398418a92e490a0d44fdf3e67e364736f6c63430008090033",
          "opcodes": "PUSH2 0x16E8 PUSH2 0x3A PUSH1 0xB DUP3 DUP3 DUP3 CODECOPY DUP1 MLOAD PUSH1 0x0 BYTE PUSH1 0x73 EQ PUSH2 0x2D JUMPI PUSH4 0x4E487B71 PUSH1 0xE0 SHL PUSH1 0x0 MSTORE PUSH1 0x0 PUSH1 0x4 MSTORE PUSH1 0x24 PUSH1 0x0 REVERT JUMPDEST ADDRESS PUSH1 0x0 MSTORE PUSH1 0x73 DUP2 MSTORE8 DUP3 DUP2 RETURN INVALID PUSH20 0x0 ADDRESS EQ PUSH1 0x80 PUSH1 0x40 MSTORE PUSH1 0x4 CALLDATASIZE LT PUSH2 0x40 JUMPI PUSH1 0x0 CALLDATALOAD PUSH1 0xE0 SHR DUP1 PUSH4 0xAC90ED46 EQ PUSH2 0x45 JUMPI DUP1 PUSH4 0xE479F532 EQ PUSH2 0x6E JUMPI JUMPDEST PUSH1 0x0 DUP1 REVERT JUMPDEST PUSH2 0x58 PUSH2 0x53 CALLDATASIZE PUSH1 0x4 PUSH2 0x1503 JUMP JUMPDEST PUSH2 0x8F JUMP JUMPDEST PUSH1 0x40 MLOAD PUSH2 0x65 SWAP2 SWAP1 PUSH2 0x158F JUMP JUMPDEST PUSH1 0x40 MLOAD DUP1 SWAP2 SUB SWAP1 RETURN JUMPDEST PUSH2 0x81 PUSH2 0x7C CALLDATASIZE PUSH1 0x4 PUSH2 0x15C1 JUMP JUMPDEST PUSH2 0xA6 JUMP JUMPDEST PUSH1 0x40 MLOAD SWAP1 DUP2 MSTORE PUSH1 0x20 ADD PUSH2 0x65 JUMP JUMPDEST PUSH2 0x97 PUSH2 0x1488 JUMP JUMPDEST PUSH2 0xA0 DUP3 PUSH2 0xE9 JUMP JUMPDEST SWAP3 SWAP2 POP POP JUMP JUMPDEST PUSH1 0x0 PUSH2 0xE2 PUSH1 0x40 MLOAD DUP1 PUSH1 0x40 ADD PUSH1 0x40 MSTORE DUP1 DUP6 PUSH1 0x0 PUSH1 0x2 DUP2 LT PUSH2 0xC9 JUMPI PUSH2 0xC9 PUSH2 0x1653 JUMP JUMPDEST PUSH1 0x20 SWAP1 DUP2 MUL SWAP2 SWAP1 SWAP2 ADD MLOAD DUP3 MSTORE DUP7 DUP2 ADD MLOAD SWAP2 ADD MSTORE DUP4 PUSH2 0xCE3 JUMP JUMPDEST SWAP4 SWAP3 POP POP POP JUMP JUMPDEST PUSH2 0xF1 PUSH2 0x1488 JUMP JUMPDEST PUSH2 0xF9 PUSH2 0x14A7 JUMP JUMPDEST PUSH2 0x101 PUSH2 0x14A7 JUMP JUMPDEST PUSH2 0x109 PUSH2 0x1488 JUMP JUMPDEST PUSH1 0x0 PUSH1 0x40 MLOAD DUP1 PUSH2 0x300 ADD PUSH1 0x40 MSTORE DUP1 PUSH1 0x1 DUP2 MSTORE PUSH1 0x20 ADD PUSH2 0x8082 DUP2 MSTORE PUSH1 0x20 ADD PUSH8 0x800000000000808A DUP2 MSTORE PUSH1 0x20 ADD PUSH8 0x8000000080008000 DUP2 MSTORE PUSH1 0x20 ADD PUSH2 0x808B DUP2 MSTORE PUSH1 0x20 ADD PUSH4 0x80000001 DUP2 MSTORE PUSH1 0x20 ADD PUSH8 0x8000000080008081 DUP2 MSTORE PUSH1 0x20 ADD PUSH8 0x8000000000008009 DUP2 MSTORE PUSH1 0x20 ADD PUSH1 0x8A DUP2 MSTORE PUSH1 0x20 ADD PUSH1 0x88 DUP2 MSTORE PUSH1 0x20 ADD PUSH4 0x80008009 DUP2 MSTORE PUSH1 0x20 ADD PUSH4 0x8000000A DUP2 MSTORE PUSH1 0x20 ADD PUSH4 0x8000808B DUP2 MSTORE PUSH1 0x20 ADD PUSH8 0x800000000000008B DUP2 MSTORE PUSH1 0x20 ADD PUSH8 0x8000000000008089 DUP2 MSTORE PUSH1 0x20 ADD PUSH8 0x8000000000008003 DUP2 MSTORE PUSH1 0x20 ADD PUSH8 0x8000000000008002 DUP2 MSTORE PUSH1 0x20 ADD PUSH8 0x8000000000000080 DUP2 MSTORE PUSH1 0x20 ADD PUSH2 0x800A DUP2 MSTORE PUSH1 0x20 ADD PUSH8 0x800000008000000A DUP2 MSTORE PUSH1 0x20 ADD PUSH8 0x8000000080008081 DUP2 MSTORE PUSH1 0x20 ADD PUSH8 0x8000000000008080 DUP2 MSTORE PUSH1 0x20 ADD PUSH4 0x80000001 DUP2 MSTORE PUSH1 0x20 ADD PUSH8 0x8000000080008008 DUP2 MSTORE POP SWAP1 POP PUSH1 0x0 JUMPDEST PUSH1 0x18 DUP2 LT ISZERO PUSH2 0xCD8 JUMPI PUSH1 0x80 DUP8 DUP2 ADD MLOAD PUSH1 0x60 DUP1 DUP11 ADD MLOAD PUSH1 0x40 DUP1 DUP13 ADD MLOAD PUSH1 0x20 DUP1 DUP15 ADD MLOAD DUP15 MLOAD XOR SWAP1 SWAP2 XOR SWAP1 SWAP3 XOR SWAP1 SWAP4 XOR DUP10 MSTORE PUSH2 0x120 DUP12 ADD MLOAD PUSH2 0x100 DUP13 ADD MLOAD PUSH1 0xE0 DUP14 ADD MLOAD PUSH1 0xC0 DUP15 ADD MLOAD PUSH1 0xA0 DUP16 ADD MLOAD XOR XOR XOR XOR SWAP1 DUP10 ADD DUP2 SWAP1 MSTORE PUSH2 0x1C0 DUP12 ADD MLOAD PUSH2 0x1A0 DUP13 ADD MLOAD PUSH2 0x180 DUP14 ADD MLOAD PUSH2 0x160 DUP15 ADD MLOAD PUSH2 0x140 DUP16 ADD MLOAD XOR XOR XOR XOR SWAP3 DUP10 ADD SWAP3 DUP4 MSTORE PUSH2 0x260 DUP12 ADD MLOAD PUSH2 0x240 DUP13 ADD MLOAD PUSH2 0x220 DUP14 ADD MLOAD PUSH2 0x200 DUP15 ADD MLOAD PUSH2 0x1E0 DUP16 ADD MLOAD XOR XOR XOR XOR SWAP2 DUP10 ADD SWAP2 SWAP1 SWAP2 MSTORE PUSH2 0x300 DUP11 ADD MLOAD PUSH2 0x2E0 DUP12 ADD MLOAD PUSH2 0x2C0 DUP13 ADD MLOAD PUSH2 0x2A0 DUP14 ADD MLOAD PUSH2 0x280 DUP15 ADD MLOAD XOR XOR XOR XOR SWAP3 DUP9 ADD DUP4 SWAP1 MSTORE PUSH1 0x1 PUSH1 0x1 PUSH1 0x40 SHL SUB PUSH1 0x2 DUP3 MUL AND PUSH1 0x1 PUSH1 0x3F SHL SWAP2 DUP3 SWAP1 DIV OR SWAP1 SWAP3 XOR DUP7 MSTORE MLOAD DIV DUP6 PUSH1 0x2 PUSH1 0x20 MUL ADD MLOAD PUSH1 0x2 MUL PUSH1 0x1 PUSH1 0x1 PUSH1 0x40 SHL SUB AND OR DUP6 PUSH1 0x0 PUSH1 0x20 MUL ADD MLOAD XOR DUP5 PUSH1 0x1 PUSH1 0x20 MUL ADD MSTORE PUSH1 0x1 PUSH1 0x3F SHL DUP6 PUSH1 0x3 PUSH1 0x20 MUL ADD MLOAD DUP2 PUSH2 0x35A JUMPI PUSH2 0x35A PUSH2 0x1669 JUMP JUMPDEST DIV DUP6 PUSH1 0x3 PUSH1 0x20 MUL ADD MLOAD PUSH1 0x2 MUL PUSH1 0x1 PUSH1 0x1 PUSH1 0x40 SHL SUB AND OR DUP6 PUSH1 0x1 PUSH1 0x20 MUL ADD MLOAD XOR DUP5 PUSH1 0x2 PUSH1 0x20 MUL ADD MSTORE PUSH1 0x1 PUSH1 0x3F SHL DUP6 PUSH1 0x4 PUSH1 0x20 MUL ADD MLOAD DUP2 PUSH2 0x39B JUMPI PUSH2 0x39B PUSH2 0x1669 JUMP JUMPDEST DIV DUP6 PUSH1 0x4 PUSH1 0x20 MUL ADD MLOAD PUSH1 0x2 MUL PUSH1 0x1 PUSH1 0x1 PUSH1 0x40 SHL SUB AND OR DUP6 PUSH1 0x2 PUSH1 0x5 DUP2 LT PUSH2 0x3C4 JUMPI PUSH2 0x3C4 PUSH2 0x1653 JUMP JUMPDEST PUSH1 0x20 MUL ADD MLOAD XOR PUSH1 0x60 DUP6 ADD MSTORE DUP5 MLOAD PUSH1 0x1 PUSH1 0x3F SHL SWAP1 DUP7 MLOAD PUSH1 0x60 DUP1 DUP10 ADD MLOAD SWAP4 SWAP1 SWAP3 DIV PUSH1 0x2 SWAP1 SWAP2 MUL PUSH1 0x1 PUSH1 0x1 PUSH1 0x40 SHL SUB AND OR SWAP1 SWAP2 XOR PUSH1 0x80 DUP7 DUP2 ADD SWAP2 DUP3 MSTORE DUP7 MLOAD DUP11 MLOAD XOR DUP1 DUP12 MSTORE DUP8 MLOAD PUSH1 0x20 DUP1 DUP14 ADD DUP1 MLOAD SWAP1 SWAP3 XOR DUP3 MSTORE DUP10 MLOAD PUSH1 0x40 DUP1 DUP16 ADD DUP1 MLOAD SWAP1 SWAP3 XOR SWAP1 SWAP2 MSTORE DUP11 MLOAD DUP15 DUP9 ADD DUP1 MLOAD SWAP1 SWAP2 XOR SWAP1 MSTORE DUP11 MLOAD SWAP5 DUP15 ADD DUP1 MLOAD SWAP1 SWAP6 XOR SWAP1 SWAP5 MSTORE DUP10 ADD DUP1 MLOAD PUSH1 0xA0 DUP15 ADD DUP1 MLOAD SWAP1 SWAP2 XOR SWAP1 MSTORE DUP1 MLOAD PUSH1 0xC0 DUP15 ADD DUP1 MLOAD SWAP1 SWAP2 XOR SWAP1 MSTORE DUP1 MLOAD PUSH1 0xE0 DUP15 ADD DUP1 MLOAD SWAP1 SWAP2 XOR SWAP1 MSTORE DUP1 MLOAD PUSH2 0x100 DUP15 ADD DUP1 MLOAD SWAP1 SWAP2 XOR SWAP1 MSTORE MLOAD PUSH2 0x120 DUP14 ADD DUP1 MLOAD SWAP1 SWAP2 XOR SWAP1 MSTORE SWAP2 DUP9 ADD DUP1 MLOAD PUSH2 0x140 DUP14 ADD DUP1 MLOAD SWAP1 SWAP2 XOR SWAP1 MSTORE DUP1 MLOAD PUSH2 0x160 DUP14 ADD DUP1 MLOAD SWAP1 SWAP2 XOR SWAP1 MSTORE DUP1 MLOAD PUSH2 0x180 DUP14 ADD DUP1 MLOAD SWAP1 SWAP2 XOR SWAP1 MSTORE DUP1 MLOAD PUSH2 0x1A0 DUP14 ADD DUP1 MLOAD SWAP1 SWAP2 XOR SWAP1 MSTORE MLOAD PUSH2 0x1C0 DUP13 ADD DUP1 MLOAD SWAP1 SWAP2 XOR SWAP1 MSTORE SWAP3 DUP8 ADD DUP1 MLOAD PUSH2 0x1E0 DUP13 ADD DUP1 MLOAD SWAP1 SWAP2 XOR SWAP1 MSTORE DUP1 MLOAD PUSH2 0x200 DUP13 ADD DUP1 MLOAD SWAP1 SWAP2 XOR SWAP1 MSTORE DUP1 MLOAD PUSH2 0x220 DUP13 ADD DUP1 MLOAD SWAP1 SWAP2 XOR SWAP1 MSTORE DUP1 MLOAD PUSH2 0x240 DUP13 ADD DUP1 MLOAD SWAP1 SWAP2 XOR SWAP1 MSTORE MLOAD PUSH2 0x260 DUP12 ADD DUP1 MLOAD SWAP1 SWAP2 XOR SWAP1 MSTORE DUP2 MLOAD PUSH2 0x280 DUP12 ADD DUP1 MLOAD SWAP1 SWAP2 XOR SWAP1 MSTORE DUP2 MLOAD PUSH2 0x2A0 DUP12 ADD DUP1 MLOAD SWAP1 SWAP2 XOR SWAP1 MSTORE DUP2 MLOAD PUSH2 0x2C0 DUP12 ADD DUP1 MLOAD SWAP1 SWAP2 XOR SWAP1 MSTORE DUP2 MLOAD PUSH2 0x2E0 DUP12 ADD DUP1 MLOAD SWAP1 SWAP2 XOR SWAP1 MSTORE SWAP1 MLOAD PUSH2 0x300 DUP11 ADD DUP1 MLOAD SWAP1 SWAP2 XOR SWAP1 MSTORE SWAP1 DUP5 MSTORE MLOAD PUSH4 0x10000000 SWAP1 PUSH1 0x20 DUP10 ADD MLOAD PUSH1 0x1 PUSH1 0x1 PUSH1 0x40 SHL SUB PUSH5 0x1000000000 SWAP1 SWAP2 MUL AND SWAP2 SWAP1 DIV OR PUSH2 0x100 DUP5 ADD MSTORE PUSH1 0x40 DUP8 ADD MLOAD PUSH1 0x1 PUSH1 0x3D SHL SWAP1 PUSH1 0x40 DUP10 ADD MLOAD PUSH1 0x1 PUSH1 0x1 PUSH1 0x40 SHL SUB PUSH1 0x8 SWAP1 SWAP2 MUL AND SWAP2 SWAP1 DIV OR PUSH2 0x160 DUP5 ADD MSTORE PUSH1 0x60 DUP8 ADD MLOAD PUSH3 0x800000 SWAP1 PUSH1 0x60 DUP10 ADD MLOAD PUSH1 0x1 PUSH1 0x1 PUSH1 0x40 SHL SUB PUSH6 0x20000000000 SWAP1 SWAP2 MUL AND SWAP2 SWAP1 DIV OR PUSH2 0x260 DUP5 ADD MSTORE PUSH1 0x80 DUP8 ADD MLOAD PUSH6 0x400000000000 SWAP1 PUSH1 0x80 DUP10 ADD MLOAD PUSH1 0x1 PUSH1 0x1 PUSH1 0x40 SHL SUB PUSH3 0x40000 SWAP1 SWAP2 MUL AND SWAP2 SWAP1 DIV OR PUSH2 0x2C0 DUP5 ADD MSTORE PUSH1 0xA0 DUP8 ADD MLOAD PUSH1 0x1 PUSH1 0x3F SHL SWAP1 DIV DUP8 PUSH1 0x5 PUSH1 0x20 MUL ADD MLOAD PUSH1 0x2 MUL PUSH1 0x1 PUSH1 0x1 PUSH1 0x40 SHL SUB AND OR DUP4 PUSH1 0x2 PUSH1 0x19 DUP2 LT PUSH2 0x634 JUMPI PUSH2 0x634 PUSH2 0x1653 JUMP JUMPDEST PUSH1 0x20 MUL ADD MSTORE PUSH1 0xC0 DUP8 ADD MLOAD PUSH3 0x100000 DUP2 DIV PUSH1 0x1 PUSH1 0x2C SHL SWAP1 SWAP2 MUL PUSH1 0x1 PUSH1 0x1 PUSH1 0x40 SHL SUB SWAP1 DUP2 AND SWAP2 SWAP1 SWAP2 OR PUSH1 0xA0 DUP6 ADD MSTORE PUSH1 0xE0 DUP9 ADD MLOAD PUSH7 0x40000000000000 DUP2 DIV PUSH2 0x400 SWAP1 SWAP2 MUL DUP3 AND OR PUSH2 0x1A0 DUP6 ADD MSTORE PUSH2 0x100 DUP9 ADD MLOAD PUSH3 0x80000 DUP2 DIV PUSH6 0x200000000000 SWAP1 SWAP2 MUL DUP3 AND OR PUSH2 0x200 DUP6 ADD MSTORE PUSH2 0x120 DUP9 ADD MLOAD PUSH1 0x4 DUP1 DUP3 MUL SWAP1 SWAP3 AND PUSH1 0x1 PUSH1 0x3E SHL SWAP1 SWAP2 DIV OR PUSH2 0x300 DUP6 ADD MSTORE PUSH2 0x140 DUP9 ADD MLOAD PUSH2 0x140 DUP10 ADD MLOAD PUSH1 0x1 PUSH1 0x1 PUSH1 0x40 SHL SUB PUSH1 0x1 PUSH1 0x3E SHL SWAP1 SWAP2 MUL AND SWAP2 SWAP1 DIV OR PUSH1 0x80 DUP5 ADD MSTORE PUSH2 0x160 DUP8 ADD MLOAD PUSH1 0x1 PUSH1 0x3A SHL SWAP1 PUSH2 0x160 DUP10 ADD MLOAD PUSH1 0x1 PUSH1 0x1 PUSH1 0x40 SHL SUB PUSH1 0x40 SWAP1 SWAP2 MUL AND SWAP2 SWAP1 DIV OR PUSH1 0xE0 DUP5 ADD MSTORE PUSH2 0x180 DUP8 ADD MLOAD PUSH3 0x200000 SWAP1 PUSH2 0x180 DUP10 ADD MLOAD PUSH1 0x1 PUSH1 0x1 PUSH1 0x40 SHL SUB PUSH1 0x1 PUSH1 0x2B SHL SWAP1 SWAP2 MUL AND SWAP2 SWAP1 DIV OR PUSH2 0x140 DUP5 ADD MSTORE PUSH2 0x1A0 DUP8 ADD MLOAD PUSH7 0x2000000000000 SWAP1 PUSH2 0x1A0 DUP10 ADD MLOAD PUSH1 0x1 PUSH1 0x1 PUSH1 0x40 SHL SUB PUSH2 0x8000 SWAP1 SWAP2 MUL AND SWAP2 SWAP1 DIV OR PUSH2 0x240 DUP5 ADD MSTORE PUSH2 0x1C0 DUP8 ADD MLOAD PUSH1 0x8 SWAP1 PUSH2 0x1C0 DUP10 ADD MLOAD PUSH1 0x1 PUSH1 0x1 PUSH1 0x40 SHL SUB PUSH1 0x1 PUSH1 0x3D SHL SWAP1 SWAP2 MUL AND SWAP2 SWAP1 DIV OR PUSH2 0x2A0 DUP5 ADD MSTORE PUSH2 0x1E0 DUP8 ADD MLOAD PUSH5 0x1000000000 SWAP1 PUSH2 0x1E0 DUP10 ADD MLOAD PUSH1 0x1 PUSH1 0x1 PUSH1 0x40 SHL SUB PUSH4 0x10000000 SWAP1 SWAP2 MUL AND SWAP2 SWAP1 DIV OR PUSH1 0x20 DUP5 ADD MSTORE PUSH2 0x200 DUP1 DUP9 ADD MLOAD PUSH2 0x200 DUP10 ADD MLOAD PUSH1 0x1 PUSH1 0x1 PUSH1 0x40 SHL SUB PUSH7 0x80000000000000 SWAP1 SWAP2 MUL AND SWAP2 SWAP1 DIV OR PUSH2 0x120 DUP5 ADD MSTORE PUSH2 0x220 DUP8 ADD MLOAD PUSH5 0x8000000000 SWAP1 PUSH2 0x220 DUP10 ADD MLOAD PUSH1 0x1 PUSH1 0x1 PUSH1 0x40 SHL SUB PUSH4 0x2000000 SWAP1 SWAP2 MUL AND SWAP2 SWAP1 DIV OR PUSH2 0x180 DUP5 ADD MSTORE PUSH2 0x240 DUP8 ADD MLOAD PUSH1 0x1 PUSH1 0x2B SHL SWAP1 PUSH2 0x240 DUP10 ADD MLOAD PUSH1 0x1 PUSH1 0x1 PUSH1 0x40 SHL SUB PUSH3 0x200000 SWAP1 SWAP2 MUL AND SWAP2 SWAP1 DIV OR PUSH2 0x1E0 DUP5 ADD MSTORE PUSH2 0x260 DUP8 ADD MLOAD PUSH2 0x100 SWAP1 PUSH2 0x260 DUP10 ADD MLOAD PUSH1 0x1 PUSH1 0x1 PUSH1 0x40 SHL SUB PUSH1 0x1 PUSH1 0x38 SHL SWAP1 SWAP2 MUL AND SWAP2 SWAP1 DIV OR PUSH2 0x2E0 DUP5 ADD MSTORE PUSH2 0x280 DUP8 ADD MLOAD PUSH5 0x2000000000 SWAP1 PUSH2 0x280 DUP10 ADD MLOAD PUSH1 0x1 PUSH1 0x1 PUSH1 0x40 SHL SUB PUSH4 0x8000000 SWAP1 SWAP2 MUL AND SWAP2 SWAP1 DIV OR PUSH1 0x60 DUP5 ADD MSTORE PUSH2 0x2A0 DUP8 ADD MLOAD PUSH1 0x1 PUSH1 0x2C SHL SWAP1 PUSH2 0x2A0 DUP10 ADD MLOAD PUSH1 0x1 PUSH1 0x1 PUSH1 0x40 SHL SUB PUSH3 0x100000 SWAP1 SWAP2 MUL AND SWAP2 SWAP1 DIV OR PUSH1 0xC0 DUP5 ADD MSTORE PUSH2 0x2C0 DUP8 ADD MLOAD PUSH4 0x2000000 SWAP1 PUSH2 0x2C0 DUP10 ADD MLOAD PUSH1 0x1 PUSH1 0x1 PUSH1 0x40 SHL SUB PUSH5 0x8000000000 SWAP1 SWAP2 MUL AND SWAP2 SWAP1 DIV OR PUSH2 0x1C0 DUP5 ADD MSTORE PUSH2 0x2E0 DUP8 ADD MLOAD PUSH1 0x1 PUSH1 0x38 SHL SWAP1 PUSH2 0x2E0 DUP10 ADD MLOAD PUSH1 0x1 PUSH1 0x1 PUSH1 0x40 SHL SUB PUSH2 0x100 SWAP1 SWAP2 MUL AND SWAP2 SWAP1 DIV OR PUSH2 0x220 DUP5 ADD MSTORE PUSH2 0x300 DUP8 ADD MLOAD PUSH7 0x4000000000000 SWAP1 DIV DUP8 PUSH1 0x18 PUSH1 0x20 MUL ADD MLOAD PUSH2 0x4000 MUL PUSH1 0x1 PUSH1 0x1 PUSH1 0x40 SHL SUB AND OR DUP4 PUSH1 0x14 PUSH1 0x20 MUL ADD MSTORE DUP3 PUSH1 0xA PUSH1 0x20 MUL ADD MLOAD DUP4 PUSH1 0x5 PUSH1 0x20 MUL ADD MLOAD NOT AND DUP4 PUSH1 0x0 PUSH1 0x20 MUL ADD MLOAD XOR DUP8 PUSH1 0x0 PUSH1 0x20 MUL ADD MSTORE DUP3 PUSH1 0xB PUSH1 0x20 MUL ADD MLOAD DUP4 PUSH1 0x6 PUSH1 0x20 MUL ADD MLOAD NOT AND DUP4 PUSH1 0x1 PUSH1 0x20 MUL ADD MLOAD XOR DUP8 PUSH1 0x1 PUSH1 0x20 MUL ADD MSTORE DUP3 PUSH1 0xC PUSH1 0x20 MUL ADD MLOAD DUP4 PUSH1 0x7 PUSH1 0x20 MUL ADD MLOAD NOT AND DUP4 PUSH1 0x2 PUSH1 0x20 MUL ADD MLOAD XOR DUP8 PUSH1 0x2 PUSH1 0x20 MUL ADD MSTORE DUP3 PUSH1 0xD PUSH1 0x20 MUL ADD MLOAD DUP4 PUSH1 0x8 PUSH1 0x20 MUL ADD MLOAD NOT AND DUP4 PUSH1 0x3 PUSH1 0x20 MUL ADD MLOAD XOR DUP8 PUSH1 0x3 PUSH1 0x20 MUL ADD MSTORE DUP3 PUSH1 0xE PUSH1 0x20 MUL ADD MLOAD DUP4 PUSH1 0x9 PUSH1 0x20 MUL ADD MLOAD NOT AND DUP4 PUSH1 0x4 PUSH1 0x20 MUL ADD MLOAD XOR DUP8 PUSH1 0x4 PUSH1 0x20 MUL ADD MSTORE DUP3 PUSH1 0xF PUSH1 0x20 MUL ADD MLOAD DUP4 PUSH1 0xA PUSH1 0x20 MUL ADD MLOAD NOT AND DUP4 PUSH1 0x5 PUSH1 0x20 MUL ADD MLOAD XOR DUP8 PUSH1 0x5 PUSH1 0x20 MUL ADD MSTORE DUP3 PUSH1 0x10 PUSH1 0x20 MUL ADD MLOAD DUP4 PUSH1 0xB PUSH1 0x20 MUL ADD MLOAD NOT AND DUP4 PUSH1 0x6 PUSH1 0x20 MUL ADD MLOAD XOR DUP8 PUSH1 0x6 PUSH1 0x20 MUL ADD MSTORE DUP3 PUSH1 0x11 PUSH1 0x20 MUL ADD MLOAD DUP4 PUSH1 0xC PUSH1 0x20 MUL ADD MLOAD NOT AND DUP4 PUSH1 0x7 PUSH1 0x20 MUL ADD MLOAD XOR DUP8 PUSH1 0x7 PUSH1 0x20 MUL ADD MSTORE DUP3 PUSH1 0x12 PUSH1 0x20 MUL ADD MLOAD DUP4 PUSH1 0xD PUSH1 0x20 MUL ADD MLOAD NOT AND DUP4 PUSH1 0x8 PUSH1 0x20 MUL ADD MLOAD XOR DUP8 PUSH1 0x8 PUSH1 0x20 MUL ADD MSTORE DUP3 PUSH1 0x13 PUSH1 0x20 MUL ADD MLOAD DUP4 PUSH1 0xE PUSH1 0x20 MUL ADD MLOAD NOT AND DUP4 PUSH1 0x9 PUSH1 0x20 MUL ADD MLOAD XOR DUP8 PUSH1 0x9 PUSH1 0x20 MUL ADD MSTORE DUP3 PUSH1 0x14 PUSH1 0x20 MUL ADD MLOAD DUP4 PUSH1 0xF PUSH1 0x20 MUL ADD MLOAD NOT AND DUP4 PUSH1 0xA PUSH1 0x20 MUL ADD MLOAD XOR DUP8 PUSH1 0xA PUSH1 0x20 MUL ADD MSTORE DUP3 PUSH1 0x15 PUSH1 0x20 MUL ADD MLOAD DUP4 PUSH1 0x10 PUSH1 0x20 MUL ADD MLOAD NOT AND DUP4 PUSH1 0xB PUSH1 0x20 MUL ADD MLOAD XOR DUP8 PUSH1 0xB PUSH1 0x20 MUL ADD MSTORE DUP3 PUSH1 0x16 PUSH1 0x20 MUL ADD MLOAD DUP4 PUSH1 0x11 PUSH1 0x20 MUL ADD MLOAD NOT AND DUP4 PUSH1 0xC PUSH1 0x20 MUL ADD MLOAD XOR DUP8 PUSH1 0xC PUSH1 0x20 MUL ADD MSTORE DUP3 PUSH1 0x17 PUSH1 0x20 MUL ADD MLOAD DUP4 PUSH1 0x12 PUSH1 0x20 MUL ADD MLOAD NOT AND DUP4 PUSH1 0xD PUSH1 0x20 MUL ADD MLOAD XOR DUP8 PUSH1 0xD PUSH1 0x20 MUL ADD MSTORE DUP3 PUSH1 0x18 PUSH1 0x20 MUL ADD MLOAD DUP4 PUSH1 0x13 PUSH1 0x20 MUL ADD MLOAD NOT AND DUP4 PUSH1 0xE PUSH1 0x20 MUL ADD MLOAD XOR DUP8 PUSH1 0xE PUSH1 0x20 MUL ADD MSTORE DUP3 PUSH1 0x0 PUSH1 0x20 MUL ADD MLOAD DUP4 PUSH1 0x14 PUSH1 0x20 MUL ADD MLOAD NOT AND DUP4 PUSH1 0xF PUSH1 0x20 MUL ADD MLOAD XOR DUP8 PUSH1 0xF PUSH1 0x20 MUL ADD MSTORE DUP3 PUSH1 0x1 PUSH1 0x20 MUL ADD MLOAD DUP4 PUSH1 0x15 PUSH1 0x20 MUL ADD MLOAD NOT AND DUP4 PUSH1 0x10 PUSH1 0x20 MUL ADD MLOAD XOR DUP8 PUSH1 0x10 PUSH1 0x20 MUL ADD MSTORE DUP3 PUSH1 0x2 PUSH1 0x20 MUL ADD MLOAD DUP4 PUSH1 0x16 PUSH1 0x20 MUL ADD MLOAD NOT AND DUP4 PUSH1 0x11 PUSH1 0x20 MUL ADD MLOAD XOR DUP8 PUSH1 0x11 PUSH1 0x20 MUL ADD MSTORE DUP3 PUSH1 0x3 PUSH1 0x20 MUL ADD MLOAD DUP4 PUSH1 0x17 PUSH1 0x20 MUL ADD MLOAD NOT AND DUP4 PUSH1 0x12 PUSH1 0x20 MUL ADD MLOAD XOR DUP8 PUSH1 0x12 PUSH1 0x20 MUL ADD MSTORE DUP3 PUSH1 0x4 PUSH1 0x20 MUL ADD MLOAD DUP4 PUSH1 0x18 PUSH1 0x20 MUL ADD MLOAD NOT AND DUP4 PUSH1 0x13 PUSH1 0x20 MUL ADD MLOAD XOR DUP8 PUSH1 0x13 PUSH1 0x20 MUL ADD MSTORE DUP3 PUSH1 0x5 PUSH1 0x20 MUL ADD MLOAD DUP4 PUSH1 0x0 PUSH1 0x20 MUL ADD MLOAD NOT AND DUP4 PUSH1 0x14 PUSH1 0x20 MUL ADD MLOAD XOR DUP8 PUSH1 0x14 PUSH1 0x20 MUL ADD MSTORE DUP3 PUSH1 0x6 PUSH1 0x20 MUL ADD MLOAD DUP4 PUSH1 0x1 PUSH1 0x20 MUL ADD MLOAD NOT AND DUP4 PUSH1 0x15 PUSH1 0x20 MUL ADD MLOAD XOR DUP8 PUSH1 0x15 PUSH1 0x20 MUL ADD MSTORE DUP3 PUSH1 0x7 PUSH1 0x20 MUL ADD MLOAD DUP4 PUSH1 0x2 PUSH1 0x20 MUL ADD MLOAD NOT AND DUP4 PUSH1 0x16 PUSH1 0x20 MUL ADD MLOAD XOR DUP8 PUSH1 0x16 PUSH1 0x20 MUL ADD MSTORE DUP3 PUSH1 0x8 PUSH1 0x20 MUL ADD MLOAD DUP4 PUSH1 0x3 PUSH1 0x20 MUL ADD MLOAD NOT AND DUP4 PUSH1 0x17 PUSH1 0x20 MUL ADD MLOAD XOR DUP8 PUSH1 0x17 PUSH1 0x20 MUL ADD MSTORE DUP3 PUSH1 0x9 PUSH1 0x20 MUL ADD MLOAD DUP4 PUSH1 0x4 PUSH1 0x20 MUL ADD MLOAD NOT AND DUP4 PUSH1 0x18 PUSH1 0x20 MUL ADD MLOAD XOR DUP8 PUSH1 0x18 PUSH1 0x20 MUL ADD MSTORE DUP2 DUP2 PUSH1 0x18 DUP2 LT PUSH2 0xCC6 JUMPI PUSH2 0xCC6 PUSH2 0x1653 JUMP JUMPDEST PUSH1 0x20 MUL ADD MLOAD DUP8 MLOAD XOR DUP8 MSTORE PUSH1 0x1 ADD PUSH2 0x22F JUMP JUMPDEST POP SWAP5 SWAP6 SWAP5 POP POP POP POP POP JUMP JUMPDEST PUSH1 0x40 DUP1 MLOAD PUSH2 0x800 DUP2 ADD DUP3 MSTORE PUSH4 0x428A2F98 DUP2 MSTORE PUSH4 0x71374491 PUSH1 0x20 DUP3 ADD MSTORE PUSH4 0xB5C0FBCF SWAP2 DUP2 ADD SWAP2 SWAP1 SWAP2 MSTORE PUSH4 0xE9B5DBA5 PUSH1 0x60 DUP3 ADD MSTORE PUSH4 0x3956C25B PUSH1 0x80 DUP3 ADD MSTORE PUSH4 0x59F111F1 PUSH1 0xA0 DUP3 ADD MSTORE PUSH4 0x923F82A4 PUSH1 0xC0 DUP3 ADD MSTORE PUSH4 0xAB1C5ED5 PUSH1 0xE0 DUP3 ADD MSTORE PUSH4 0xD807AA98 PUSH2 0x100 DUP3 ADD MSTORE PUSH4 0x12835B01 PUSH2 0x120 DUP3 ADD MSTORE PUSH4 0x243185BE PUSH2 0x140 DUP3 ADD MSTORE PUSH4 0x550C7DC3 PUSH2 0x160 DUP3 ADD MSTORE PUSH4 0x72BE5D74 PUSH2 0x180 DUP3 ADD MSTORE PUSH4 0x80DEB1FE PUSH2 0x1A0 DUP3 ADD MSTORE PUSH4 0x9BDC06A7 PUSH2 0x1C0 DUP3 ADD MSTORE PUSH4 0xC19BF174 PUSH2 0x1E0 DUP3 ADD MSTORE PUSH4 0xE49B69C1 PUSH2 0x200 DUP3 ADD MSTORE PUSH4 0xEFBE4786 PUSH2 0x220 DUP3 ADD MSTORE PUSH4 0xFC19DC6 PUSH2 0x240 DUP3 ADD MSTORE PUSH4 0x240CA1CC PUSH2 0x260 DUP3 ADD MSTORE PUSH4 0x2DE92C6F PUSH2 0x280 DUP3 ADD MSTORE PUSH4 0x4A7484AA PUSH2 0x2A0 DUP3 ADD MSTORE PUSH4 0x5CB0A9DC PUSH2 0x2C0 DUP3 ADD MSTORE PUSH4 0x76F988DA PUSH2 0x2E0 DUP3 ADD MSTORE PUSH4 0x983E5152 PUSH2 0x300 DUP3 ADD MSTORE PUSH4 0xA831C66D PUSH2 0x320 DUP3 ADD MSTORE PUSH4 0xB00327C8 PUSH2 0x340 DUP3 ADD MSTORE PUSH4 0xBF597FC7 PUSH2 0x360 DUP3 ADD MSTORE PUSH4 0xC6E00BF3 PUSH2 0x380 DUP3 ADD MSTORE PUSH4 0xD5A79147 PUSH2 0x3A0 DUP3 ADD MSTORE PUSH4 0x6CA6351 PUSH2 0x3C0 DUP3 ADD MSTORE PUSH4 0x14292967 PUSH2 0x3E0 DUP3 ADD MSTORE PUSH4 0x27B70A85 PUSH2 0x400 DUP3 ADD MSTORE PUSH4 0x2E1B2138 PUSH2 0x420 DUP3 ADD MSTORE PUSH4 0x4D2C6DFC PUSH2 0x440 DUP3 ADD MSTORE PUSH4 0x53380D13 PUSH2 0x460 DUP3 ADD MSTORE PUSH4 0x650A7354 PUSH2 0x480 DUP3 ADD MSTORE PUSH4 0x766A0ABB PUSH2 0x4A0 DUP3 ADD MSTORE PUSH4 0x81C2C92E PUSH2 0x4C0 DUP3 ADD MSTORE PUSH4 0x92722C85 PUSH2 0x4E0 DUP3 ADD MSTORE PUSH4 0xA2BFE8A1 PUSH2 0x500 DUP3 ADD MSTORE PUSH4 0xA81A664B PUSH2 0x520 DUP3 ADD MSTORE PUSH4 0xC24B8B70 PUSH2 0x540 DUP3 ADD MSTORE PUSH4 0xC76C51A3 PUSH2 0x560 DUP3 ADD MSTORE PUSH4 0xD192E819 PUSH2 0x580 DUP3 ADD MSTORE PUSH4 0xD6990624 PUSH2 0x5A0 DUP3 ADD MSTORE PUSH4 0xF40E3585 PUSH2 0x5C0 DUP3 ADD MSTORE PUSH4 0x106AA070 PUSH2 0x5E0 DUP3 ADD MSTORE PUSH4 0x19A4C116 PUSH2 0x600 DUP3 ADD MSTORE PUSH4 0x1E376C08 PUSH2 0x620 DUP3 ADD MSTORE PUSH4 0x2748774C PUSH2 0x640 DUP3 ADD MSTORE PUSH4 0x34B0BCB5 PUSH2 0x660 DUP3 ADD MSTORE PUSH4 0x391C0CB3 PUSH2 0x680 DUP3 ADD MSTORE PUSH4 0x4ED8AA4A PUSH2 0x6A0 DUP3 ADD MSTORE PUSH4 0x5B9CCA4F PUSH2 0x6C0 DUP3 ADD MSTORE PUSH4 0x682E6FF3 PUSH2 0x6E0 DUP3 ADD MSTORE PUSH4 0x748F82EE PUSH2 0x700 DUP3 ADD MSTORE PUSH4 0x78A5636F PUSH2 0x720 DUP3 ADD MSTORE PUSH4 0x84C87814 PUSH2 0x740 DUP3 ADD MSTORE PUSH4 0x8CC70208 PUSH2 0x760 DUP3 ADD MSTORE PUSH4 0x90BEFFFA PUSH2 0x780 DUP3 ADD MSTORE PUSH4 0xA4506CEB PUSH2 0x7A0 DUP3 ADD MSTORE PUSH4 0xBEF9A3F7 PUSH2 0x7C0 DUP3 ADD MSTORE PUSH4 0xC67178F2 PUSH2 0x7E0 DUP3 ADD MSTORE PUSH1 0x0 SWAP1 PUSH2 0xFB0 PUSH2 0x14C5 JUMP JUMPDEST PUSH1 0x0 JUMPDEST PUSH1 0x8 DUP2 PUSH4 0xFFFFFFFF AND LT ISZERO PUSH2 0x1049 JUMPI PUSH4 0xFFFFFFFF PUSH1 0x20 DUP3 MUL PUSH1 0xE0 SUB AND DUP7 PUSH1 0x0 PUSH1 0x20 MUL ADD MLOAD SWAP1 SHR DUP3 DUP3 PUSH4 0xFFFFFFFF AND PUSH1 0x40 DUP2 LT PUSH2 0xFF1 JUMPI PUSH2 0xFF1 PUSH2 0x1653 JUMP JUMPDEST PUSH4 0xFFFFFFFF SWAP3 DUP4 AND PUSH1 0x20 SWAP2 DUP3 MUL SWAP3 SWAP1 SWAP3 ADD SWAP2 SWAP1 SWAP2 MSTORE DUP3 MUL PUSH1 0xE0 SUB AND DUP7 PUSH1 0x1 PUSH1 0x20 MUL ADD MLOAD SWAP1 SHR DUP3 DUP3 PUSH1 0x8 ADD PUSH4 0xFFFFFFFF AND PUSH1 0x40 DUP2 LT PUSH2 0x1031 JUMPI PUSH2 0x1031 PUSH2 0x1653 JUMP JUMPDEST PUSH4 0xFFFFFFFF SWAP1 SWAP3 AND PUSH1 0x20 SWAP3 SWAP1 SWAP3 MUL ADD MSTORE PUSH1 0x1 ADD PUSH2 0xFB3 JUMP JUMPDEST POP PUSH1 0x10 PUSH1 0x0 DUP1 JUMPDEST PUSH1 0x40 DUP4 PUSH4 0xFFFFFFFF AND LT ISZERO PUSH2 0x11DB JUMPI PUSH1 0x3 DUP5 PUSH1 0xF DUP6 SUB PUSH4 0xFFFFFFFF AND PUSH1 0x40 DUP2 LT PUSH2 0x107C JUMPI PUSH2 0x107C PUSH2 0x1653 JUMP JUMPDEST PUSH1 0x20 MUL ADD MLOAD PUSH4 0xFFFFFFFF AND SWAP1 SHR PUSH2 0x10B3 DUP6 PUSH1 0xF DUP7 SUB PUSH4 0xFFFFFFFF AND PUSH1 0x40 DUP2 LT PUSH2 0x10A7 JUMPI PUSH2 0x10A7 PUSH2 0x1653 JUMP JUMPDEST PUSH1 0x20 MUL ADD MLOAD PUSH1 0x12 PUSH2 0x1453 JUMP JUMPDEST PUSH2 0x10DD DUP7 PUSH1 0xF DUP8 SUB PUSH4 0xFFFFFFFF AND PUSH1 0x40 DUP2 LT PUSH2 0x10D1 JUMPI PUSH2 0x10D1 PUSH2 0x1653 JUMP JUMPDEST PUSH1 0x20 MUL ADD MLOAD PUSH1 0x7 PUSH2 0x1453 JUMP JUMPDEST XOR XOR SWAP2 POP PUSH1 0xA DUP5 PUSH1 0x2 DUP6 SUB PUSH4 0xFFFFFFFF AND PUSH1 0x40 DUP2 LT PUSH2 0x10FE JUMPI PUSH2 0x10FE PUSH2 0x1653 JUMP JUMPDEST PUSH1 0x20 MUL ADD MLOAD PUSH4 0xFFFFFFFF AND SWAP1 SHR PUSH2 0x1135 DUP6 PUSH1 0x2 DUP7 SUB PUSH4 0xFFFFFFFF AND PUSH1 0x40 DUP2 LT PUSH2 0x1129 JUMPI PUSH2 0x1129 PUSH2 0x1653 JUMP JUMPDEST PUSH1 0x20 MUL ADD MLOAD PUSH1 0x13 PUSH2 0x1453 JUMP JUMPDEST PUSH2 0x115F DUP7 PUSH1 0x2 DUP8 SUB PUSH4 0xFFFFFFFF AND PUSH1 0x40 DUP2 LT PUSH2 0x1153 JUMPI PUSH2 0x1153 PUSH2 0x1653 JUMP JUMPDEST PUSH1 0x20 MUL ADD MLOAD PUSH1 0x11 PUSH2 0x1453 JUMP JUMPDEST XOR XOR SWAP1 POP DUP1 DUP5 PUSH1 0x7 DUP6 SUB PUSH4 0xFFFFFFFF AND PUSH1 0x40 DUP2 LT PUSH2 0x117F JUMPI PUSH2 0x117F PUSH2 0x1653 JUMP JUMPDEST PUSH1 0x20 MUL ADD MLOAD DUP4 DUP7 PUSH1 0x10 DUP8 SUB PUSH4 0xFFFFFFFF AND PUSH1 0x40 DUP2 LT PUSH2 0x11A0 JUMPI PUSH2 0x11A0 PUSH2 0x1653 JUMP JUMPDEST PUSH1 0x20 MUL ADD MLOAD ADD ADD ADD DUP5 DUP5 PUSH4 0xFFFFFFFF AND PUSH1 0x40 DUP2 LT PUSH2 0x11C0 JUMPI PUSH2 0x11C0 PUSH2 0x1653 JUMP JUMPDEST PUSH4 0xFFFFFFFF SWAP1 SWAP3 AND PUSH1 0x20 SWAP3 SWAP1 SWAP3 MUL ADD MSTORE PUSH1 0x1 SWAP1 SWAP3 ADD SWAP2 PUSH2 0x1050 JUMP JUMPDEST PUSH2 0x11E3 PUSH2 0x14E4 JUMP JUMPDEST PUSH1 0x0 SWAP4 POP JUMPDEST PUSH1 0x8 DUP5 PUSH4 0xFFFFFFFF AND LT ISZERO PUSH2 0x123A JUMPI DUP4 PUSH1 0x20 MUL PUSH1 0xE0 SUB PUSH4 0xFFFFFFFF AND DUP9 SWAP1 SHR DUP2 DUP6 PUSH4 0xFFFFFFFF AND PUSH1 0x8 DUP2 LT PUSH2 0x121F JUMPI PUSH2 0x121F PUSH2 0x1653 JUMP JUMPDEST PUSH4 0xFFFFFFFF SWAP1 SWAP3 AND PUSH1 0x20 SWAP3 SWAP1 SWAP3 MUL ADD MSTORE PUSH1 0x1 SWAP1 SWAP4 ADD SWAP3 PUSH2 0x11E8 JUMP JUMPDEST PUSH1 0x0 DUP1 PUSH1 0x0 DUP1 SWAP7 POP JUMPDEST PUSH1 0x40 DUP8 PUSH4 0xFFFFFFFF AND LT ISZERO PUSH2 0x1396 JUMPI PUSH1 0x80 DUP5 ADD MLOAD PUSH2 0x1262 SWAP1 PUSH1 0x19 PUSH2 0x1453 JUMP JUMPDEST PUSH1 0x80 DUP6 ADD MLOAD PUSH2 0x1272 SWAP1 PUSH1 0xB PUSH2 0x1453 JUMP JUMPDEST PUSH1 0x80 DUP7 ADD MLOAD PUSH2 0x1282 SWAP1 PUSH1 0x6 PUSH2 0x1453 JUMP JUMPDEST XOR XOR SWAP5 POP DUP8 DUP8 PUSH4 0xFFFFFFFF AND PUSH1 0x40 DUP2 LT PUSH2 0x129E JUMPI PUSH2 0x129E PUSH2 0x1653 JUMP JUMPDEST PUSH1 0x20 MUL ADD MLOAD DUP10 DUP9 PUSH4 0xFFFFFFFF AND PUSH1 0x40 DUP2 LT PUSH2 0x12BB JUMPI PUSH2 0x12BB PUSH2 0x1653 JUMP JUMPDEST PUSH1 0x20 MUL ADD MLOAD PUSH1 0x80 DUP7 ADD MLOAD PUSH1 0xA0 DUP8 ADD MLOAD PUSH1 0xC0 DUP9 ADD MLOAD DUP3 NOT AND SWAP2 AND XOR DUP8 DUP8 PUSH1 0x7 PUSH1 0x20 MUL ADD MLOAD ADD ADD ADD ADD SWAP3 POP PUSH2 0x12F6 DUP5 PUSH1 0x0 PUSH1 0x20 MUL ADD MLOAD PUSH1 0x16 PUSH2 0x1453 JUMP JUMPDEST DUP5 MLOAD PUSH2 0x1303 SWAP1 PUSH1 0xD PUSH2 0x1453 JUMP JUMPDEST DUP6 MLOAD PUSH2 0x1310 SWAP1 PUSH1 0x2 PUSH2 0x1453 JUMP JUMPDEST PUSH1 0x40 DUP8 ADD DUP1 MLOAD PUSH1 0x20 DUP10 ADD DUP1 MLOAD DUP11 MLOAD PUSH1 0xC0 DUP13 ADD DUP1 MLOAD PUSH4 0xFFFFFFFF SWAP1 DUP2 AND PUSH1 0xE0 DUP16 ADD MSTORE PUSH1 0xA0 DUP15 ADD DUP1 MLOAD DUP3 AND SWAP1 SWAP3 MSTORE PUSH1 0x80 DUP15 ADD DUP1 MLOAD DUP3 AND SWAP1 SWAP3 MSTORE PUSH1 0x60 DUP15 ADD DUP1 MLOAD DUP15 ADD DUP3 AND SWAP1 SWAP3 MSTORE DUP1 DUP7 AND SWAP1 SWAP2 MSTORE DUP1 DUP4 AND SWAP1 SWAP6 MSTORE DUP5 DUP2 AND SWAP1 SWAP3 MSTORE DUP1 DUP4 XOR SWAP2 SWAP1 SWAP2 AND SWAP2 AND XOR SWAP3 SWAP1 SWAP2 XOR SWAP3 SWAP1 SWAP3 XOR DUP2 DUP2 ADD DUP7 DUP2 ADD SWAP1 SWAP4 AND DUP8 MSTORE PUSH1 0x1 SWAP10 SWAP1 SWAP10 ADD SWAP9 SWAP8 POP SWAP1 SWAP3 POP SWAP1 POP PUSH2 0x1243 JUMP JUMPDEST PUSH1 0x0 SWAP7 POP JUMPDEST PUSH1 0x8 DUP8 PUSH4 0xFFFFFFFF AND LT ISZERO PUSH2 0x13F0 JUMPI DUP7 PUSH1 0x20 MUL PUSH1 0xE0 SUB PUSH4 0xFFFFFFFF AND DUP12 SWAP1 SHR DUP5 DUP9 PUSH4 0xFFFFFFFF AND PUSH1 0x8 DUP2 LT PUSH2 0x13D2 JUMPI PUSH2 0x13D2 PUSH2 0x1653 JUMP JUMPDEST PUSH1 0x20 MUL ADD DUP1 MLOAD PUSH4 0xFFFFFFFF SWAP3 ADD SWAP2 SWAP1 SWAP2 AND SWAP1 MSTORE PUSH1 0x1 SWAP1 SWAP7 ADD SWAP6 PUSH2 0x139B JUMP JUMPDEST PUSH1 0x0 DUP1 SWAP8 POP JUMPDEST PUSH1 0x8 DUP9 PUSH4 0xFFFFFFFF AND LT ISZERO PUSH2 0x1443 JUMPI DUP8 PUSH1 0x20 MUL PUSH1 0xE0 SUB PUSH4 0xFFFFFFFF AND DUP6 DUP10 PUSH4 0xFFFFFFFF AND PUSH1 0x8 DUP2 LT PUSH2 0x142A JUMPI PUSH2 0x142A PUSH2 0x1653 JUMP JUMPDEST PUSH1 0x20 MUL ADD MLOAD PUSH1 0x1 SWAP1 SWAP10 ADD SWAP9 PUSH4 0xFFFFFFFF AND SWAP1 SHL OR PUSH2 0x13F6 JUMP JUMPDEST SWAP13 SWAP12 POP POP POP POP POP POP POP POP POP POP POP POP JUMP JUMPDEST PUSH1 0x0 PUSH2 0x1460 DUP3 PUSH1 0x20 PUSH2 0x167F JUMP JUMPDEST PUSH4 0xFFFFFFFF AND DUP4 PUSH4 0xFFFFFFFF AND SWAP1 SHL DUP3 PUSH4 0xFFFFFFFF AND DUP5 PUSH4 0xFFFFFFFF AND SWAP1 SHR OR SWAP1 POP SWAP3 SWAP2 POP POP JUMP JUMPDEST PUSH1 0x40 MLOAD DUP1 PUSH2 0x320 ADD PUSH1 0x40 MSTORE DUP1 PUSH1 0x19 SWAP1 PUSH1 0x20 DUP3 MUL DUP1 CALLDATASIZE DUP4 CALLDATACOPY POP SWAP2 SWAP3 SWAP2 POP POP JUMP JUMPDEST PUSH1 0x40 MLOAD DUP1 PUSH1 0xA0 ADD PUSH1 0x40 MSTORE DUP1 PUSH1 0x5 SWAP1 PUSH1 0x20 DUP3 MUL DUP1 CALLDATASIZE DUP4 CALLDATACOPY POP SWAP2 SWAP3 SWAP2 POP POP JUMP JUMPDEST PUSH1 0x40 MLOAD DUP1 PUSH2 0x800 ADD PUSH1 0x40 MSTORE DUP1 PUSH1 0x40 SWAP1 PUSH1 0x20 DUP3 MUL DUP1 CALLDATASIZE DUP4 CALLDATACOPY POP SWAP2 SWAP3 SWAP2 POP POP JUMP JUMPDEST PUSH1 0x40 MLOAD DUP1 PUSH2 0x100 ADD PUSH1 0x40 MSTORE DUP1 PUSH1 0x8 SWAP1 PUSH1 0x20 DUP3 MUL DUP1 CALLDATASIZE DUP4 CALLDATACOPY POP SWAP2 SWAP3 SWAP2 POP POP JUMP JUMPDEST PUSH1 0x0 PUSH2 0x320 DUP1 DUP4 DUP6 SUB SLT ISZERO PUSH2 0x1517 JUMPI PUSH1 0x0 DUP1 REVERT JUMPDEST DUP4 PUSH1 0x1F DUP5 ADD SLT PUSH2 0x1526 JUMPI PUSH1 0x0 DUP1 REVERT JUMPDEST PUSH1 0x40 MLOAD DUP2 DUP2 ADD DUP2 DUP2 LT PUSH1 0x1 PUSH1 0x1 PUSH1 0x40 SHL SUB DUP3 GT OR ISZERO PUSH2 0x1555 JUMPI PUSH4 0x4E487B71 PUSH1 0xE0 SHL PUSH1 0x0 MSTORE PUSH1 0x41 PUSH1 0x4 MSTORE PUSH1 0x24 PUSH1 0x0 REVERT JUMPDEST PUSH1 0x40 MSTORE SWAP1 DUP4 ADD SWAP1 DUP1 DUP6 DUP4 GT ISZERO PUSH2 0x156A JUMPI PUSH1 0x0 DUP1 REVERT JUMPDEST DUP5 JUMPDEST DUP4 DUP2 LT ISZERO PUSH2 0x1584 JUMPI DUP1 CALLDATALOAD DUP3 MSTORE PUSH1 0x20 SWAP2 DUP3 ADD SWAP2 ADD PUSH2 0x156C JUMP JUMPDEST POP SWAP1 SWAP6 SWAP5 POP POP POP POP POP JUMP JUMPDEST PUSH2 0x320 DUP2 ADD DUP2 DUP4 PUSH1 0x0 JUMPDEST PUSH1 0x19 DUP2 LT ISZERO PUSH2 0x15B8 JUMPI DUP2 MLOAD DUP4 MSTORE PUSH1 0x20 SWAP3 DUP4 ADD SWAP3 SWAP1 SWAP2 ADD SWAP1 PUSH1 0x1 ADD PUSH2 0x1599 JUMP JUMPDEST POP POP POP SWAP3 SWAP2 POP POP JUMP JUMPDEST PUSH1 0x0 DUP1 PUSH1 0x60 DUP4 DUP6 SUB SLT ISZERO PUSH2 0x15D4 JUMPI PUSH1 0x0 DUP1 REVERT JUMPDEST DUP4 PUSH1 0x1F DUP5 ADD SLT PUSH2 0x15E3 JUMPI PUSH1 0x0 DUP1 REVERT JUMPDEST PUSH1 0x40 MLOAD PUSH1 0x40 DUP2 ADD DUP2 DUP2 LT PUSH1 0x1 PUSH1 0x1 PUSH1 0x40 SHL SUB DUP3 GT OR ISZERO PUSH2 0x1613 JUMPI PUSH4 0x4E487B71 PUSH1 0xE0 SHL PUSH1 0x0 MSTORE PUSH1 0x41 PUSH1 0x4 MSTORE PUSH1 0x24 PUSH1 0x0 REVERT JUMPDEST DUP1 PUSH1 0x40 MSTORE POP DUP1 PUSH1 0x40 DUP6 ADD DUP7 DUP2 GT ISZERO PUSH2 0x162A JUMPI PUSH1 0x0 DUP1 REVERT JUMPDEST DUP6 JUMPDEST DUP2 DUP2 LT ISZERO PUSH2 0x1644 JUMPI DUP1 CALLDATALOAD DUP4 MSTORE PUSH1 0x20 SWAP3 DUP4 ADD SWAP3 ADD PUSH2 0x162C JUMP JUMPDEST POP SWAP2 SWAP7 SWAP2 CALLDATALOAD SWAP6 POP SWAP1 SWAP4 POP POP POP POP JUMP JUMPDEST PUSH4 0x4E487B71 PUSH1 0xE0 SHL PUSH1 0x0 MSTORE PUSH1 0x32 PUSH1 0x4 MSTORE PUSH1 0x24 PUSH1 0x0 REVERT JUMPDEST PUSH4 0x4E487B71 PUSH1 0xE0 SHL PUSH1 0x0 MSTORE PUSH1 0x12 PUSH1 0x4 MSTORE PUSH1 0x24 PUSH1 0x0 REVERT JUMPDEST PUSH1 0x0 PUSH4 0xFFFFFFFF DUP4 DUP2 AND SWAP1 DUP4 AND DUP2 DUP2 LT ISZERO PUSH2 0x16AA JUMPI PUSH4 0x4E487B71 PUSH1 0xE0 SHL PUSH1 0x0 MSTORE PUSH1 0x11 PUSH1 0x4 MSTORE PUSH1 0x24 PUSH1 0x0 REVERT JUMPDEST SUB SWAP4 SWAP3 POP POP POP JUMP INVALID LOG2 PUSH5 0x6970667358 0x22 SLT KECCAK256 0xEC SMOD 0xE6 0xDC PUSH8 0x54340B6210C84BD1 PUSH29 0xF10BF698D398418A92E490A0D44FDF3E67E364736F6C63430008090033 "
        },
        "methodIdentifiers": {
          "keccakF(uint256[25])": "ac90ed46",
          "sha256Block(bytes32[2],bytes32)": "e479f532"
        }
      }
    }
  }
}