{
  "src/test-helpers/RollupMock.sol": {
    "RollupMock": {
      "abi": [
        {
          "anonymous": false,
          "inputs": [],
          "name": "WithdrawTriggered",
          "type": "event"
        },
        {
          "anonymous": false,
          "inputs": [],
          "name": "ZombieTriggered",
          "type": "event"
        },
        {
          "inputs": [
            {
              "internalType": "uint256",
              "name": "",
              "type": "uint256"
            }
          ],
          "name": "removeOldZombies",
          "outputs": [],
          "stateMutability": "nonpayable",
          "type": "function"
        },
        {
          "inputs": [],
          "name": "withdrawStakerFunds",
          "outputs": [
            {
              "internalType": "uint256",
              "name": "",
              "type": "uint256"
            }
          ],
          "stateMutability": "nonpayable",
          "type": "function"
        }
      ],
      "evm": {
        "bytecode": {
          "linkReferences": {},
          "object": "608060405234801561001057600080fd5b5061010b806100206000396000f3fe6080604052348015600f57600080fd5b506004361060325760003560e01c806361373919146037578063edfd03ed14604f575b600080fd5b603d6060565b60405190815260200160405180910390f35b605e605a36600460bd565b6091565b005b6040516000907f1c09fbbf7cfd024f5e4e5472dd87afd5d67ee5db6a0ca715bf508d96abce309f908290a150600090565b6040517fb774f793432a37585a7638b9afe49e91c478887a2c0fef32877508bf2f76429d90600090a150565b60006020828403121560ce57600080fd5b503591905056fea2646970667358221220fc39311811243901a9c107ebde51901d4627af7b8772f5f283e44615c1991ed364736f6c63430008090033",
          "opcodes": "PUSH1 0x80 PUSH1 0x40 MSTORE CALLVALUE DUP1 ISZERO PUSH2 0x10 JUMPI PUSH1 0x0 DUP1 REVERT JUMPDEST POP PUSH2 0x10B DUP1 PUSH2 0x20 PUSH1 0x0 CODECOPY PUSH1 0x0 RETURN INVALID PUSH1 0x80 PUSH1 0x40 MSTORE CALLVALUE DUP1 ISZERO PUSH1 0xF JUMPI PUSH1 0x0 DUP1 REVERT JUMPDEST POP PUSH1 0x4 CALLDATASIZE LT PUSH1 0x32 JUMPI PUSH1 0x0 CALLDATALOAD PUSH1 0xE0 SHR DUP1 PUSH4 0x61373919 EQ PUSH1 0x37 JUMPI DUP1 PUSH4 0xEDFD03ED EQ PUSH1 0x4F JUMPI JUMPDEST PUSH1 0x0 DUP1 REVERT JUMPDEST PUSH1 0x3D PUSH1 0x60 JUMP JUMPDEST PUSH1 0x40 MLOAD SWAP1 DUP2 MSTORE PUSH1 0x20 ADD PUSH1 0x40 MLOAD DUP1 SWAP2 SUB SWAP1 RETURN JUMPDEST PUSH1 0x5E PUSH1 0x5A CALLDATASIZE PUSH1 0x4 PUSH1 0xBD JUMP JUMPDEST PUSH1 0x91 JUMP JUMPDEST STOP JUMPDEST PUSH1 0x40 MLOAD PUSH1 0x0 SWAP1 PUSH32 0x1C09FBBF7CFD024F5E4E5472DD87AFD5D67EE5DB6A0CA715BF508D96ABCE309F SWAP1 DUP3 SWAP1 LOG1 POP PUSH1 0x0 SWAP1 JUMP JUMPDEST PUSH1 0x40 MLOAD PUSH32 0xB774F793432A37585A7638B9AFE49E91C478887A2C0FEF32877508BF2F76429D SWAP1 PUSH1 0x0 SWAP1 LOG1 POP JUMP JUMPDEST PUSH1 0x0 PUSH1 0x20 DUP3 DUP5 SUB SLT ISZERO PUSH1 0xCE JUMPI PUSH1 0x0 DUP1 REVERT JUMPDEST POP CALLDATALOAD SWAP2 SWAP1 POP JUMP INVALID LOG2 PUSH5 0x6970667358 0x22 SLT KECCAK256 0xFC CODECOPY BALANCE XOR GT 0x24 CODECOPY ADD 0xA9 0xC1 SMOD 0xEB 0xDE MLOAD SWAP1 SAR CHAINID 0x27 0xAF PUSH28 0x8772F5F283E44615C1991ED364736F6C634300080900330000000000 "
        },
        "methodIdentifiers": {
          "removeOldZombies(uint256)": "edfd03ed",
          "withdrawStakerFunds()": "61373919"
        }
      }
    }
  }
}